:020000040800F2
:10000000F08D002045010008D51F0008151C0008D0
:10001000F11E0008590B0008D97900080000000003
:10002000000000000000000000000000855D0008E6
:10003000750E000800000000DD0700087D30000894
:100040005F0100085F0100085F0100085F01000810
:100050005F0100085F0100085F0100085F01000800
:100060005F0100085F0100085F0100085F010008F0
:100070005F0100085F0100085F0100085F010008E0
:100080005F0100085F0100085F0100085F010008D0
:100090005F0100085F0100085F0100085F010008C0
:1000A0005F0100085F0100085F0100085F010008B0
:1000B000196300085F0100085F0100085F01000884
:1000C0005F0100085F0100085F0100085F01000890
:1000D0005F010008E17200081D7300085F0100085D
:1000E0005F0100085F0100085F0100085F01000870
:1000F0005F0100085F0100085F0100085F01000860
:100100005F0100085F0100085F0100085F0100084F
:100110005F0100085F0100085F0100085F0100083F
:100120005F0100085F0100085F0100085F0100082F
:10013000DFF80CD000F096FA0048004799890008D3
:10014000F08D00200648804706480047FEE7FEE79E
:10015000FEE7FEE7FEE7FEE7FEE7FEE7FEE7FEE777
:10016000B96200083101000872B6704762B6704784
:10017000EFF3108072B6704780F31088704730BF7D
:10018000704720BF7047B0FA80F0704790FAA0F037
:10019000B0FA80F0704790FAA0F070472DE9F05F58
:1001A0000546002092469B468846064681464024E6
:1001B0001BE0284641464746224600F08EF853464B
:1001C0005A46C01A914110D311461846224600F0F3
:1001D00075F82D1A67EB01084F46224601200021D1
:1001E00000F06CF817EB00094E41201EA4F1010449
:1001F000DFDC484631462A464346BDE8F09F40EAE8
:1002000001039B0703D009E008C9121F08C0042A94
:10021000FAD203E011F8013B00F8013B521EF9D27B
:100220007047D2B201E000F8012B491EFBD27047A3
:100230000022F6E710B513460A4604461946FFF7B2
:10024000F0FF204610BD421E12F8013F002BFBD1EB
:1002500011F8013B02F8013B002BF9D1704730B592
:1002600005462A460B4612F8010B13F8014B08B15C
:10027000A042F8D01CB1002802D06D1CF1E728463E
:1002800030BD421C10F8011B0029FBD1801A7047B9
:1002900030B50B46014600202022012409E021FA56
:1002A00002F59D4205D303FA02F5491B04FA02F553
:1002B0002844151EA2F10102F1DC30BD202A04DB26
:1002C000203A00FA02F1002070479140C2F1200369
:1002D00020FA03F3194390407047202A04DB203AA8
:1002E00021FA02F00021704721FA02F3D040C2F156
:1002F000200291400843194670472DE9FE4F804681
:1003000081EA0300C00F0C46009021F0004123F069
:100310000045B8EB0200A94105D24046214690466F
:100320001C460B46024623F00040104304D14046D1
:10033000214603B0BDE8F08F270DC7F30A00C3F3D1
:100340000A510290401A0190402866DAC3F3130064
:1003500040F4801B0098924620B10023D2EB030AA0
:1003600063EB0B0B01985946C0F140025046FFF772
:10037000A5FF06460D4650465946019A00F084F9FD
:1003800010EB08006141002487EA115284EAE77308
:100390001A433BD0009A3AB3019A012A4FEA075216
:1003A00010DC001B61EB02014FF0004202EA075231
:1003B000CDE90042001C41F5801132462B4600F089
:1003C00082F9B6E7001B61EB0201001C41F58013C6
:1003D00000185B412018A2F5001747EB030140EA23
:1003E000D570B6196D4111E06D084FEA360645EA41
:1003F000C0754FEA0752001B61EB0201001C41F57A
:10040000801149084FEA30000019514132462B460D
:1004100003B0BDE8F04F00F049B900980122400058
:100420000023D0EB020263EBE073009821464FEA11
:10043000E074B8EB000061EB0401E9E783F00043EE
:100440005BE781F0004158E72DE9FE4F81EA0304A4
:1004500004F0004421F0004100944FF0000B23F021
:10046000004350EA010402D052EA030404D1002000
:10047000014603B0BDE8F08FC3F30A54C1F30A5537
:100480002C44A4F2F3340194A0FB0254C1F31301F1
:1004900041F48011C3F3130343F4801301FB0244BE
:1004A00000FB034E840A970A44EA815447EA8357C3
:1004B000A4FB076802958D0A05FB07854FEA932C7C
:1004C00004FB0C542705029D4FEA065847EA1637ED
:1004D000B5EB08056EEB070C870E920E47EA811705
:1004E00042EA8312A7FB0201B6EB0B0164EB0004A6
:1004F0002B0D43EA0C335E1844EB1C50DA46514690
:10050000E7FB0201C5F313044FEA0B3343EA14532C
:100510004FEA0432019C43EA0603A4F10C0402945E
:10052000009CCDE900B400F0CEF8A2E72DE9F04D33
:1005300081EA030404F0004B21F0004514464FF01B
:10054000000A23F0004150EA050220D054EA0102DB
:100550001DD0C5F30A570246C5F31303C1F31300B8
:10056000C1F30A5640F4801543F48013A7EB060844
:10057000101BD64608F2FD3873EB050002D308F1D4
:10058000010801E092185B41B8F1000F03DA002086
:100590000146BDE8F08D00204FF4801106468446E8
:1005A0000EE0171B73EB050705D3121B63EB050366
:1005B00006434CEA010C49084FEA300092185B41AF
:1005C00050EA0107EDD152EA030012D082EA04009A
:1005D00083EA0501084303D100224FF0004308E0FD
:1005E000101BAB4102D20122002302E06FF0010296
:1005F00053101AEB06004CEB085110EB0A0041EBCC
:100600000B01BDE8F04D00F051B8C1F30A52C1F33F
:10061000130140F2FF3341F480119A4202DA0020C4
:100620000146704740F233439A42A2F2334202DC61
:100630005242FFF752BEFFF741BE000030B500291D
:1006400004DB4FF00044404264EB0101002B04DB6B
:100650004FF00044524264EB0303994208BF9042BA
:1006600030BD0000064C074D06E0E06840F0010395
:1006700094E8070098471034AC42F6D3FFF75CFDCE
:1006800080920008A0920008202A06DBCB17203AAF
:1006900041FA02F043EAE07306E041FA02F3D04087
:1006A000C2F12002914008431946704710B5002B53
:1006B00008DA401C41F1000192185B411A4301D154
:1006C00020F0010010BD2DE9F04D92469B4611B17E
:1006D000B1FA81F202E0B0FA80F220329046FFF7E0
:1006E000EDFD04460F4640EA0A0041EA0B0153467D
:1006F0005A46084303D120463946BDE8F08D1146DD
:1007000053EA010015D0C8F140025046FFF7E5FD5D
:1007100005460E46504659464246FFF7CFFD084370
:1007200001D0012000E00020054346EAE0762C439A
:1007300037430A984FEA4453A0EB08004FEAD42409
:100740000A304FF0000244EA47544FEAD72502D559
:1007500000200146D1E7010510196941DDE908458E
:1007600000196941BDE8F04DA0E7000072B64EF6F1
:100770002250CEF2000040F2FF01C0F200010170F1
:1007800040F21010C2F20000016881F3088840F2C4
:10079000AA00C2F2000040F2AB01C2F200010A78E6
:1007A000027040F20815C2F2000540F20C11C2F2CC
:1007B00000010A682A60106880F30988EFF314804A
:1007C00040F0020080F31488BFF36F8FBDE8F00F94
:1007D0000FBCBDE8005006BC62B6084772B6EFF326
:1007E000098020E9F00F40F20815C2F200052E68DA
:1007F0003060744602F0E0FA40F2AA00C2F2000053
:1008000040F2AB01C2F200010A78027040F20C1112
:10081000C2F200010A682A6044F0040E1068B0E8D1
:10082000F00F80F3098862B67047704700B58BB04F
:100830000AA8032100220592CDE90621089010465E
:100840004FF4007133221F4BCDE90132CDE9031083
:10085000042000231C4A1DA100901F4802F078F8D4
:100860000AA8032100220592CDE90621089010462E
:100870004FF480616622194BCDE90132CDE90310B6
:1008800003200023164A17A100901B4802F060F8CD
:100890000AA8032100220592CDE9062108901046FE
:1008A0004FF400713322154BCDE90132CDE903102D
:1008B00005200023124A13A10090164802F048F8C0
:1008C0000BB000BD501B002095090008417070203E
:1008D0005461736B20554900981A0020E0010020F4
:1008E0002B090008417070205461736B2053494DEF
:1008F0003830304300000000280100200824002088
:1009000019090008417070205461736B204D4943F0
:10091000530000005023002006E006F0F7FD05F02C
:10092000AFFC012000F0C6F8F7E710B5044604F06C
:10093000ADFF10BD002400BF00BFFFF719FC044647
:1009400000BF00F08FF900BF00F008F900F0D2F806
:1009500000F02AF807F00BFE01F086FA00F06CF9BF
:10096000FFF764FFFFF761FF00BF00F095F900BFDC
:100970002046FFF701FC00BF00BF4FF47A7007F07C
:100980001DFE06E003F0CEFC01F078F90A2000F02D
:1009900091F8F7E706E0012007F06CFE4FF47A705B
:1009A00000F088F8F7E7704710B5002400BF00BFDB
:1009B000FFF7DEFB044600BF00F054F900BF0F480C
:1009C0000F4908600F481049086010481049086036
:1009D000104811490860114811490860114812492E
:1009E000086012481249086000BF00F055F900BFC6
:1009F0002046FFF7C1FB00BF00BF10BDA7090008DC
:100A000084000020350A000888000020370A00080A
:100A100078000020390A00087C0000203B0A00080A
:100A2000800000203D0A00088C0000203F0A0008DA
:100A3000900000207047704770477047704710B5AE
:100A400005F02CFD10BD0146302905DB392903DCFA
:100A5000A1F13000C0B27047612901D0412901D114
:100A60000A20F8E7622901D0422901D10B20F2E7E0
:100A7000632901D0432901D10C20ECE7642901D07E
:100A8000442901D10D20E6E7652901D0452901D18E
:100A90000E20E0E7662901D0462901D10F20DAE7D0
:100AA0001020D8E700B585B0684603F0E1FC019856
:100AB00005B000BDFEB5044642F21070844200D974
:100AC0000446B4F57A7F09D34FF47A70B4FBF0F1A1
:100AD00000FB1145B4FBF0F086B201E0254600268C
:100AE00002A800212B463246CDE90010084602F04C
:100AF000FFF9FEBD2DE9F041FFF7D4FF054613488D
:100B00000068B5FBF0F42146B1F1807F00D31BE013
:100B100021F07F40401E4FF0E022506150170F221D
:100B2000002806DA13010A4E00F00F073F1FF355A5
:100B300002E01601074B1E5400BF00204FF0E022D8
:100B400090610720106100BFBDE8F081D4900008DB
:100B500018ED00E000E400E000BFFEE710B500F093
:100B6000E5F800F003F800F0DDF810BD70B50026E0
:100B70000020184908801849088018490860184959
:100B8000086018490860184908601849086000247E
:100B900000BFFFF7EDFA064600BF00250BE000207E
:100BA0001049086000F05EF800F076F80D48006823
:100BB0000444681C85B2002DF1D00C48046000206C
:100BC000084908600849086000BF3046FFF7D4FABA
:100BD00000BF70BD5C0000205E00002060000020AF
:100BE000640000206C0000207000002068000020DD
:100BF00001460846044A1268904203D9024A126824
:100C0000801A00E0002070476800002070B50025C1
:100C100000BFFFF7ADFA054600BF0648046800BFF5
:100C20002846FFF7A9FA00BF2046FFF7E1FF064676
:100C3000304670BD6C00002070B50025FFF7E6FF60
:100C4000044600BFFFF794FA054600BF00200449A0
:100C5000086000BF2846FFF78FFA00BF204670BD2E
:100C60006C00002010B509480088401C0749088026
:100C70000748008818B900F083F80649086004485E
:100C80000088401C0249088010BD00005C00002064
:100C90005E0000206000002010B50F480088401E54
:100CA0000D49088008460088A0B900F069F80B4992
:100CB0000860084600680A490968441A094800683B
:100CC000A04201D20748046007480068A04201D250
:100CD0000548046010BD00005E0000206400002094
:100CE000600000206C0000207000002010B500247F
:100CF00000BF00BFFFF73CFA044600BFFFF7B2FF9A
:100D000000BF1021064801F0F5F800BFFFF7C4FF4F
:100D100000BF2046FFF730FA00BF00BF10BD000043
:100D20007459002010B5FFF7E1FF10BD10B5002089
:100D30000249086000F00AF810BD000058000020C9
:100D400001490860704700005800002010B5FFF707
:100D5000A9FE04460848006840F080700649086013
:100D60000020064948600846006840F0010008601D
:100D70002046FFF7E5FF10BDFCED00E0001000E0AD
:100D80000149486870470000001000E0302805DB8A
:100D9000392803DCA0F13001C8B20EE0412805DBA0
:100DA000462803DCA0F13701C8B206E0612804DB65
:100DB000662802DCA0F15701C8B27047014609B9A4
:100DC00009487047012901D10848FAE7022901D1F1
:100DD0000020F6E7032901D10020F2E7042901D120
:100DE0000020EEE70020ECE7184E002044520020DF
:100DF00008B525208DF8000000208DF802000120A4
:100E00008DF80300684601F0E7F826208DF8000011
:100E100001208DF802008DF80300684601F0DCF82F
:100E200008BD70B504460D464FF4B060005908B9CE
:100E3000002070BD4FF4AF600059C0EBC00004EB60
:100E400080011C222846FFF7DAF94FF4AF60005901
:100E5000401C322190FBF1F201FB12014FF4AF6014
:100E600001514FF4B0600059401E4FF4B061085179
:100E70000120DEE770470FB410B504464FF4B060B0
:100E80000059322803D1002010BC5DF814FB40F259
:100E90007C510959C1EBC10104EB81001C2203A95B
:100EA000FFF7ADF940F27C500059401C322190FB15
:100EB000F1F201FB120140F27C500151001D00597A
:100EC000401C4FF4B06108510120DDE70149C860C2
:100ED000704700000020024030B5044604254FF45E
:100EE000302000F06FF80546042D17D10C4800693A
:100EF00040F002000A49086108464461006940F078
:100F0000400008614FF4302000F05CF805460448CA
:100F1000006941F6FD71084001490861284630BD6D
:100F20000020024004200B49C96811F0010F01D0D4
:100F300001200EE00749C96811F0040F01D002201A
:100F400007E00449C96811F0100F01D0032000E048
:100F500004207047002002400348006940F08000F0
:100F600001490861704700000020024070B5044646
:100F70000D460426F00200F025F80646042E11D195
:100F80000948006940F00100074908612580F00226
:100F900000F018F806460448006941F6FE71084062
:100FA00001490861304670BD0020024002480349F3
:100FB00048600348486070472301674500200240AD
:100FC000AB89EFCD00B502460423FFF7ABFF034624
:100FD00003E0FFF7A7FF0346521E012B01D1002AB1
:100FE000F7D102B90523184600BD2DE9F0410246AC
:100FF00000250026002000230024002791F803C0CC
:101000000CF00F0591F803C01CF0100F03D091F8FD
:1010100002C04CEA050591F800C0BCF1000F31D0C8
:10102000146800202BE04FF0010C0CFA00F3B1F82B
:1010300000C00CEA03069E4220D183004FF00F0C43
:101040000CFA03F7BC4305FA03FC4CEA040491F8DC
:1010500003C0BCF1280F06D14FF0010C0CFA00FCC4
:10106000C2F814C00AE091F803C0BCF1480F05D1E2
:101070004FF0010C0CFA00FCC2F810C0401C08280C
:10108000D1D31460B1F800C0BCF1FF0F34DD546857
:1010900000202EE000F1080C4FF0010808FA0CF3D4
:1010A000B1F800C00CEA03069E4221D183004FF044
:1010B0000F0C0CFA03F7BC4305FA03FC4CEA0404DA
:1010C00091F803C0BCF1280F05D100F1080C08FA13
:1010D0000CF8C2F8148091F803C0BCF1480F07D196
:1010E00000F1080C4FF0010808FA0CF8C2F8108063
:1010F000401C0828CED35460BDE8F081F0B50A4604
:10110000002300240021002500F00046B6F1004F26
:1011100002D11D4EF16901E01B4E7168C0F3034519
:1011200083B200F44016B6F5401F08D121F070617B
:10113000154E766826F07066134F7E6012E000F45C
:101140008016B6F5801F06D1032606FA05F4A143E2
:1011500041F0706106E0460D360103FA06F6B14330
:1011600041F0706122B1460D360103FA06F63143B3
:1011700000F00046B6F1004F02D1034EF16101E0EC
:10118000014E7160F0BD000000000140014688681A
:1011900080B2704770B504460D4641F2C8702058C1
:1011A00008B9002070BD4FF4BE50005900EB40025A
:1011B00002EB001004EB00114FF498722846FFF781
:1011C0001EF84FF4BE500059401C142190FBF1F260
:1011D00001FB12014FF4BE50015141F2C87020587A
:1011E000401E41F2C87160500120DBE70FB410B51A
:1011F000044641F2C8702058142803D1002010BCC6
:101200005DF814FB41F2C471615801EB410202EB3D
:10121000011104EB01104FF4987203A9FEF7EFFFE0
:1012200041F2C4702058401C142190FBF1F201FBE4
:10123000120041F2C4716050081D2058401C091D65
:1012400060500120DBE770B504460D4641F2C870DE
:10125000205808B9002070BD4FF4BE50005900EB73
:10126000400202EB001004EB00114FF49872284684
:10127000FEF7C5FF0120EEE7014600224FF4BE5005
:101280004250002041F2C4728850121D8850012043
:101290007047014641F2C870085808B901207047EC
:1012A0000020FCE70FB42DE9F04F8FB0DDF87CB0E3
:1012B0004FF40071F848FEF7BBFF002006460546D4
:1012C0000C902E466D1CF548805D0E90BDF86010A8
:1012D0000E98814208D00E98FF2805D000200FB04C
:1012E000BDE8F00F5DF814FB3246761CEA480E9913
:1012F000815429466D1CE948405C0D903246761CAD
:10130000E5490D9888540D98052875D008DC01280A
:101310000DD0022871D0032870D004286FD1A8E125
:1013200006286DD00F286CD01028F7D164E3294629
:101330006D1CDA48405C8DF8050029466D1CD748C5
:10134000405C8DF80400BDF80440B4F5807F02DDF8
:1013500002200C90C6E329466D1CD048405C8DF8F5
:10136000050029466D1CCD48405C8DF80400BDF891
:101370000480B8F5FA6F02DD03200C90B2E34FEA67
:10138000E80003900398A8EBC0000290029830B9DF
:101390000398C2B23146761CBF48425406E0039817
:1013A000401CC2B23146761CBB48425404EB0800D4
:1013B00087B2B7F5807F02DD02200C9092E32046D1
:1013C000E11704EB11714FEA2119CDF82890E117CC
:1013D00004EB11710911A4EB011189B2099138468E
:1013E000F91707EB5171C910A7EBC10189B2089138
:1013F000DDF82890A24631E08FE146E0E7E06EE3B9
:10140000FAE136E20BF10C0030F81900ADF80000FB
:101410000BF10C0009F1010130F81100ADF80200E8
:1014200009990098C84000909DF800203046711C32
:101430008EB299490A540AF1080ABA4500D30FE05E
:101440009DF801203046711C8EB293490A540AF16E
:10145000080ABA4500D303E009F10109BA45D1D31E
:1014600000BF701E8C49085C0899C1F108018840D2
:10147000C0B20B900899C1F108010B9808410B907C
:10148000711E854A0B9850542CE329466D1C8348E5
:10149000405C8DF8050029466D1C8048405C8DF845
:1014A0000400BDF80440602C02DD02200C9019E31A
:1014B00029466D1C7948405C8DF8050029466D1C55
:1014C0007648405C8DF80400BDF80480B8F5FA6FEA
:1014D00002DD03200C9005E34FEAE8000390039837
:1014E000A8EBC0000290029830B90398C2B231460E
:1014F000761C6948425406E00398401CC2B231464B
:10150000761C6548425404EB080087B2602F02DD68
:1015100002200C90E6E22046E11704EB11714FEA3D
:101520002119CDF82890E11704EB11710911A4EBF2
:10153000011189B209913846F91707EB5171C910A9
:10154000A7EBC10189B20891DDF82890A24627E0F7
:101550003BF81900ADF8000009F101003BF810005C
:10156000ADF8020009990098C84000909DF800204D
:101570003046711C8EB248490A540AF1080ABA452D
:1015800000D30FE09DF801203046711C8EB2424915
:101590000A540AF1080ABA4500D303E009F1010927
:1015A000BA45D5D300BF701E3B49085C0899C1F10C
:1015B00008018840C0B20B900899C1F108010B984E
:1015C00008410B90711E344A0B9850548AE2294608
:1015D0006D1C3248405C8DF8050029466D1C2F4873
:1015E000405C8DF80400BDF80440B4F57A7F02DD5C
:1015F00002200C9076E229466D1C2848405C8DF84C
:10160000050029466D1C2548405C8DF80400BDF896
:101610000480B8F5007F02DD03200C9062E24FEAFF
:101620004860020E3146761C1B48425404EB080009
:1016300087B2B7F57A7F02DD02200C9052E2A14614
:1016400014E00BF1380030F8190001909DF80520E6
:101650003046711C8EB210490A549DF80420304661
:10166000711C8EB20C490A5409F10109B945E8D33D
:1016700038E229466D1C0948405C8DF80500294672
:101680006D1C0648405C8DF80400BDF80440062C33
:1016900006DD02200C9025E2482E0020482C002078
:1016A00029466D1CF848405C8DF8050029466D1CE4
:1016B000F548405C8DF80400BDF80480B8F5007F63
:1016C00002DD03200C900DE24FEA4860020E314625
:1016D000761CEE48425404EB080087B2062F02DD68
:1016E00002200C90FEE1A14614E00BF12C0030F832
:1016F000190001909DF805203146701C86B2E34820
:1017000042549DF804203046711C8EB2DF490A54C1
:1017100009F10109B945E8D3E4E129466D1CDA482D
:10172000405C8DF8050029466D1CD748405C8DF85B
:101730000400BDF80440B4F5807F02DD02200C9067
:10174000D0E19DF805203146761CD04842549DF8E2
:1017500004203146761C42542046E11704EB1171F7
:1017600009110A91E11704EB11710911A4EB0111A0
:1017700089B2099129466D1CC348405C8DF805006B
:1017800029466D1CC048405C8DF80400BDF804007B
:1017900070B90BF10C000A9930F811000122099977
:1017A0008A4090430BF10C010A9A21F8120017E0CD
:1017B000BDF80400B0F57F4F0FD10BF10C000A9972
:1017C00030F81100012209998A40104382B20BF1CE
:1017D0000C010A9821F8102002E003200C9081E10E
:1017E0009DF805203146761CA84842549DF80420F7
:1017F0003146761C425475E129466D1CA248405C76
:101800008DF8050029466D1C9F48405C8DF804004A
:10181000BDF80440B4F57A7F02DD02200C9061E14E
:101820009DF805203146761C984842549DF80420C6
:101830003146761C425429466D1C9348405C8DF815
:10184000050029466D1C9048405C8DF80400BDF8E9
:1018500004100BF1380020F814109DF805203146D3
:10186000761C8A4842549DF804203146761C425426
:1018700038E129466D1C8448405C8DF805002946F6
:101880006D1C8148405C8DF80400BDF80440B4F53F
:10189000807F02DD02200C9024E19DF80520314676
:1018A000761C7A4842549DF804203146761C4254F6
:1018B00029466D1C7448405C8DF8050029466D1C56
:1018C0007148405C8DF80400BDF80480B8F5FA6FEB
:1018D00002DD03200C9005E19DF805203146761CC1
:1018E0006A4842549DF804203146761C425404EB69
:1018F000080087B2B7F5807F02DD02200C90F1E08E
:101900002046E11704EB117109110A91E11704EB6C
:1019100011710911A4EB011189B209913846F91727
:1019200007EB5171C910A7EBC10189B20891294693
:101930006D1C5548405C07904FEAE87108EB517107
:10194000C910B8EBC10106D10798B0EBE80F0BD076
:1019500003200C90C6E0012000EBE80107988142CB
:1019600002D003200C90BDE0DDF828900998059086
:1019700008200490A2463CE00498082807D30020E1
:1019800004902846691C8DB23F49085C0190BDF85F
:1019900004000499084103900598102803D309F125
:1019A000010900200590039810F0010F0DD00BF1F4
:1019B0000C0030F81900012205998A40104381B2C9
:1019C0000BF10C0020F819100BE00BF10C0030F8B3
:1019D0001900012205998A4090430BF10C0121F86E
:1019E00019000598401C05900498401C04900AF1C9
:1019F000010ABA45C0D375E029466D1C2248405CF7
:101A00008DF8050029466D1C1F48405C8DF80400C8
:101A1000BDF80440B4F57A7F02DD02200C9061E04D
:101A20009DF805203146761C184842549DF8042044
:101A30003146761C425429466D1C1348405C8DF893
:101A4000050029466D1C1048405C8DF80400BDF867
:101A50000480B8F5007F02DD03200C9042E09DF881
:101A600005203146761C094842549DF80420314631
:101A7000761C425404EB080087B2B7F57A7F07DD85
:101A800002200C902EE00000482C0020482E002060
:101A900029466D1C3848405C07900798B0EB480F0A
:101AA00002D003200C901DE0A14615E02846691CD9
:101AB0008DB23149085C8DF805002846691C8DB24D
:101AC0002D49085C8DF80400BDF804100BF13800B6
:101AD00020F8191009F10109B945E7D302E0012006
:101AE0000C9000BF00BF2946234806F0DFFE069099
:101AF0002846691C8DB22049085C8DF805002846EF
:101B0000691C8DB21C49085C8DF8040029461A48EE
:101B1000FEF78EFBBDF804100698814202D000202B
:101B2000FFF7DDBB0C9850B1144840788030134962
:101B300048703146721C96B2104A0C985054314687
:101B40000E4806F0B3FE01909DF805203046711C4A
:101B50008EB20A490A549DF804203046711C8EB298
:101B600006490A543146054803F01EFE0C9808B198
:101B70000020D5E70D98D3E7482C0020482E002000
:101B80007047000070B58CB005460E46002400205A
:101B9000ADF81400FFF7F4FF324629460F48FEF770
:101BA0002EFB0F48039009A807C88DE8070005A879
:101BB0000FC8FFF777FB0446032C0BD0022C09D08B
:101BC000052C07D00F2C05D0062C01D0102C01D1EC
:101BD00000F008F820460CB070BD0000482C002032
:101BE00048300020704770B504460D464FF4B06091
:101BF000005908B9002070BD4FF4AF600059C0EB28
:101C0000C00004EB80011C222846FEF7F8FA0120F0
:101C1000F1E7000009A100200BE00A5C124B1A80DA
:101C200000BF114A121F128812F0400FF9D0421C57
:101C3000D0B22A28F1D300BFFEE700000D0A456E9E
:101C400074657220486172644661756C745F4861A6
:101C50006E646C65722C2053797374656D204861D5
:101C60006C742E0D0A000000043801404CF6CC4084
:101C700001490860704700000030004010B500F0D6
:101C800001F810BD4AF6AA2001490860704700001B
:101C900000300040014948607047000000300040BB
:101CA0000149886070470000003000400149086029
:101CB000704700000030004000B585B001210520CC
:101CC00002F0BCFB0121880302F0B8FB4FF4007066
:101CD000ADF8100018208DF8130003208DF81200C5
:101CE00004A93A48FFF781F94FF48060ADF810007D
:101CF00004208DF8130004A93448FFF776F94FF457
:101D0000165000900020ADF80400ADF80600ADF8C4
:101D10000800ADF80C000C20ADF80A0069462C480C
:101D200005F07EFB012240F22551294805F053FBC6
:101D30000121274805F019FB4021254805F00CFB3F
:101D40000121052002F07AFB0121480402F066FB24
:101D50000420ADF8100018208DF8130003208DF832
:101D6000120004A91948FFF740F90820ADF8100047
:101D700004208DF8130004A91448FFF736F904A9CC
:101D80001248FFF732F94FF4E13000900020ADF82F
:101D90000400ADF80600ADF80800ADF80C000C200A
:101DA000ADF80A0069460B4805F03AFB012240F203
:101DB0002551084805F00FFB0121064805F0D5FA2A
:101DC0004021044805F0C8FA05B000BD00080140F4
:101DD0000038014000440040014600224FF4AF604B
:101DE0004250001D4250001D42500120704700002B
:101DF00008B501210C2002F021FB10208DF8030012
:101E000003208DF802004020ADF80000694612481A
:101E1000FFF7EBF84FF48070ADF8000069460F480B
:101E2000FFF7E3F804208DF8030003208DF802008B
:101E30002020ADF8000069460748FFF7D6F8842156
:101E40000748FEF7F5F90748FFF716FA4FF48070D8
:101E500002491431086008BD000C0140000801402F
:101E6000F05800202072002010B5002006F0FCFD84
:101E7000002000F013F80120024981F8200004F04E
:101E80004FFB10BD082C002001464FF4B0604058B5
:101E900008B9012070470020FCE7000010B5044697
:101EA00030221049104806F0F1FB0E480068062861
:101EB00000D15CB106200B49086001200B49088065
:101EC00048803C20888003F05FFF09E00548808857
:101ED000064908800348C0884880024800898880F5
:101EE00010BD0000E84D002000000108082C002073
:101EF00000BFFEE730B505460C46224600212846C5
:101F000000F001F830BD2DE9F04105460B4694463E
:101F10000027002402E03F021F43641C042CFAD374
:101F2000604605F00306294646B1344603E001F851
:101F3000013B401E641C08B1042CF8D30A4601E0A2
:101F400080C2001F0428FBD2114602E001F8013BC9
:101F5000401E0028FAD1BDE8F0810FB438B502E088
:101F60000120FEF7A7FD022006F0F3FC0028F7D1C0
:101F70004FF4807106F034FE05464FF48071284618
:101F8000FEF756F9022006F0ADFC0498FEF779F949
:101F9000B0F5807F06D92946002006F0FBFD38BC4D
:101FA0005DF814FB05A800902846009A049905F0F6
:101FB00029FD002000902846FEF763F984B22246EE
:101FC0002946022006F0D0FC2946002006F0E2FD5A
:101FD00000BFE4E77047000070B5002100230F2226
:101FE000C4780CB3164C246804F4E064C4F5E064CF
:101FF000210AC1F10403CA40447804FA03F1847849
:102000001440214309010F4C0678A155047804F0CF
:102010001F050124AC4005786D114FF0E02606EB5A
:102020008505C5F8004109E0047804F01F05012486
:10203000AC40054D0678761145F8264070BD00008D
:102040000CED00E000E400E080E100E00249014323
:10205000024A1160704700000000FA050CED00E034
:102060007047000010B50348006810B101480068CF
:10207000804710BD8400002070B5044600F094F83D
:1020800000203149087031490870314908703149E0
:102090000860314908603149087031490870314899
:1020A000056845B13048066803E0761E00202860C8
:1020B0002D1D002EF9D100202C4908602C49086004
:1020C0002C4908602C4908602C4908602C4908609C
:1020D0002C4908602C49087001F0E8FA01F016FB61
:1020E000204601F0FFF8208800B170BD002027498C
:1020F0000860274908802749086027490880274940
:10210000086027490880204601F038FC208800B18B
:10211000EBE7204601F0AEF8208800B1E5E7204665
:1021200001F080FF208800B1DFE7204601F0DEFFEC
:10213000208800B1D9E700F0BDFFFFF791FF012033
:102140001849087000BFD0E798000020A0000020C8
:10215000B2000020080100200C010020AA0000208D
:10216000AB000020A0900008A49000087800002098
:102170007C000020800000208400002088000020D7
:102180008C00002090000020CE000020A400002041
:10219000A8000020AC000020B0000020B400002007
:1021A000B8000020A10000200A4A1168002002E0C7
:1021B000002204C1401C084A12689042F8D3054A24
:1021C0001268054B1B6802EB8302121F034B1A6057
:1021D00070470000A0900008A490000810010020A3
:1021E00008480078012800D0704707480078FA288E
:1021F00000D3F9E704480078401C0349087000BF89
:10220000F2E70000A00000209800002010B5002494
:102210002D480078012800D010BD00BFFDF7A8FFB1
:10222000044600BF2948007828B900BF2046FDF7C2
:10223000A3FF00BFF0E725480078401E234908703F
:102240000846007828B100BF2046FDF795FF00BF83
:10225000E2E71F48007828B100BF2046FDF78CFF59
:1022600000BFD9E701F016FA1A490870084600784D
:1022700000EB4000184951F8200018490860084652
:10228000006817490968884205D100BF2046FDF75C
:1022900073FF00BFC0E711480068D0F88400401CFD
:1022A0000E490968C1F884000E480068401C0D49B9
:1022B00008604FF080500C49086000BF2046FDF7D1
:1022C0005BFF00BF00BFA7E7A00000209800002030
:1022D000B2000020AB000020486400200C01002068
:1022E00008010020C400002004ED00E02DE9F041C9
:1022F00004460E46154600271948007820B142F6DC
:10230000E1602880BDE8F08100BF00BFFDF730FF2D
:10231000074600BFFEF7A6FC00BF124820606660BB
:1023200000202062606284F82800E06204F1080066
:1023300001F0E4F8204601F00BF80B480088401C3F
:102340000949088000BFFEF7A7FC00BF3846FDF72B
:1023500013FF00BF00BF0020288000BFD2E70000AD
:10236000980000204D555458A80000202DE9F04752
:1023700088B00546884691461C46109E4FF0000ADC
:102380007748007828B146F2AE10308008B0BDE83A
:10239000F08774492868884203D045F6C4503080DD
:1023A000F4E700BF00BFFDF7E3FE824600BFFEF783
:1023B00059FC00BF95F82800C8B96B4800686862EE
:1023C000012085F828000CB1E86A2060294666489B
:1023D000006800F0D5FF00BFFEF75EFC00BF50466E
:1023E000FDF7CAFE00BF00BF00203080CEE75E4987
:1023F000686A0968884225D195F82800FF280CD121
:1024000000BFFEF749FC00BF5046FDF7B5FE00BF18
:1024100000BF45F284703080B8E795F82800401C72
:1024200085F828000CB1E86A206000BFFEF734FC94
:1024300000BF5046FDF7A0FE00BF00BF45F282700E
:102440003080A3E719F4004F0FD000BFFEF724FC43
:1024500000BF5046FDF790FE00BF00BF0CB100204A
:10246000206046F2B010308090E74048007878B1A4
:1024700000BFFEF711FC00BF5046FDF77DFE00BF18
:1024800000BF0CB10020206046F6635030807DE72D
:102490006F6A97F837003449096891F83710884215
:1024A00006DD3148006890F83710384601F0D8F959
:1024B000434604222946684600F08AFF00BFFEF723
:1024C000EBFB00BF5046FDF757FE00BF00BF00F01A
:1024D00017F900BF00BFFDF74BFE824600BFFEF7B5
:1024E000C1FB00BF2048006890F8350030B10128DA
:1024F0000CD002281AD0032821D110E01CB11A48B0
:102500000068806C2060002030801CE01CB1164800
:102510000068806C206046F2A910308013E00CB196
:102520000020206047F2D92030800CE01CB10E481A
:102530000068806C206045F6C250308003E046F6AB
:102540002E60308000BF00BF00BFFEF7A5FB00BFBC
:102550005046FDF711FE00BF00BF00BF16E70000A8
:10256000980000204D55545808010020B20000206A
:102570002DE9F84F04468A4615464FF0000B5C489B
:10258000007820B146F20E202880BDE8F88F594926
:102590002068884203D045F6C4502880F5E700BF84
:1025A00000BFFDF7E5FD834600BFFEF75BFB00BF04
:1025B0005149606A096888420CD000BFFEF76CFB85
:1025C00000BF5846FDF7D8FD00BF00BF45F281703F
:1025D0002880DAE7FEF7D4FB804604F12804C4F82B
:1025E00004802078A0F10100207014F8280960B15F
:1025F00000BFFEF751FB00BF5846FDF7BDFD00BF11
:1026000000BF45F283702880BFE721463A48006842
:1026100000F0D0FE04F10809D9F8000078B90020D4
:10262000606284F8280000BFFEF736FB00BF584602
:10263000FDF7A2FD00BF00BF00202880A5E72E48BF
:10264000006890F837002C49096891F838108842E2
:1026500028D02948006800F097FE06462648006802
:1026600090F83810B14204DA2348006890F8380036
:1026700000E0304606462048006890F83700B04237
:1026800010DA1D48006801F0A7F81B48006880F8C0
:102690003760304601F016F81748006801F07EF800
:1026A00016480670D9F8000087686762012084F830
:1026B00028002146384600F063FE00231A463946BA
:1026C0002046CDF8008000F08BFF00BFFEF7E4FA53
:1026D00000BF5846FDF750FD00BF00BF1AF4004F81
:1026E00001D100F00DF80020288000BF4DE7000068
:1026F000980000204D55545808010020AA000020E1
:1027000010B500242048007800B110BD1F480078A3
:1027100000B1FAE700BFFDF72BFD044600BF00F053
:10272000B9FF1B4908700846007800EB40001949C2
:1027300051F82000184908600846006817490968E0
:10274000884205D100BF2046FDF716FD00BFDCE73B
:1027500011480068D0F88400401C0F490968C1F88E
:1027600084000F480068401C0D4908604FF08050FD
:102770000C49086000BF2046FDF7FEFC00BFBFF318
:102780006F8F00BFC1E7000098000020B20000205A
:10279000AB000020486400200C010020080100204C
:1027A000C400002004ED00E070B50446002519487F
:1027B000007818B146F66250208070BD1648007847
:1027C000012803D045F689602080F6E71348007899
:1027D000FA2803D345F209202080EEE700BF00BFAE
:1027E000FDF7C6FC054600BFFEF73CFA00BF0B48EC
:1027F0000078401C0949087000BFFEF74DFA00BF81
:102800002846FDF7B9FC00BF00BF0020208000BFB4
:10281000D3E7000098000020A0000020B2000020B4
:1028200070B5044600252148007818B146F6655079
:10283000208070BD1E480078012803D045F68960CD
:102840002080F6E71B48007818B946F664502080CF
:10285000EFE700BF00BFFDF78BFC054600BFFEF7AA
:1028600001FA00BF13480078401E1249087008465C
:10287000007860B100BFFEF70FFA00BF2846FDF7F1
:102880007BFC00BF00BF46F663502080D1E700BF4D
:10289000FEF702FA00BF2846FDF76EFC00BF00BF3E
:1028A000FFF72EFF0020208000BFC2E79800002025
:1028B000A0000020B200002070B504461C4800783B
:1028C000012803D045F68B60208070BD00256D1C6B
:1028D0006D1C6D1C17480088A84203DC45F68C600F
:1028E0002080F2E714480078E8B900F0D3FE1349DD
:1028F000087008460078124908701048007800EB0C
:102900004000104951F820000F490860084600684F
:102910000E490860012008490870FDF727FF43F6BB
:102920009920208002E045F68A60208000BFCCE735
:10293000A1000020CC000020A0000020AB0000205F
:10294000AA000020486400200C010020080100209B
:102950002DE9FF4F85B004469246DDE912B5DDE969
:102960001968002002905248007830B147F24A10AE
:10297000A8F8000009B0BDE8F08FBBF11F0F07D128
:102980004C48844204D046F27320A8F80000F1E7D6
:10299000204601F003F80020A8F8000016F0010F0F
:1029A00002D116F0020F10D016F0020F0DD02F46F4
:1029B0000020049005E0002038603F1D0498401C72
:1029C0000490159904988842F5D3149805EB80007B
:1029D00003901598CDE900062A465046039B0899B6
:1029E00000F088F90746AF4204D246F62C60A8F8FA
:1029F0000000BFE7C4F828A00898E0620698A0602D
:102A000084F837B084F838B027600398E0601898ED
:102A10006060656215982064A4F844604FF0000976
:102A200008E0002104F1780040F8291009F10100C4
:102A300000F0FF09B9F1000FF3D004F1600016991E
:102A400000F07EFC204600F03BF800BF00BFFDF721
:102A50008FFB029000BFFEF705F900BF94F8370026
:102A600000F030FE204600F099FE204600F06EFF98
:102A700011480088401C104908801048007801283F
:102A800009D000BFFEF708F900BF0298FDF774FBFC
:102A900000BF00BF6EE700BFFEF7FEF800BF029860
:102AA000FDF76AFB00BF00BFFFF72AFE00BF61E72A
:102AB0009800002084630020CC000020A0000020AB
:102AC00010B504460348006818B12046014909685A
:102AD000884710BD7800002010B504460348006800
:102AE00018B1204601490968884710BD80000020C0
:102AF0002DE9F0470746884614461D464FF0000969
:102B00007048007828B146F2AE1028800020BDE859
:102B1000F08700BF00BFFDF72BFB814600BFFEF72B
:102B2000A1F800BF68480068C06CB8B36648006888
:102B3000C06C401E64490968C86463480068C66C7C
:102B40001CB161480068806C2060FEF719F95E498D
:102B50000968896C401A5C490968C1F898005A48AC
:102B60000068D0F89C0058490968D1F8981088424C
:102B700007D255480068D0F8980053490968C1F851
:102B80009C0000BFFEF788F800BF4846FDF7F4FA46
:102B900000BF00BF002028803046B8E7FFE718F4E8
:102BA000004F10D000BFFEF777F800BF4846FDF792
:102BB000E3FA00BF00BF0CB10020206046F2B01065
:102BC00028800020A3E74148007880B10CB10020A4
:102BD000206000BFFEF760F800BF4846FDF7CCFA62
:102BE00000BF00BF46F66350288000208FE73B46B9
:102BF00007220021084600F0EBFB00BFFEF74CF86F
:102C000000BF4846FDF7B8FA00BF00BFFFF778FDE8
:102C100000BF00BFFDF7ACFA814600BFFEF722F807
:102C200000BF2948006890F8350020B1012826D05F
:102C3000032834D12CE0FCB123480068806C20606C
:102C4000FEF79EF820490968896C401A1E490968F8
:102C5000C1F898001C480068D0F89C001A4909681F
:102C6000D1F89810884207D217480068D0F8980029
:102C700015490968C1F89C000020288013E01CB1A8
:102C800011480068806C206046F2A91028800AE094
:102C90000CB10020206047F2D920288003E046F6DE
:102CA0002E60288000BF00BF07480068C66C00BFC8
:102CB000FDF7F2FF00BF4846FDF75EFA00BF00BF18
:102CC000304624E79800002008010020B2000020D0
:102CD0002DE9F04105460E461446FEF751F88046B0
:102CE000234642463146284600F0C2FE0746384693
:102CF000BDE8F081F0B50446DDE9055602EB85003C
:102D000020F007004FF0807C071F3846C7F800C04E
:102D1000071F38463C60DFF89CC0071F3846C7F8DD
:102D200000C04FF0123C071F3846C7F800C04FF0F4
:102D3000033C071F3846C7F800C04FF0023C071F8E
:102D40003846C7F800C0071F38463B60071F3846A3
:102D500039604FF0113C071F3846C7F800C04FF0EC
:102D6000103C071F3846C7F800C04FF0093C071F4A
:102D70003846C7F800C04FF0083C071F3846C7F870
:102D800000C04FF0073C071F3846C7F800C04FF09F
:102D9000063C071F3846C7F800C04FF0053C071F28
:102DA0003846C7F800C04FF0043C071F3846C7F844
:102DB00000C0F0BD4D3A000870B51B48006810B166
:102DC000194800688047FDF7DBFF04461748006894
:102DD00017490968884215D014480068D0F88C005B
:102DE000201A12490968C1F8880010480068D0F814
:102DF00090000E490968D1F8881008440B49096809
:102E0000C1F890000A480068C0F88C40FDF714FF34
:102E1000054606480068D0F8A800A84203D2034837
:102E20000068C0F8A85070BD8C0000200801002088
:102E30000C0100202DE9F04105460E4614460027FE
:102E40002848007820B147F275202080BDE8F08145
:102E50002548007818B146F663502080F6E736B171
:102E6000022E05D0042E0AD0082E09D101E000BFA1
:102E700000BF1DB947F27E202080E7E704E003E0B1
:102E800045F625602080E1E700BF00BF00BFFDF7E9
:102E90006FF9074600BFFDF7E5FE00BF2346324647
:102EA00029461248006800F01FFF208848B100BF83
:102EB000FDF7F2FE00BF3846FDF75EF900BF00BF28
:102EC000C4E70A48006800F087FC00BFFDF7E4FE95
:102ED00000BF3846FDF750F900BF00BFFFF710FCF8
:102EE00000BFB3E798000020B200002008010020D6
:102EF0002DE9F84F06460F46904699460B9C002058
:102F000000904048007820B147F275202080BDE84D
:102F1000F88F3D48007818B146F663502080F6E7F8
:102F20000A9800F00E0ABAF1000F09D0BAF1020FA8
:102F300007D0BAF1040F12D0BAF1080F10D101E096
:102F400000BF00BFB9F1000F08D1B8F1000F05D1E3
:102F500027B91EB947F27E202080D8E704E003E0BD
:102F600045F625602080D2E700BF284805684FF469
:102F7000FA70B0FBF5F0484468434FF47A71B0FB47
:102F8000F1F14FF461607043C7EB071200EB820070
:102F9000404400FB051BBBF1000F2DD000BF00BF5C
:102FA000FDF7E6F8009000BFFDF75CFE00BF23468A
:102FB000524659461648006800F096FE208848B1EF
:102FC00000BFFDF769FE00BF0098FDF7D5F800BF10
:102FD00000BF9CE70E48006800F0FEFB00BFFDF755
:102FE0005BFE00BF0098FDF7C7F800BF00BFFFF70A
:102FF00087FB0020208002E047F27E20208000BF77
:1030000085E7000098000020B2000020D49000085E
:103010000801002008B50F480078012800D008BD3D
:1030200000F022F86A4600210B48FFF751FE0B48DA
:103030000068401E094908600846006840B9084811
:10304000006808606A4600210648FFF741FE00BF9D
:1030500000BFE4E7A0000020C865002004010020B4
:1030600000010020B066002010B50348006810B1D0
:1030700001480068804710BD9000002010B5002472
:1030800000BF00BFFDF774F8044600BFFDF7EAFD7E
:1030900000BFFFF7A5F800BFFDF7FEFD00BF20460B
:1030A000FDF76AF800BF00BFFFF7B4FFFFF7AEF807
:1030B00010BD0000214A2249224A234A2349244ABA
:1030C0002448254A254A2648264A274A2748284888
:1030D00028482948294A2A4A2A4A2B482B4A2C4A56
:1030E0002C482D482D482E482E482F482F48304A2E
:1030F000304A314A314A324832483348334A344AF6
:10310000344A35483548364836493748374A384AC8
:10311000384A394A394A3A4A3A4A3B483B4A3C4A91
:103120003C483D483D4A3E4A3E483F4A3F4A404867
:10313000404800BF00BF00BF704700000891000872
:1031400070920008099100080A9100080C9100088B
:103150001091000814910008119100084691000890
:1031600048910008689100086C9100086E91000871
:10317000709100087291000874910008A4910008F1
:10318000A5910008A6910008A8910008AA9100083E
:10319000AB910008AC910008AE910008B091000816
:1031A000B2910008B4910008B6910008B8910008E7
:1031B000E8910008E9910008EA910008EB91000805
:1031C000EC910008EE910008F091000818920008B8
:1031D000199200081A9200081B9200081C9200081D
:1031E0001E920008209200082492000825920008F0
:1031F00026920008279200082892000829920008C9
:103200002A9200082B9200082C9200082E920008A7
:103210002F92000830920008329200083492000881
:1032200035920008389200086892000869920008F8
:103230006A9200086C920008002418E000BF00BFEA
:10324000FCF796FF044600BFFDF70CFD00BF0848E1
:103250000068401C0649086000BFFDF71DFD00BF67
:103260002046FCF789FF00BF00BFFEF7FBFEE5E745
:103270009400002010B58AB0044600200E49086072
:103280000B2000210591CDE90704069108460B4962
:1032900009680B4A12680B4B1B68CDE90132CDE976
:1032A00003101F200023084A08A100900C48FFF7D4
:1032B0004FFB0AB010BD0000940000207C90000875
:1032C00078900008749000083932000875432F4F39
:1032D000532D4949492049646C65205461736B0042
:1032E0008463002070B50246124D286829681031A9
:1032F000114D2D886D1EACB2002308E00160002541
:1033000045600581C560103010315D1CABB2A34231
:10331000F4DB0025056045600581C560054D2D681D
:10332000064E3560044D2D88B5800025F580358129
:10333000158070BDB4900008AC9000083C6400207B
:103340000181002242818281026042607047000058
:1033500009A1C161002141610849096811B9002131
:10336000816105E00549096881610449096848618E
:10337000024908607047000020000000A4000020FF
:10338000C26B0A62C163704730B504461F2004F166
:103390003C010BE00D68AB682BB19D6895F83720B8
:1033A000824200DA10460D6805F120010D68002DFB
:1033B000F0D130BD024602F13C0002E0036803F1A7
:1033C000200003688B42F9D103681B6A03607047D1
:1033D0002DE9F04105460C4616461F461348006885
:1033E00080F8346000201149096881F835003946B9
:1033F0000E48006800F01EFA6CB104F10808EC6099
:10340000012229460948006800F012F82946404682
:1034100000F079F803E000200449096808630348D4
:103420000168204600F00EF8BDE8F0810801002098
:10343000016300234B600B600B614B610B83CB611D
:103440008860704730B548B14568C1F8B45000F1A4
:103450000804226893689D68C56113E091F83450B0
:10346000022D02D0072D08D103E007A5C1F8B45002
:1034700007E007A5C1F8B45003E008A5C1F8B450AF
:1034800000BF00BF30BD00005461736B20510000CD
:103490005461736B2053656D000000002000000034
:1034A00030B507A5C1F8B45000F1080422681AB17C
:1034B00093689D68C56101E001A5C56130BD00004C
:1034C000200000002DE9F0410646346B012711E091
:1034D000D4F80C8008F108052868406838B1214606
:1034E000284600F05CF82146284600F00CF820340D
:1034F000781E87B2002FEBD1BDE8F081002101607A
:10350000416001817047F0B58E6896F837500768C2
:103510003FB90127078100274F600F6001604160BC
:1035200023E007897F1C0781026806E0946894F80D
:103530003770AF4200DD02E05268002AF6D100BFCA
:1035400032B900274F6043680B60596041600CE05E
:1035500017682FB9116000270F604A60016004E00E
:1035600013680B604A6059601160F0BD2DE9F041AD
:103570000446206B88B1256B01260AE0D5F80C8043
:1035800008F108072946384600F009F82035701E72
:1035900086B2002EF2D100202063BDE8F08110B584
:1035A000046864681CB900240460446011E00C687D
:1035B00024B94B6800241C6003600AE04C6824B9FD
:1035C0000A6800245460426003E00A684B68536054
:1035D0001A600489641E048100244C600C6010BDD4
:1035E0002DE9F04105460C4616461F46DDF81880C9
:1035F00094F83600082848D2DFE800F004050809EE
:103600000607282900BF00BF00BF3FE000BFA66536
:10361000A4F85C70C4F8488035B12046FFF7A6FFD7
:1036200021462846FFF73CFF94F83600032802D1D4
:10363000204600F0ADFB204600F07AF8002004F1AF
:103640003404A070607004F834091FE000BFA66560
:10365000A4F85C70C4F8488035B12046FFF786FFB7
:1036600021462846FFF71CFF94F83600072802D1B0
:10367000204600F08DFB042004F13404A0704FF0CC
:103680000000607004F8340900E000BF00BFBDE82E
:10369000F081000070B50024034D2868FCF773FD2D
:1036A0002044C4B2204670BD74000020002004E015
:1036B0000021034A42F82010401C0028F8D070472F
:1036C0007400002030B5002203460121C3F11F041D
:1036D000A140044C54F822400C43024D45F82240CE
:1036E00030BD00007400002030B5002203460121E7
:1036F000C3F11F04A140044C54F822408C43024DF6
:1037000045F8224030BD000074000020002109E08F
:1037100001EB4102054B03EB8200002202810260B3
:103720004260491C2029F3D3704700004864002000
:1037300010B5044694F83700FFF7C4FF94F837003B
:1037400005490978884203D1204600F027F802E0B5
:10375000204600F003F810BDAA00002010B590F834
:10376000373003EB43030C4C04EB83010B683BB98C
:1037700001230B810023036143610860486009E075
:103780000B895B1C0B810B680361002343610A6892
:103790005061086010BD00004864002010B590F82A
:1037A000373003EB43030B4C04EB83010B683BB94D
:1037B00001230B810023036143610860486008E036
:1037C0000B895B1C0B81002303614A684261106115
:1037D000486010BD486400202DE9F041054695F889
:1037E000370000EB4000124901EB80046F692E693D
:1037F00087B946B9002020812060606095F83700C5
:10380000FFF772FF0EE02089401E208100207061CA
:10381000266007E02089401E20813E610EB9676066
:1038200000E07761002068612861BDE8F081000058
:103830004864002070B504460D4645B12A4621462D
:10384000064800F00DFA032084F8360002E002205A
:1038500084F836002046FFF7BFFF70BDE00000206F
:103860002DE9F04104460D4600BF002694F837705C
:1038700094F8360008285ED2DFE800F004191E1F15
:103880001A1B20212046FFF7A7FF84F8375094F831
:103890003700FFF717FF2C480068844203D1204609
:1038A000FFF75CFF02E02046FFF778FF45E000BF2E
:1038B00000BF84F8375040E000BF00BF00BF84F86D
:1038C000375094F83400082830D2DFE800F02F0495
:1038D000302F0A05063100BF00BF2046FFF7F2FD7A
:1038E00027E02046FFF7EEFD206BC068466AAF4236
:1038F00005DD96F83700A84217DC002615E096F89B
:103900003700B84211D13046FFF73EFD054696F824
:103910003800A84202DA96F8380000E0284605464A
:1039200096F83700A84200D1002602E000BF00BF91
:1039300000BF00BF01E0BDE8F08100BF3446002CAD
:1039400093D100BFF7E70000080100200021C0F874
:10395000AC100949096819B90021C0F8B01007E096
:1039600005490968C0F8B01003490968C1F8AC00FE
:103970000149086070470000C80000200021044A87
:103980001160044A1180044A1160018070470000F0
:10399000C8000020CC000020C400002070B5044600
:1039A00000202060E060606020616061A061E061F3
:1039B000206223A0A06000206062A062E062A06498
:1039C000A065A4F85C00002104F16000FFF7B8FCDA
:1039D000002020676067002506E0002104F17800E0
:1039E00040F82510681CC5B2002DF6D0002004F167
:1039F0003404A0616066A066E06084F84800206737
:103A0000E0662082E0612062A4F84A00A4F84C003D
:103A100020656065FDF7B4F9A0650020E06560678A
:103A200020706070A0702020E07020710020A060E5
:103A3000A067E06704A0C4F88000A4F1340470BD5E
:103A40003F5461736B0000002000000008B5064879
:103A50000068FFF741F806E06A4600210348006865
:103A6000FFF7E8F900BFF7E708010020D49000084D
:103A70002DE9F8430446884617461D464FF00009D5
:103A800000BF00BFFCF774FB814600BFFDF7EAF8FA
:103A900000BF0CB971480468A7640020288094F81E
:103AA0003600082877D2DFE800F0040558590607E9
:103AB0005A5B00BF00BF00BF0420012804D00228C9
:103AC00015D0042839D126E0E06CFF280ED100BFC4
:103AD000FDF7E2F800BF4846FCF74EFB00BF00BF11
:103AE00046F6C55028800020BDE8F88326E0E06C4B
:103AF000A0F57F41FF390DD100BFFDF7CDF800BF24
:103B00004846FCF739FB00BF00BF46F6C550288089
:103B10000020E9E712E0E06C401C0DD100BFFDF78A
:103B2000BBF800BF4846FCF727FB00BF00BF46F6C6
:103B3000C55028800020D7E700E000BF00BFE06C40
:103B4000401CE064E66C00BFFDF7A6F800BF4846E5
:103B5000FCF712FB00BF00BF7CE000BF00BF00BF4E
:103B600094F83400072817D100231A462146184636
:103B70000097FFF735FDE66C00BFFDF78DF800BF3D
:103B80004846FCF7F9FA00BF00BF18F4004F52D1C5
:103B9000FEF7B6FD4FE04FE00420012804D00228D4
:103BA00014D0042838D125E0E06CFF280DD100BFE7
:103BB000FDF772F800BF4846FCF7DEFA00BF00BF11
:103BC00046F6C550288000208EE726E0E06CA0F580
:103BD0007F41FF390DD100BFFDF75EF800BF4846B9
:103BE000FCF7CAFA00BF00BF46F6C5502880002087
:103BF0007AE712E0E06C401C0DD100BFFDF74CF8F5
:103C000000BF4846FCF7B8FA00BF00BF46F6C550F3
:103C10002880002068E700E000BF00BFE06C401C87
:103C2000E064E66C00BFFDF737F800BF4846FCF7DC
:103C3000A3FA00BF00BF0DE000BFFDF72DF800BFE5
:103C40004846FCF799FA00BF00BF46F62D60288071
:103C5000002600BF00BF304646E7000008010020F4
:103C600070B51546066846B90D6500268E61CE61B1
:103C7000086201600126868033E0046802682B46F2
:103C800024E0166D9E421DD3D6696EB90B650026E1
:103C9000CE618A610862166DF61A1665D1610160FF
:103CA0008688761C86800CE0D4690B65CC618A61BD
:103CB0000862166DF61A1665D161A1618688761CB8
:103CC000868070BD166D9B1B14469269002AD8D160
:103CD0000B65CC6100268E610862A1618688761C26
:103CE000868000BFEDE700002DE9F04304460D4655
:103CF0009146984624480768B9F1040F0CD1EE1B91
:103D000016F5803F00D866BB0020206547F27E2074
:103D1000A8F80000BDE8F083B9F1080F22D1606D6A
:103D2000381AA84203D92E46781960651BE0606DE9
:103D3000381A2E1A16F5803F00D87EB9606D381AF1
:103D4000B0FBF5F005FB0050616D08446065002094
:103D5000206547F27E20A8F80000DBE7606D28446C
:103D6000606500E02E460020A8F80000012084F8DD
:103D7000360005480068381A821921460348FFF7C3
:103D80006FFF00BFC6E70000D0000020D800002071
:103D900030B5026AC3698169ABB929B900241460DE
:103DA0009480046504621EE00024CC610C6D056DF6
:103DB0002C440C6511609488641E948000248461F6
:103DC000046504620FE0996121B1CB610C6D056D52
:103DD0002C440C650024C4619488641E94800024E3
:103DE00084610465046230BD2DE9F0470546FCF7A7
:103DF000C7FF81464FF00008244E3468002C3CD0A9
:103E0000206DA84204D8206D2D1A0020206502E004
:103E1000206D401B20652CE008F101001FFA80F89E
:103E200094F83600012806D1002084F83600204698
:103E3000FFF77EFC06E094F83600052802D1042046
:103E400084F83600A0693060346814B90020B0806E
:103E500012E0B088401EB0800020E061206DA842D2
:103E600004D8206D2D1A0020206502E0206D401B33
:103E70002065206D0028CFD000BFA6F80680FCF793
:103E80007FFFA0EB09073846BDE8F087D800002087
:103E90002DE9F05F0646FCF773FF83464FF0000AFA
:103EA000424F3C68002C77D0206DB04204D8206D82
:103EB000361A0020206502E0206D801B206567E037
:103EC0000AF101001FFA80FA002594F83400042852
:103ED00002D1206BC068456A0020A065A4F85C0090
:103EE000FCF74EFFA0642046FFF740FB94F8360035
:103EF000032806D12046FFF71BFC002084F836007B
:103F000006E094F83600072802D1042084F8360031
:103F1000032084F83500002084F8340005B395F8B8
:103F2000370095F8381088421AD095F8370094F881
:103F30003710884214D12846FFF726FA804695F8B4
:103F40003800404502DA95F8380000E040468046E7
:103F500095F83700404503D041462846FFF780FCDE
:103F6000A06938603C6814B90020B88013E0B888B4
:103F7000401EB8800020E061206DB04205D8206D61
:103F8000361A0020206503E006E0206D801B2065C6
:103F9000206D002894D000BFA7F806A0FCF7F0FE23
:103FA000A0EB0B094846BDE8F09F0000E0000020B0
:103FB00008B54FF000082FE06B460022114610466E
:103FC000FEF796FDBDF8000030BB00BF00BFFCF758
:103FD000CFF8804600BFFCF745FE00BF01270F4821
:103FE0000068401C0D4908603846FFF7FDFE064694
:103FF0003846FFF74DFF0546741909480068A0428E
:1040000001D20748046000BFFCF746FE00BF4046EF
:10401000FCF7B2F800BF00BFCEE70000D0000020E0
:10402000D400002010B58AB0044600202049086062
:1040300020490860204908601E498880C8801E49C0
:104040008880C8801D48006820B947F2122020806F
:104050000AB010BD1A4800681A490968884203D29C
:1040600047F213202080F3E7174800781F2803D376
:1040700047F211202080EBE70B2000210591CDE9CC
:104080000704069108460E490A68104909680B4B57
:104090001B68CDE90131CDE903200B4800780023EE
:1040A0000B4A0CA100901048FEF752FC00BFCFE76E
:1040B000D0000020D8000020E0000020DC900008A4
:1040C000E4900008D0900008D8900008E090000824
:1040D000B13F000875432F4F532D4949492054697A
:1040E000636B205461736B00C865002010B58AB003
:1040F000044600202F4908602F4908602F49088096
:104100002F48006840B12F4800682D490968B0FB6E
:10411000F1F02D49086006E02A4800680A21B0FB4A
:10412000F1F0294908602848006828490860002003
:104130002749086027490860224627A12A48FEF738
:10414000D5F8208808B10AB010BD2848006818B911
:1041500047F247302080F6E725480068254909687E
:10416000884203D247F248302080ECE722480078AA
:104170001F2803D347F246302080E4E70B200021BC
:1041800005910A46CDE907040691194800681B49C4
:104190000968164B1B68CDE90131CDE903021648C9
:1041A00000780023164A17A100901C48FEF7D0FBA8
:1041B00000BFC8E7E8000020F0000020EC0000206D
:1041C000F0900008D49000080001002004010020B5
:1041D000FC000020F80000204F5320546D72204D49
:1041E000757465780000000080660020F490000877
:1041F000FC900008D0900008EC900008F8900008AF
:104200003942000875432F4F532D494949205469BD
:104210006D6572205461736B00000000B066002071
:104220000EB502A801AB0022114600900148FEF72E
:104230009DF80EBD806600201CB53FE001AB6A46CC
:1042400000210846FEF754FCFFF7EAFFFCF798FD53
:1042500006461B480068401C194908601948046854
:104260001FE001A8FEF7A0FAD4F81080A069401E54
:10427000A061A06980B9A08C022802D1206AA06147
:1042800005E0204600F022F8032084F82600A56807
:1042900015B12046E168A847444601A8FEF7C0FAD8
:1042A00000BF002CDDD1FCF76BFD871B06480068C2
:1042B000B84201D20448076000F02AF8BEE70000C7
:1042C000FC000020F0000020F800002010B50E4B8C
:1042D0001B68834206D101690B4B196039B1002379
:1042E0004B6104E0416902690A6102B15161012335
:1042F00080F82630002303614361044B1B885B1E5A
:10430000024C238010BD0000F0000020EC000020D3
:1043100008B56A4600210248FEF72AF908BD0000E8
:104320008066002010B5002442F210710648006833
:1043300004F088FC04462CB104F0FAF80249086045
:1043400001F022FD10BD0000000000200FB42DE997
:10435000F84F054688461746002600BF80210020FA
:1043600004F03EFC824680215046FBF761FF0120AD
:1043700004F0B8FA0D98FBF784FF802808D951465D
:10438000002004F007FC0020BDE8F80F5DF814FBE6
:104390000EA800905046009A0D9903F033FB0020C0
:1043A00000905046FBF76DFF1FFA80F94A465146D0
:1043B000012004F0D9FA0EA13846FBF750FF18B1DE
:1043C0004FF4FA60FCF776FB4146384601F046FCB4
:1043D00004465146002004F0DDFB701CC6B20CB947
:1043E000AE42BBDBFF2C01D1AE42B7DB2046CBE7B0
:1043F000434F4E4E454354204F4B000029B1064ACF
:1044000052690243044B5A6104E0034A52698243F1
:10441000014B5A61704700000010024029B1064A62
:10442000D2690243044BDA6104E0034AD269824351
:10443000014BDA61704700000010024029B1064AC2
:1044400092690243044B9A6104E0034A92698243F1
:10445000014B9A6170470000001002400348406A17
:1044600040F080700149486270470000001002402F
:1044700030B500210022002400232D4D6D6805F089
:104480000C0121B1042905D0082923D105E0294DCB
:10449000056022E0274D05601FE0254D6D6805F49D
:1044A0007012234D6D6805F48034022505EB9242AD
:1044B0001CB9214D554305600BE01D4D6D6815F489
:1044C000003F03D01C4D5543056002E0194D554394
:1044D000056002E0174D056000BF00BF144D6D6818
:1044E00005F0F0010909154D6B5C0568DD4045607C
:1044F0000F4D6D6805F4E061090A104D6B5C45686D
:10450000DD4085600A4D6D6805F46051C90A0B4DA8
:104510006B5C4568DD40C560054D6D6805F4404144
:10452000890B074D6B5CC568B5FBF3F5056130BDC4
:104530000010024000127A0000093D0044000020F3
:104540005400002010B501460022002300204A112B
:10455000012A02D1094C236806E0022A02D1074C45
:10456000236A01E0054C636A01F01F0201249440B4
:104570001C4201D0012000E0002010BD00100240CC
:1045800001490860704700008004424208B50121DB
:104590000820FFF753FF03208DF8020010208DF84C
:1045A00003000220ADF8000069460248FCF71DFD3B
:1045B00008BD0000000C01407047000010B5052048
:1045C000FCF778FA02200149086010BD100C014088
:1045D00010B50520FCF76EFA02200149086010BDF5
:1045E000140C014030B587B01822244901A8FBF70C
:1045F00006FE0024002500BF37E001A850F8241073
:10460000012004F05BF86420FCF754FA1CA31FA2FD
:104610004FF47A710320FFF799FE05466420FCF7FA
:1046200049FA012D1FD101A850F8241018A0FDF758
:1046300094FC1FA315A24FF47A710320FFF786FEA6
:104640001DA312A24FF47A710320FFF77FFE6420AE
:10465000FCF730FA4FF4E131012004F02FF81AA0F2
:10466000FDF77BFC03E0601CC4B2062CC5DB00BF79
:1046700015B91DA0FDF771FC07B030BD5C900008B6
:1046800041542B4950523F0D0A0000004F4B00008F
:1046900043757272656E742073696D3830306320B3
:1046A00062617564206973203A202564210D0A0037
:1046B000415426460D0A000041542B4950523D31C9
:1046C00031353230300D0A005365742073696D380E
:1046D0003030632062617564206973203A20313183
:1046E000353230300000000043757272656E742000
:1046F00073696D383030632062617564206973209E
:104700006572726F72210D0A000000002DE9F04100
:104710000026002400255B4890F87A00401C594987
:1047200081F87A00084690F87A00052804DD002018
:1047300081F87A00BDE8F0810020524981F87900C3
:10474000FFF750FF002000F099FC0446012C01D037
:104750000020EFE74CA34FA24FF47A710320FFF73C
:10476000F5FD0446012C01D00020E3E74AA14548AD
:10477000393003F033F9434848A78ECF8EC04CF24E
:104780004B724BA1093003F029F94A48008A20B93D
:1047900049A13C48213003F021F94FF4FA6203218A
:1047A0003848533000F06EFD0446012C19D1002525
:1047B00014E03449533111F81500FCF744F90007AF
:1047C000070E6900491C2F4A5332505CFCF73BF935
:1047D0000743384816304755681CC5B20A2DE8DB38
:1047E00001E00020A6E741F28831052000F096F8AC
:1047F0000446012C01D000209CE731A325A24FF4F0
:10480000FA610220FFF7A2FD002600BF30A333A209
:1048100041F288310120FFF799FD0446012C03D0B5
:104820004FF47A70FCF746F9701CC6B21E2E01DBFD
:1048300000207FE7012CE9D12BA316A24FF4FA61E7
:104840000220FFF783FD4FF4FA6302220D4976310F
:10485000881E00F0D3FD27A30EA24FF4FA610220B8
:10486000FFF774FD27A30BA24FF4FA610220FFF7B4
:104870006DFD28A307A24FF47A710320FFF766FDB0
:10488000012057E7F058002041542B4346554E3D38
:10489000310D0A004F4B00005443500067756F6C98
:1048A000752E74736C616E70752E636E000000005F
:1048B00025640000082C0020434D4D544D0000009D
:1048C00041542B43475245473D310D0A000000003B
:1048D00041542B43475245473F0D0A002B43475253
:1048E00045473A20312C310041542B435245473D36
:1048F000320D0A0041542B4349504D4F44453D3140
:104900000D0A000041542B4946433D302C300D0A1E
:1049100000000000415426570D0A00002DE9F8431D
:1049200006460D460027B846B94600BF40F2DC50A7
:10493000FCF7C0F84FF48071002004F051F90446F0
:104940004FF480712046FBF773FC4DA000F04AFF46
:10495000002D03DD2946132003F0ECFE7EE001204C
:10496000FCF7A8F8002D08DD132003F0A5FD20B109
:1049700046A0FDF7F2FA002771E0012003F09CFD4C
:1049800000286BD0012003F009FF4FF000080EE073
:104990009DF800204046411C01F0FF082254B8F168
:1049A000FF0F04DD41A0FDF7D8FA002705E06946B6
:1049B000012003F0BFFF0028EAD100BF224643A137
:1049C000204603F00BF8214641A0FDF7C6FA42A1AC
:1049D0002046FBF744FC00283BD041A12046FBF7D2
:1049E0003EFC20B140A0FDF7B8FA012737E044A112
:1049F0002046FBF734FC20B144A0FDF7AEFA0027B7
:104A00002DE049A12046FBF72AFC20B149A0FDF783
:104A1000A4FA002723E04DA12046FBF720FC20B19B
:104A20004CA0FDF79AFA002719E050A12046FBF7A9
:104A300016FC20B150A0FDF790FA00270FE054A11A
:104A40002046FBF70CFC48B153A0FDF786FA00277F
:104A500005E057A0FDF781FA002700E07FE700BFDF
:104A60002146002004F096F809F1010000F0FF094A
:104A700017B9B145FFF65AAF3846BDE8F8830000D4
:104A800041542B4350494E3F00000000436865638A
:104A90006B2053494D20636172642054696D656FCA
:104AA00075742E2E2E210D0A0000000043686563E8
:104AB0006B2053494D207265636965766520657288
:104AC000726F722E2E2E210D0A0000002573000039
:104AD00025730D0A000000002B4350494E3A000098
:104AE000524541445900000053494D2063617264AE
:104AF0002072656164792E2E2E210D0A00000000BF
:104B0000434D45204552524F5200000053494D201D
:104B10006361726420434D45206572726F722E2E60
:104B20002E210D0A0000000053494D2050494E32FD
:104B30000000000053494D20636172642053494DC9
:104B40002050494E322E2E2E210D0A0053494D2061
:104B500050494E0053494D20636172642053494DC2
:104B60002050494E2E2E2E210D0A000053494D2073
:104B700050554B320000000053494D206361726470
:104B80002053494D2050554B322E2E2E210D0A0018
:104B900053494D2050554B0053494D206361726479
:104BA0002053494D2050554B2E2E2E210D0A00002A
:104BB0004E6F2053494D20636172642E2E2E210DBD
:104BC0000A0000002DE9F84306460D460027B846C6
:104BD000B94600BF4FF48071002004F001F804468C
:104BE0004FF480712046FBF723FB4AA000F0FAFD4A
:104BF000002D03DD2946132003F09CFD78E0012001
:104C0000FBF758FF002D05DD132003F055FC08B11C
:104C100000276EE0012003F04FFC002868D001203F
:104C200003F0BCFD4FF000080BE09DF8002040466B
:104C3000411C01F0FF082254B8F1FF0F01DD0027ED
:104C400005E06946012003F075FE0028EDD100BFA4
:104C5000224634A1204602F0C1FE33A12046FBF7D4
:104C6000FEFA08B1002744E032A12046FBF7F7FA2C
:104C700008B101273DE032A12046FBF7F0FA08B168
:104C8000022736E031A12046FBF7E9FA08B10327F5
:104C90002FE031A12046FBF7E2FA08B1042728E013
:104CA00030A12046FBF7DBFA20B931A12046FBF703
:104CB000D6FA08B105271CE030A12046FBF7CFFA51
:104CC00008B1062715E030A12046FBF7C8FA08B165
:104CD00007270EE02EA12046FBF7C1FA08B10827EE
:104CE00007E02DA12046FBF7BAFA08B1092700E03A
:104CF00085E700BF2146002003F04CFF09F10100C9
:104D000000F0FF0917B9B145FFF664AF3846BDE8BA
:104D1000F883000041542B43495053544154555398
:104D20000000000025730000495020494E495449B5
:104D3000414C00004950205354415254000000009F
:104D4000495020434F4E46494700000049502047F4
:104D5000505253414354000049502053544154553C
:104D600053000000434F4E4E454354494E47000008
:104D70004C495354454E494E47000000434F4E4E58
:104D8000454354204F4B0000434C4F53494E47007E
:104D9000434C4F5345440000504450204445414348
:104DA0005400000010B50548FCF7F0F910F0200F92
:104DB00001D0012010BD0020FCE70000000C0140E4
:104DC000F8B50446002600BF94F8790008B100F059
:104DD0002FFD14F8790F401C207014F8790902286F
:104DE00001DDFF20F8BD5BA35EA241F28831012006
:104DF000FFF7ACFAC820FBF75DFE5BA35EA241F2B1
:104E000088310120FFF7A2FA002600BF4FF4FA62B2
:104E1000022104F1720000F0F5FBB4F8720018B939
:104E20004FF47A70FBF746FE701CC6B20A2E00DB08
:104E3000CAE7B4F872000028E8D004F1210050A3BA
:104E400048A24FF4FA6100900320FFF77FFA05466D
:104E500052A344A241F288310320FFF777FA0546B6
:104E6000002600BF51A354A241F288310120FFF770
:104E70006DFA0546012D03D04FF47A70FBF71AFE48
:104E8000701CC6B2142E00DB9EE7012DEAD14DA3A3
:104E900034A240F6B8310220FFF758FA05464FF425
:104EA0008071002003F09CFE074647B948A0FDF73B
:104EB00054F83946002003F06DFE002092E74FF4CD
:104EC00080713846FBF7B4F904F11900234604F168
:104ED000390248A10090384602F080FD002600BF4C
:104EE0003B464CA24FF4FA610220FFF72FFA054629
:104EF000701CC6B20A2E04DB3946002003F04AFEBD
:104F000062E7002DECD0FF2DEAD0012D19D1002051
:104F1000434981F87A0084F8790000F089FC4FF465
:104F2000FA62022104F1720000F06CFB00F09AFCBE
:104F300004F11903224604F139013AA0FDF70DF8F6
:104F400002E047A0FDF709F83946002003F022FEF1
:104F5000284647E741542B434950434C4F53453D66
:104F6000310D0A004F4B000041542B434950534828
:104F700055540D0A0000000053485554204F4B0073
:104F800041542B434744434F4E543D312C2249500A
:104F9000222C222573220D0A0000000041542B43CD
:104FA000474154543D310D0A0000000041542B4349
:104FB000474154543F0D0A002B43474154543A2073
:104FC000310D0A0041542B43494653520D0A00004B
:104FD000436F6E6E656374204E6574776F726B20DD
:104FE0004D616C6C6F63204572726F722E2E2E2194
:104FF0000D0A000041542B43495053544152543D33
:10500000222573222C222573222C222573220D0A9D
:1050100000000000434F4E4E454354204F4B0000CC
:10502000F05800204461746120436F6E6E656374B4
:10503000204E6574776F726B204F4B2E2E2E545975
:1050400050453D222573222C49503D222573222CA8
:10505000504F52543D22257322210D0A00000000BA
:10506000436F6E6E656374204E6574776F726B204C
:105070004572726F722E2E2E210D0A0070B50446F5
:1050800000255CB10CA30EA24FF47A710320FFF748
:105090005DF90546012D0DD0002070BD09A308A2C1
:1050A0004FF47A710320FFF751F90546012D01D025
:1050B0000020F2E70120F0E7415445310D0A0000DD
:1050C0004F4B0000415445300D0A000070B50024DC
:1050D00000254FF480700E4908604FF4FA70FBF71A
:1050E000E9FC0C48FCF752F810F0200F04D10AA09C
:1050F000FCF733FF012070BD0FA0FCF72EFF15A0B9
:10510000FCF72BFF40F6B830FBF7D4FC0120F2E7A8
:1051100014080140000C01404750525320706F7733
:1051200065722063757272656E74204F46462E2E2E
:105130002E210D0A000000004750525320706F7757
:1051400065722063757272656E74204F4E2E2E2E1E
:10515000210D0A004750525320706F77657220630B
:105160006C6F7365204F4B2E2E2E210D0A00000010
:1051700010B500244FF48070234908604FF49670F6
:10518000FBF798FC2148FCF701F810F0200F04D041
:105190001FA0FCF7E2FE012010BD6420FBF78AFC93
:1051A00022A0FCF7DAFE40201849143108604FF4C1
:1051B0007A70FBF77FFC40201449103108604FF4EF
:1051C0007A70FBF777FC10E06420FBF773FC601C3F
:1051D00084B2B4F5967F08DD1CA0FCF7BEFE40202B
:1051E0000A49143108600020D6E70848FBF7CEFFD3
:1051F00010F0200FE8D01CA0FCF7AFFE40200349C0
:10520000143108600120C7E710080140000C01407C
:105210004750525320706F776572206375727265C4
:105220006E74204F4E2E2E2E210D0A0047505253E1
:1052300020706F7765722063757272656E74204F8F
:1052400046462E2E2E210D0A0000000047505253D4
:1052500020706F776572206F70656E204572726F77
:10526000722E2E2E210D0A004750525320706F7758
:105270006572206F70656E204F4B2E2E2E210D0A09
:10528000000000002DE9F84F05460F4616464FF086
:105290000008C246C14600BFC820FBF70BFC4FF414
:1052A0008071002003F09CFC04464FF4807120467E
:1052B000FAF7BEFF3EA000F095FA002E03DD31465E
:1052C000132003F037FA5FE00120FBF7F3FB002E19
:1052D00009DD132003F0F0F828B137A0FCF73DFEFC
:1052E0004FF0000851E0012003F0E6F800284BD011
:1052F000012003F053FA4FF0000A0FE09DF8002060
:105300005046411C01F0FF0A2254BAF1FF0F05DD9F
:1053100030A0FCF722FE4FF0000805E069460120AE
:1053200003F008FB0028E9D100BF22462FA1204648
:1053300002F054FB21462EA0FCF70FFE2EA12046C2
:10534000FAF78DFFD0B112E02078302806DB207804
:10535000392803DC207805F8010B08E02078612863
:1053600005DB20787A2802DC207805F8010B14F898
:10537000011B0029E8D14FF0010806E015A0FCF759
:10538000ECFD4FF0000800E09EE700BF2146002042
:1053900003F000FC09F1010000F0FF09B8F1000F73
:1053A00002D1B945FFF678AF4046BDE8F88F00005E
:1053B00041542B43434944005265616420494343AF
:1053C00049442074696D656F75742E2E2E210D0A67
:1053D0000000000052656164204943434944204570
:1053E00072726F722E2E2E210D0A0000257300009E
:1053F00025730D0A000000004F4B00002DE9F84F07
:1054000005460E4690461F464FF00009CA46CB4659
:1054100000BF4FF48071002003F0E2FB04464FF41C
:1054200080712046FAF704FF63A000F0DBF9002F3B
:1054300003DD3946132003F07DF9A9E00120FBF7D5
:1054400039FB002F09DD132003F036F828B15DA0E9
:10545000FCF783FD4FF000099BE0012003F02CF8DE
:105460000028EAD0012003F099F94FF0000A0FE07C
:105470009DF800205046411C01F0FF0A2254BAF169
:10548000FF0F05DD54A0FCF768FD4FF0000905E0B3
:105490006946012003F04EFA0028E9D100BF2246F8
:1054A00052A1204602F09AFA214651A0FCF755FD80
:1054B00051A12046FAF7D3FE002863D050A1204620
:1054C000FAF7CDFE0446641C14F8010BFBF75EFCF2
:1054D000288028884FF6FF7101EA0010288014F810
:1054E000010BFBF753FC29880843288028884FF6D6
:1054F000FF7101EA0010288014F8010BFBF746FC4D
:1055000029880843288028884FF6FF7101EA001097
:10551000288014F8010BFBF739FC29880843288000
:10552000641C641C641C14F8010BFBF72FFC308016
:1055300030884FF6FF7101EA0010308014F8010B3B
:10554000FBF724FC31880843308030884FF6FF7128
:1055500001EA0010308014F8010BFBF717FC3188CA
:105560000843308030884FF6FF7101EA0010308028
:1055700014F8010BFBF70AFC3188084330804FF028
:10558000010906E014A0FCF7E8FC4FF0000900E078
:1055900054E700BF2146002003F0FCFA0BF10100A4
:1055A00000F0FF0BB9F1000F02D1C345FFF631AF98
:1055B0004846BDE8F88F000041542B435245473F11
:1055C00000000000526561642074696D656F757438
:1055D0002E2E2E210D0A0000526561642045727244
:1055E0006F722E2E2E210D0A000000002573000080
:1055F00025730D0A000000002B43524547000000B0
:10560000220000002DE9F84F0746884616464FF065
:105610000009CA46CB46002500BF4FF48071002028
:1056200003F0DEFA04464FF480712046FAF700FEDC
:105630004AA000F0D7F8002E03DD3146132003F016
:1056400079F878E00120FBF735FA002E09DD132008
:1056500002F032FF28B143A0FCF77FFC4FF00009B5
:105660006AE0012002F028FF002864D0012003F046
:1056700095F84FF0000A0FE09DF800205046411CBD
:1056800001F0FF0A2254BAF1FF0F05DD3BA0FCF741
:1056900064FC4FF0000905E06946012003F04AF977
:1056A0000028E9D100BF22463AA1204602F096F92F
:1056B000214639A0FCF751FC39A12046FAF7CFFD6D
:1056C00090B338A12046FAF7CAFD0446641C641C56
:1056D00000250020009000BF9DF8000000EB800036
:1056E0004006000E0090605D30389DF800100844C0
:1056F000C0B20090681CC5B20F2D02DD4FF000094A
:1057000004E0605D2C28E7D1032DE5DC00BF9DF8A7
:1057100000001F2803DC9DF80000388001E0002015
:1057200038804FF0010907E0FFE714A0FCF715FCF3
:105730004FF0000900E085E700BF2146002003F09C
:1057400029FA0BF1010000F0FF0BB9F1000F02D1B3
:10575000C345FFF662AF4846BDE8F88F41542B437E
:1057600053510000526561642052535349207469BB
:105770006D656F75742E2E2E210D0A0052656164C1
:105780002052535349204572726F722E2E2E210DD6
:105790000A0000002573000025730D0A00000000B8
:1057A0004F4B00003A00000070B5ADF5167D044681
:1057B0000D4600264A9521464BA84A9AFAF71FFD46
:1057C0004FF492724DA96846FAF719FD04484AA9A8
:1057D0000EC9FBF70BFD30460DF5167D70BD0000C0
:1057E0002072002070B50446012003F07BF82046AB
:1057F000FAF747FD85B22A462146012003F0B4F8A6
:10580000022202A1012003F0AFF870BD0D0A0000D2
:1058100070B50446012003F065F82046FAF731FD23
:1058200085B22A462146012003F09EF870BD000093
:1058300010B5002440F2DC50FBF73CF907A0FFF75D
:10584000E7FF40F6B83106A000F008FA04464FF42E
:105850004870FBF72FF9204610BD00002B2B2B00C2
:105860004F4B000010B5002404A306A24FF47A7138
:105870000320FEF76BFD0446204610BD41544F0D3A
:105880000A000000434F4E4E45435400F0B5B3B0FC
:105890000025FCF7ADFA00BF00BFFFF717FCC820DA
:1058A000FBF708F9FFF764FC4FF47A70FBF702F995
:1058B000FEF72CFF0646002EEFD0CA48FFF780FA0D
:1058C0000646012E0DD1C748B0F87200C64988823D
:1058D0000120C44981F878004FF47A7000F06EFA24
:1058E0000AE0FF2E04D10020BE4981F87800D3E7FA
:1058F0000020BC4981F878004FF4FA60B949C867C4
:105900000846C16F122002F015FF47F23050B5492A
:10591000C1F880000846D0F88010102002F00AFF7D
:105920005CE1B249112002F005FF102002F0C4FD35
:1059300030B3FFF77DFF4FF47A710120FFF742F992
:10594000062809D1AA48A749C1F88000012081F89A
:105950007800FFF787FF0DE00020A24981F878006A
:105960004FF4FA61122002F0E5FE47F230509D49F3
:10597000C1F880009B48D0F88010102002F0DAFEB9
:10598000122002F099FDA8B3122002F007FFFFF7E2
:1059900009FA064606B97FE7924890F8780020B1E8
:1059A00042F210708F49C8671FE08E48FFF708FA6F
:1059B0000646012E0BD18B4981F878004FF47A709E
:1059C00000F0FCF942F210708649C8670DE0FF2E26
:1059D00004D10020834981F878005DE700208149E7
:1059E00081F8780041F28830C8677E48C16F122084
:1059F00002F0A0FE7B48B0F872007B4988827948AB
:105A000090F8780030B189884FF47A7201FB02F087
:105A100000F0D4F9012002F04FFD00287ED00120D3
:105A200002F0BCFE4FF48071002003F0D9F8044668
:105A30003CB970A0FCF791FA2146002003F0AAF8C7
:105A4000CDE04FF480712046FAF7F2FB002710E01A
:105A50009DF8C8203846791C8FB22254B7F5806F64
:105A600007DB68A0FCF779FA2146002003F092F8E2
:105A700005E032A9012002F05DFF0028E8D100BF57
:105A8000224666A1204601F0A9FF65A12046FAF74B
:105A9000E6FB20B10020534981F878007DE063A146
:105AA0002046FAF7DCFB20B100204E4981F878004F
:105AB00073E061A12046FAF7D2FB20B961A120462C
:105AC000FAF7CDFB20B10120464981F8780064E067
:105AD00000254548807D615D88425ED14248C17D98
