:020000040800F2
:1000000090B000204501000823210008C519000810
:10001000B9200008AD1100086D6B00080000000059
:10002000000000000000000000000000A94F0008D0
:100030009914000800000000490B00080132000874
:100040005F0100085F0100085F0100085F01000810
:100050005F0100085F0100085F0100085F01000800
:100060005F0100085F0100085F0100085F010008F0
:100070005F0100085F0100085F0100085F010008E0
:100080005F0100085F0100085F0100085F010008D0
:100090005F0100085F0100085F0100085F010008C0
:1000A0005F0100085F0100085F0100085F010008B0
:1000B000A15300085F0100085F0100085F0100080C
:1000C0005F0100085F0100085F0100085F01000890
:1000D0005F01000809660008456600085F01000826
:1000E0005F0100085F0100085F0100085F01000870
:1000F0005F0100085F0100085F0100085F01000860
:100100005F0100085F0100085F0100085F0100084F
:100110005F0100085F0100085F0100085F0100083F
:100120005F0100085F0100085F0100085F0100082F
:10013000DFF80CD000F0EEFB004800475D7D0008C2
:1001400090B000200648804706480047FEE7FEE7DB
:10015000FEE7FEE7FEE7FEE7FEE7FEE7FEE7FEE777
:10016000415300083101000872B6704762B670470B
:10017000EFF3108072B6704780F31088704730BF7D
:10018000704720BF7047B0FA80F0704790FAA0F037
:10019000B0FA80F0704790FAA0F070472DE9F05F58
:1001A0000546002092469B468846064681464024E6
:1001B0001BE0284641464746224600F054FA534683
:1001C0005A46C01A914110D311461846224600F0F3
:1001D0003BFA2D1A67EB01084F4622460120002109
:1001E00000F032FA17EB00094E41201EA4F1010481
:1001F000DFDC484631462A464346BDE8F09FA0F181
:100200004101192900D82030704740EA01039B07BB
:1002100003D009E008C9121F08C0042AFAD203E07B
:1002200011F8013B00F8013B521EF9D27047D2B2DF
:1002300001E000F8012B491EFBD270470022F6E7CF
:1002400010B513460A4604461946FFF7F0FF20464C
:1002500010BD421E12F8013F002BFBD111F8013BEB
:1002600002F8013B002BF9D1704730B505462A460C
:100270000B4612F8010B13F8014B08B1A042F8D05D
:100280001CB1002802D06D1CF1E7284630BDCAB26F
:10029000401E10F8011F8A4202D00029F9D1002027
:1002A0007047421C10F8011B0029FBD1801A7047CF
:1002B000034611F8012B00F8012B002AF9D118464A
:1002C000704730B505460020034600E05B1C9342B2
:1002D00005D2EC5CC85C201A01D1002CF6D130BDEF
:1002E00070B5064606F06CFC046805460A2200213B
:1002F000304600F0DAF92C6070BD2DE9FE4F8046E3
:1003000081EA0300C00F0C46009021F0004123F069
:100310000045B8EB0200A94105D24046214690466F
:100320001C460B46024623F00040104304D14046D1
:10033000214603B0BDE8F08F270DC7F30A00C3F3D1
:100340000A510290401A0190402866DAC3F3130064
:1003500040F4801B0098924620B10023D2EB030AA0
:1003600063EB0B0B01985946C0F14002504600F078
:100370006BF906460D4650465946019A00F083F93E
:1003800010EB08006141002487EA115284EAE77308
:100390001A433BD0009A3AB3019A012A4FEA075216
:1003A00010DC001B61EB02014FF0004202EA075231
:1003B000CDE90042001C41F5801132462B4600F089
:1003C000B9F9B6E7001B61EB0201001C41F580138F
:1003D00000185B412018A2F5001747EB030140EA23
:1003E000D570B6196D4111E06D084FEA360645EA41
:1003F000C0754FEA0752001B61EB0201001C41F57A
:10040000801149084FEA30000019514132462B460D
:1004100003B0BDE8F04F00F080B900980122400021
:100420000023D0EB020263EBE073009821464FEA11
:10043000E074B8EB000061EB0401E9E783F00043EE
:100440005BE781F0004158E72DE9FE4F81EA0304A4
:1004500004F0004421F0004100944FF0000B23F021
:10046000004350EA010402D052EA030404D1002000
:10047000014603B0BDE8F08FC3F30A54C1F30A5537
:100480002C44A4F2F3340194A0FB0254C1F31301F1
:1004900041F48011C3F3130343F4801301FB0244BE
:1004A00000FB034E840A970A44EA815447EA8357C3
:1004B000A4FB076802958D0A05FB07854FEA932C7C
:1004C00004FB0C542705029D4FEA065847EA1637ED
:1004D000B5EB08056EEB070C870E920E47EA811705
:1004E00042EA8312A7FB0201B6EB0B0164EB0004A6
:1004F0002B0D43EA0C335E1844EB1C50DA46514690
:10050000E7FB0201C5F313044FEA0B3343EA14532C
:100510004FEA0432019C43EA0603A4F10C0402945E
:10052000009CCDE900B400F005F9A2E70EB5C10FBB
:1005300080EAE0700844CA07002140F233438DE8A6
:100540000E000A460B4600F0F5F803B000BD0EB5EC
:1005500040F2334102910021CDE900110A460B46D9
:1005600000F0E8F803B000BD70B5C1F30A5201F025
:1005700000450024C1F3130140F2FF3341F4801120
:100580009A4201DA002070BD40F233439A42A2F24F
:10059000334203DC524200F066F800E090402C4306
:1005A000F1D0404270BD00F0004230F000400AD06F
:1005B000C10D01F56071C0F3160042EA0151C20895
:1005C00040071143704700200146704730B50029AD
:1005D00004DB4FF00044404264EB0101002B04DBDC
:1005E0004FF00044524264EB03038B4208BF824247
:1005F00030BD000030B5002904DB4FF0004440421C
:1006000064EB0101002B04DB4FF00044524264EB29
:100610000303994208BF904230BD000030B50B463D
:10062000014600202022012409E021FA02F59D4222
:1006300005D303FA02F5491B04FA02F52844151EF6
:10064000A2F10102F1DC30BD202A04DB203A00FADD
:1006500002F1002070479140C2F1200320FA03F319
:10066000194390407047202A04DB203A21FA02F017
:100670000021704721FA02F3D040C2F120029140DC
:10068000084319467047202A06DBCB17203A41FA67
:1006900002F043EAE07306E041FA02F3D040C2F10F
:1006A000200291400843194670472DE9F0479146D2
:1006B0000F4680460446002614F8015B2DB100F079
:1006C0003BF90068405DC007F6D12B2D02D02D2DDF
:1006D00018D0641E4A463946204600F031F927B149
:1006E0003968A14201D1C7F8008071054FF00204BA
:1006F0000BD54042002803DD06F062FA0460A00733
:10070000BDE8F08746F48066E4E70028F8DA06F0F2
:1007100057FA04606FF00040F2E710B5002B08DADA
:10072000401C41F1000192185B411A4301D120F0B5
:10073000010010BD2DE9F04D92469B4611B1B1FA72
:1007400081F202E0B0FA80F220329046FFF77CFF9F
:1007500004460F4640EA0A0041EA0B0153465A4656
:10076000084303D120463946BDE8F08D114653EACF
:10077000010015D0C8F140025046FFF774FF05464E
:100780000E46504659464246FFF75EFF084301D0E9
:10079000012000E00020054346EAE0762C43374381
:1007A0000A984FEA4453A0EB08004FEAD4240A30D9
:1007B0004FF0000244EA47544FEAD72502D5002003
:1007C0000146D1E7010510196941DDE90845001925
:1007D0006941BDE8F04DA0E72DE9F04D81EA030441
:1007E00004F0004B21F0004514464FF0000A23F0BE
:1007F000004150EA050220D054EA01021DD0C5F3A1
:100800000A570246C5F31303C1F31300C1F30A5696
:1008100040F4801543F48013A7EB0608101BD6465E
:1008200008F2FD3873EB050002D308F1010801E07E
:1008300092185B41B8F1000F03DA00200146BDE8D1
:10084000F08D00204FF48011064684460EE0171B01
:1008500073EB050705D3121B63EB050306434CEA54
:10086000010C49084FEA300092185B4150EA010739
:10087000EDD152EA030012D082EA040083EA0501B6
:10088000084303D100224FF0004308E0101BAB41A6
:1008900002D20122002302E06FF0010253101AEB92
:1008A00006004CEB085110EB0A0041EB0B01BDE8D0
:1008B000F04DFFF732BF70B521F0004303430CD079
:1008C000C1F30A550024D5EB040564EB0403D617E5
:1008D000AD1AB34102DB0020014670BD201841EB88
:1008E000025170BDC1F30A52C1F3130140F2FF334C
:1008F00041F480119A4202DA00200146704740F22A
:1009000033439A42A2F2334202DC5242FFF7ABBEBB
:10091000FFF79ABE064C074D06E0E06840F0010381
:1009200094E8070098471034AC42F6D3FFF704FC74
:10093000B8A20008D8A2000800487047B4A2000876
:100940002DE9F05F82460078002715468B460AF1B4
:100950000104B946302801D09DB113E014F8010B11
:100960000127782803D0582801D045B10AE00DB1FD
:10097000102D07D10027102514F8010B02E00825DF
:1009800000E00A250026B0460EE005FB080005FB46
:1009900006F1012701EB10461FFA80F8B6F5803FFB
:1009A00000D3B94614F8010B294600F069F8002875
:1009B000EBDABBF1000F05D00FB1641E00E0544626
:1009C000CBF80040B9F1000F06D006F0F9F802218B
:1009D0000160C81EBDE8F09F48EA0640FAE72DE92D
:1009E000F04D00231A461B1A8A4103DB0020014602
:1009F000BDE8F08DC1F30A52C1F3130141F4801533
:100A00004FF0000BD10702D100186D41521E002794
:100A1000044640F2FF11384601EB620A3E4680462A
:100A2000024600204FF48011FFF71DFEC2197141EC
:100A3000BB1846EB0100B4EB030C75EB000C04D3C0
:100A4000E41A65EB000517460E46241908F101006B
:100A50006D4180463428E3DDF91946EB0600091B99
:100A6000A84103D24FF0FF32134601E000221346A3
:100A70001BEB070046EB0A51BDE8F04DFFF74DBEFA
:100A80003A2800D2303820F02002412A01D3A2F1C6
:100A90003700884201D34FF0FF30704730B58C18D3
:100AA00010F8012B12F00F0301D110F8013B1209CD
:100AB00006D110F8012B03E010F8015B01F8015B8F
:100AC0005B1EF9D101E001F8013B521EFBD1A142AE
:100AD000E6D3002030BD000072B64EF62250CEF2B2
:100AE000000040F2FF01C0F20001017040F2281046
:100AF000C2F20000016881F3088840F2C200C2F22D
:100B0000000040F2C301C2F200010A78027040F214
:100B10002015C2F2000540F22411C2F200010A6859
:100B20002A60106880F30988EFF3148040F0020017
:100B300080F31488BFF36F8FBDE8F00F0FBCBDE8E2
:100B4000005006BC62B6084772B6EFF3098020E990
:100B5000F00F40F22015C2F200052E683060744696
:100B600002F0ECF940F2C200C2F2000040F2C30110
:100B7000C2F200010A78027040F22411C2F20001B0
:100B80000A682A6044F0040E1068B0E8F00F80F3A1
:100B9000098862B67047000008B501211C2003F0E7
:100BA000CDFF10208DF8030003208DF802004020B7
:100BB000ADF800006946124800F046FD4FF4807021
:100BC000ADF8000069460F4800F03EFD04208DF8A6
:100BD000030003208DF802002020ADF800006946D4
:100BE000074800F031FD084800F059FE4FF48070CE
:100BF000044910310860402001491431086008BDE3
:100C0000000C014000080140E073002010B542F2E2
:100C10001071132006F0B4FD00200249C874087555
:100C2000887510BD2C2C0020014621B14FF4807036
:100C3000044A106004E04FF48070024A121D1060F4
:100C4000002070471008014070B5ADF5816D054674
:100C50000C46164602208DF801028DF8026281943E
:100C6000B4F5007F03DD00200DF5816D70BD4FF4FC
:100C7000007182A8FFF7E2FA294682A8819AFFF75D
:100C8000C4FA4FF4FE7283A96846FFF7BEFA034820
:100C900080A90EC900F0D8FD0120E5E7E07300202F
:100CA00010B5054800F0A2FD10F0200F01D0012082
:100CB00010BD0020FCE70000000C014010B5044608
:100CC000002C38D0FFF7ECFF20B100203649087027
:100CD000012010BD3448007858B9402033490860DD
:100CE0004FF4FA61122006F04BFD01202E490870E6
:100CF0001FE02D480078012810D1122006F02EFCAC
:100D0000B8B140202949091D086040F6B8311220C9
:100D100006F036FD0220244908700AE022480078D7
:100D2000022806D1122006F019FC10B100201E493D
:100D30000870FF20CDE7FFF7B3FF18B900201A496C
:100D40000870C6E71848007858B94020174908606D
:100D50004FF47A61122006F013FD01201249087049
:100D60001FE011480078012810D1122006F0F6FB90
:100D7000B8B140200D49091D086040F6B831122075
:100D800006F0FEFC0220084908700AE006480078D8
:100D9000022806D1122006F0E1FB10B10020024922
:100DA0000870FF2095E7000020000020100C014093
:100DB00010B500242F48007E58B90120FFF734FFFA
:100DC00001202C4908764FF4FA61122006F0D8FC75
:100DD0004FE02848007E01280BD1122006F0BEFB10
:100DE000002846D0122006F0FFFC02202149087698
:100DF0003FE02048007E022810D10120FFF75EFF6F
:100E00000446012C35D103201A4908760846C07DD6
:100E100020BB0120C875FFF7F9FE2AE01548007EC7
:100E200003280CD11348C07D28B1FFF739FF10B15A
:100E300004F0BEFB1DE004200E49087619E00D48C1
:100E4000007E04280BD10020FFF7EEFE4FF4FA617C
:100E5000122006F095FC05200649087609E01220CC
:100E600006F07CFB28B1122006F0BEFC00200149F0
:100E7000087610BD2C2C002030B58BB004460D46F2
:100E80000120ADF81000ADF81240ADF81450ADF8E7
:100E9000160006F09FFB06904FF47A70079006F05C
:100EA00099FB089041F2883009904FF6FF70ADF839
:100EB00028000020ADF82A0007A80FC88DE80F0011
:100EC000034804A90EC904F0F9FA0BB030BD0000C4
:100ED000C04D00207047000000B58BB00AA8032168
:100EE00000220592CDE90621089010464FF40071CA
:100EF00033221F4BCDE90132CDE90310042000233A
:100F00001C4A1DA100901F4801F0E4FD0AA803211E
:100F100000220592CDE90621089010464FF4806129
:100F20006622194BCDE90132CDE9031003200023DD
:100F3000164A17A100901B4801F0CCFD0AA8032116
:100F400000220592CDE90621089010464FF4007169
:100F50003322154BCDE90132CDE9031005200023E2
:100F6000124A13A10090164801F0B4FD0BB000BD69
:100F7000741B00204D100008417070205461736B89
:100F800020554900BC1A002004020020DF0F000891
:100F9000417070205461736B2053494D3830304399
:100FA000000000004C0100202C240020C50F000888
:100FB000417070205461736B204D49435300000011
:100FC000742300200AE005F035FC03F06DFA00F010
:100FD00013FE01F025F8012000F095F8F3E704E096
:100FE000FFF7E6FE642000F08EF8F9E7002400BF6A
:100FF00000BFFFF7BDF8044600BF00F05DF900BF79
:1010000000F0D6F800F0A0F800F026F806F001FB9A
:1010100000F0C6FD00F03AF9FFF75EFFFFF75AFF58
:1010200000BF00F063F900BF2046FFF7A5F800BF3E
:1010300000BF4FF47A7006F015FB06E003F0D2FB18
:1010400000F0F4FC0A2000F05EF8F7E702E00A2066
:1010500000F059F8FBE7704710B5002400BF00BF4F
:10106000FFF786F8044600BF00F026F900BF0F48DE
:101070000F4908600F48104908601048104908607F
:101080001048114908601148114908601148124977
:10109000086012481249086000BF00F027F900BF3D
:1010A0002046FFF769F800BF00BF10BD57100008C9
:1010B0009C000020E5100008A0000020E7100008B8
:1010C00090000020E910000894000020EB100008B8
:1010D00098000020ED100008A4000020EF10000888
:1010E000A80000207047704770477047704710B5E0
:1010F00004F01CFA10BD00B585B0684603F038FD59
:10110000019805B000BDFEB5044642F2107084425D
:1011100000D90446B4F57A7F09D34FF47A70B4FB52
:10112000F0F100FB1145B4FBF0F086B201E025467A
:10113000002602A800212B463246CDE900100846C1
:1011400001F098FFFEBD00002DE9F041FFF7D3FF4D
:10115000054613480068B5FBF0F42146B1F1807FE5
:1011600000D31BE021F07F40401E4FF0E022506191
:1011700050170F22002806DA13010A4E00F00F075D
:101180003F1FF35502E01601074B1E5400BF00201D
:101190004FF0E02290610720106100BFBDE8F081B0
:1011A000F49F000818ED00E000E400E000BFFEE757
:1011B00010B500F0E5F800F003F800F0DDF810BD20
:1011C00070B5002600201849088018490880184981
:1011D00008601849086018490860184908601849EB
:1011E0000860002400BFFEF7C3FF064600BF0025CD
:1011F0000BE000201049086000F05EF800F076F87F
:101200000D4800680444681C85B2002DF1D00C48DC
:1012100004600020084908600849086000BF3046A3
:10122000FEF7AAFF00BF70BD74000020760000200A
:10123000780000207C00002084000020880000202E
:101240008000002001460846044A1268904203D9F3
:10125000024A1268801A00E00020704780000020D7
:1012600070B5002500BFFEF783FF054600BF0648A6
:10127000046800BF2846FEF77FFF00BF2046FFF747
:10128000E1FF0646304670BD8400002070B50025A1
:10129000FFF7E6FF044600BFFEF76AFF054600BF02
:1012A00000200449086000BF2846FEF765FF00BF24
:1012B000204670BD8400002010B509480088401CFD
:1012C000074908800748008818B900F083F80649E4
:1012D000086004480088401C0249088010BD0000D6
:1012E00074000020760000207800002010B50F4820
:1012F0000088401E0D49088008460088A0B900F00B
:1013000069F80B490860084600680A490968441AE8
:1013100009480068A04201D20748046007480068F5
:10132000A04201D20548046010BD000076000020F4
:101330007C0000207800002084000020880000202D
:1013400010B5002400BF00BFFEF712FF044600BF27
:10135000FFF7B2FF00BF1021064800F0AFFE00BF4C
:10136000FFF7C4FF00BF2046FEF706FF00BF00BF27
:1013700010BD0000345B002010B5FFF7E1FF10BD89
:1013800010B500200249086000F00AF810BD000006
:1013900070000020014908607047000070000020C4
:1013A00010B5FFF7A8FE04460848006840F08070BA
:1013B000064908600020064948600846006840F079
:1013C000010008602046FFF7E5FF10BDFCED00E0DE
:1013D000001000E00149486870470000001000E07C
:1013E000014609B909487047012901D10848FAE7BF
:1013F000022901D10020F6E7032901D10020F2E7FC
:10140000042901D10020EEE70020ECE7EC51002098
:101410001856002008B525208DF8000000208DF812
:10142000020001208DF80300684600F07BFE2620B4
:101430008DF8000001208DF802008DF80300684649
:1014400000F070FE08BD70B504460D464FF4B06064
:10145000005908B9002070BD4FF4AF600059C0EBCF
:10146000C00004EB80011C222846FEF7CEFE4FF49C
:10147000AF600059401C322190FBF1F201FB1201D8
:101480004FF4AF6001514FF4B0600059401E4FF46B
:10149000B06108510120DEE770470FB410B5044673
:1014A0004FF4B0600059322803D1002010BC5DF821
:1014B00014FB40F27C510959C1EBC10104EB8100DE
:1014C0001C2203A9FEF7A1FE40F27C500059401CEB
:1014D000322190FBF1F201FB120140F27C500151EC
:1014E000001D0059401C4FF4B06108510120DDE798
:1014F0000149C860704700000020024030B5044632
:1015000004254FF4302000F06FF80546042D17D164
:101510000C48006940F002000A490861084644612D
:10152000006940F0400008614FF4302000F05CF8A2
:1015300005460448006941F6FD710840014908610B
:10154000284630BD0020024004200B49C96811F034
:10155000010F01D001200EE00749C96811F0040F06
:1015600001D0022007E00449C96811F0100F01D032
:10157000032000E004207047002002400348006977
:1015800040F08000014908617047000000200240DF
:1015900070B504460D460426F00200F025F8064614
:1015A000042E11D10948006940F001000749086183
:1015B0002580F00200F018F806460448006941F65C
:1015C000FE71084001490861304670BD00200240AC
:1015D0000248034948600348486070472301674553
:1015E00000200240AB89EFCD00B502460423FFF78F
:1015F000ABFF034603E0FFF7A7FF0346521E012B94
:1016000001D1002AF7D102B90523184600BD000018
:101610002DE9F04105460C462F4626460020B077BE
:1016200005A13046FEF715FE39463046FEF711FE9D
:101630002046BDE8F08100006131444E6C5177488E
:1016400054303726646E3D002DE9F04102460025F6
:101650000026002000230024002791F803C00CF08E
:101660000F0591F803C01CF0100F03D091F802C0D1
:101670004CEA050591F800C0BCF1000F31D01468A8
:1016800000202BE04FF0010C0CFA00F3B1F800C081
:101690000CEA03069E4220D183004FF00F0C0CFA97
:1016A00003F7BC4305FA03FC4CEA040491F803C0B9
:1016B000BCF1280F06D14FF0010C0CFA00FCC2F867
:1016C00014C00AE091F803C0BCF1480F05D14FF0F7
:1016D000010C0CFA00FCC2F810C0401C0828D1D341
:1016E0001460B1F800C0BCF1FF0F34DD5468002075
:1016F0002EE000F1080C4FF0010808FA0CF3B1F8E5
:1017000000C00CEA03069E4221D183004FF00F0C6B
:101710000CFA03F7BC4305FA03FC4CEA040491F805
:1017200003C0BCF1280F05D100F1080C08FA0CF831
:10173000C2F8148091F803C0BCF1480F07D100F142
:10174000080C4FF0010808FA0CF8C2F81080401C91
:101750000828CED35460BDE8F0810000F0B50A46F9
:10176000002300240021002500F00046B6F1004FC0
:1017700002D11D4EF16901E01B4E7168C0F30345B3
:1017800083B200F44016B6F5401F08D121F0706115
:10179000154E766826F07066134F7E6012E000F4F6
:1017A0008016B6F5801F06D1032606FA05F4A1437C
:1017B00041F0706106E0460D360103FA06F6B143CA
:1017C00041F0706122B1460D360103FA06F631434D
:1017D00000F00046B6F1004F02D1034EF16101E086
:1017E000014E7160F0BD00000000014001468868B4
:1017F00080B2704770B504460D4642F6A8002058E6
:1018000008B9002070BD42F6A000205800EB8010FF
:1018100004EBC0014FF402722846FEF7F6FC42F6D4
:10182000A0002058401C142190FBF1F201FB120093
:1018300042F6A001605042F6A8002058401E42F631
:10184000A80160500120DDE70FB410B5044642F650
:10185000A8002058142803D1002010BC5DF814FB08
:1018600042F6A401615801EB811104EBC1004FF471
:10187000027203A9FEF7C9FC42F6A4002058401CDE
:10188000142190FBF1F201FB120042F6A40160501A
:10189000081D2058401C091D60500120DDE701464D
:1018A000002042F6A0028850121D8850121D885058
:1018B00001207047014642F6A800085808B90120E7
:1018C00070470020FCE700001FB507A30FCB8DE891
:1018D0000F006846FEF7E5FC84B200222146684608
:1018E000FFF7B2F91FBD0000727270632C67657458
:1018F0006373710D0A00000070B504460D464FF485
:10190000B060005908B9002070BD4FF4AF600059B5
:10191000C0EBC00004EB80011C222846FEF775FCDA
:101920000120F1E71FB508A30FCB8DE80F000A488F
:10193000407D40B96846FEF7B4FC84B200222146DF
:101940006846FFF781F91FBD727270632C6765747A
:1019500069636369640D0A002C2C00201FB508A37D
:101960000FCB8DE80F000A48007D40B96846FEF7AE
:1019700098FC84B2002221466846FFF765F91FBD36
:10198000727270632C676574696D65690D0A000079
:101990002C2C00201FB507A30FCB8DE80F00684645
:1019A000FEF77FFC84B2002221466846FFF74CF91F
:1019B0001FBD0000727270632C67657474696D6579
:1019C0000D0A000009A100200BE00A5C124B1A80EE
:1019D00000BF114A121F128812F0400FF9D0421CAA
:1019E000D0B22A28F1D300BFFEE700000D0A456EF1
:1019F00074657220486172644661756C745F4861F9
:101A00006E646C65722C2053797374656D20486127
:101A10006C742E0D0A000000043801404CF6CC40D6
:101A200001490860704700000030004010B500F028
:101A300001F810BD4AF6AA2001490860704700006D
:101A4000003000400149486070470000003000400D
:101A5000014988607047000000300040014908607B
:101A6000704700000030004000B585B0012105201E
:101A700003F064F80121880303F060F84FF400706C
:101A8000ADF8100018208DF8130003208DF8120017
:101A900004A93A48FFF7D8FD4FF48060ADF8100074
:101AA00004208DF8130004A93448FFF7CDFD4FF44E
:101AB000165000900020ADF80400ADF80600ADF817
:101AC0000800ADF80C000C20ADF80A0069462C485F
:101AD00004F03AFE012240F22551294804F00FFE9D
:101AE0000121274804F0D5FD4021254804F0C8FD18
:101AF0000121052003F022F80121480403F00EF82B
:101B00000420ADF8100018208DF8130003208DF884
:101B1000120004A91948FFF797FD0820ADF810003E
:101B200004208DF8130004A91448FFF78DFD04A9C3
:101B30001248FFF789FD4FF4E13000900020ADF826
:101B40000400ADF80600ADF80800ADF80C000C205C
:101B5000ADF80A0069460B4804F0F6FD012240F298
:101B60002551084804F0CBFD0121064804F091FD01
:101B70004021044804F084FD05B000BD0008014088
:101B80000038014000440040014600224FF4AF609D
:101B90004250001D4250001D42500120704700007D
:101BA00010B5002006F042F9002000F05BFA042096
:101BB0000949087203F04EFF4FF4877407E00748A5
:101BC00030F81410064820F81410601C84B2B4F5E4
:101BD000E77FF4DB10BD00002C2C0020683B0020C8
:101BE000D841002001464FF4B060405808B90120A8
:101BF00070470020FCE700002DE9F0478CB000257D
:101C00000020089009900A900B900490059006908F
:101C10000790009001900290039000243FE067201D
:101C20006043EA4901EB8000B0F8960008A901EB97
:101C30008401488067206043E44901EB8000B0F8EC
:101C4000980008A921F8240067206043DF4901EBD0
:101C50008000B0F89A0004A901EB84014880672055
:101C60006043DA4901EB8000B0F89C0004A921F838
:101C7000240067206043D54901EB8000B0F89E0046
:101C8000694601EB8401488067206043CF4901EB3E
:101C90008000B0F8A0002DF82400601CC4B2042C11
:101CA000BDDBCB4890F8480010F0010F4AD0C8487F
:101CB000806C20F00100C649886405F05BFE814617
:101CC00005F058FE80460898FEF76DFC064605F0C4
:101CD0003FFE82465246BFA1404605F021FE0498D1
:101CE000FEF761FC064605F033FE82465246BAA175
:101CF000404605F015FE0098FEF755FC064605F037
:101D000027FE82465246B5A1404605F009FE4246EE
:101D1000B3A1484605F004FE484605F0C9FE054655
:101D20002846FEF7BEFA86B2002231462846FEF764
:101D30008BFF484605F036FE002D02D0284605F000
:101D4000E5FF3FE1A24890F8480010F0020F4AD0AA
:101D50009F48806C20F002009D49886405F00AFECF
:101D6000814605F007FE80460998FEF71CFC0646F2
:101D700005F0EEFD824652469BA1404605F0D0FD9F
:101D80000598FEF710FC064605F0E2FD8246524635
:101D900096A1404605F0C4FD0198FEF704FC0646F6
:101DA00005F0D6FD8246524691A1404605F0B8FDA9
:101DB00042468BA1484605F0B3FD484605F078FE43
:101DC00005462846FEF76DFA86B2002231462846BF
:101DD000FEF73AFF484605F0E5FD002DB1D0284654
:101DE00005F094FFEEE07A4890F8480010F0040FF8
:101DF0004AD07748806C20F004007549886405F06B
:101E0000B9FD814605F0B6FD80460A98FEF7CBFB8A
:101E1000064605F09DFD8246524676A1404605F0F5
:101E20007FFD0698FEF7BFFB064605F091FD824652
:101E3000524671A1404605F073FD0298FEF7B3FBD0
:101E4000064605F085FD824652466CA1404605F0E7
:101E500067FD424662A1484605F062FD484605F02E
:101E600027FE05462846FEF71CFA86B200223146B8
:101E70002846FEF7E9FE484605F094FD002DB1D056
:101E8000284605F043FF9DE0514890F8480010F0C7
:101E9000080F4AD04E48806C20F008004C498864F6
:101EA00005F068FD814605F065FD80460B98FEF75C
:101EB0007AFB064605F04CFD8246524650A140464C
:101EC00005F02EFD0798FEF76EFB064605F040FD77
:101ED000824652464BA1404605F022FD0398FEF78C
:101EE00062FB064605F034FD8246524646A1404656
:101EF00005F016FD42463AA1484605F011FD484658
:101F000005F0D6FD05462846FEF7CBF986B200223D
:101F100031462846FEF798FE484605F043FD002D61
:101F200050D0284605F0F2FE4CE0294890F84800D1
:101F300010F0100F46D02648806C20F01000244985
:101F4000886405F017FD814605F014FD80462049A0
:101F500091F86C00FEF7FBFA064605F0F9FC8246A4
:101F600052462AA1404605F0DBFC1948293005F00D
:101F70000AFD0646324626A1404605F0D1FC14482B
:101F8000193005F000FD0646324623A1404605F013
:101F9000C7FC424612A1484605F0C2FC484605F07F
:101FA00087FD05462846FEF77CF986B200223146B9
:101FB0002846FEF749FE484605F0F4FC15B12846D0
:101FC00005F0A4FE0CB0BDE8F08700005C3B0020EB
:101FD0002C2C002049413000494230004943300058
:101FE000706172616D7300004941310049423100F6
:101FF00049433100494132004942320049433200ED
:1020000049413300494233004943330043535100AF
:102010004943434944000000494D45490000000040
:1020200010B500240D48C07D022807D14FF47A7105
:102030000B48006807F08EFD044605E0962108482D
:10204000006807F087FD044634B105F0C3FA04497F
:102050000860012005F062FB10BD00002C2C002060
:102060000400002010B5044674221049104805F001
:1020700061FB0E480068132800D15CB113200B49A6
:10208000086001200B49088048801420888002F0F5
:102090008DFF09E005488088064908800348C0880C
:1020A000488002480089888010BD000078510020D7
:1020B000000001082C2C002000BFFEE730B50546CB
:1020C0000C4622460021284600F001F830BD2DE9DB
:1020D000F04105460B4694460027002402E03F02EB
:1020E0001F43641C042CFAD3604605F003062946FE
:1020F00046B1344603E001F8013B401E641C08B1C0
:10210000042CF8D30A4601E080C2001F0428FBD249
:10211000114602E001F8013B401E0028FAD1BDE85B
:10212000F081704770B5002100230F22C4780CB3F2
:10213000164C246804F4E064C4F5E064210AC1F19B
:102140000403CA40447804FA03F18478144021431C
:1021500009010F4C0678A155047804F01F050124ED
:10216000AC4005786D114FF0E02606EB8505C5F80B
:10217000004109E0047804F01F050124AC40054D3E
:102180000678761145F8264070BD00000CED00E0A1
:1021900000E400E080E100E002490143024A1160EE
:1021A000704700000000FA050CED00E010B586B0A5
:1021B000142207A101A8FEF728F801A8FEF771F87C
:1021C00084B20022214601A8FEF73EFD06B010BDF4
:1021D000727270632C6E65747374617475730D0A1A
:1021E000000000007047000010B50348006810B1FF
:1021F00001480068804710BD9C00002070B504466F
:1022000000F094F8002031490870314908703149D4
:102210000870314908603149086031490870314916
:1022200008703148056845B13048066803E0761EFD
:10223000002028602D1D002EF9D100202C490860B7
:102240002C4908602C4908602C4908602C4908601A
:102250002C4908602C4908602C49087001F0E8FA04
:1022600001F016FB204601F0FFF8208800B170BD98
:102270000020274908602749088027490860274926
:1022800008802749086027490880204601F038FC6B
:10229000208800B1EBE7204601F0AEF8208800B1BD
:1022A000E5E7204601F080FF208800B1DFE7204607
:1022B00001F0DEFF208800B1D9E700F0BDFFFFF795
:1022C00091FF01201849087000BFD0E7B00000203E
:1022D000B8000020CA0000202001002024010020B6
:1022E000C2000020C3000020C09F0008C49F000857
:1022F0009000002094000020980000209C00002006
:10230000A0000020A4000020A8000020E60000207B
:10231000BC000020C0000020C4000020C800002035
:10232000CC000020D0000020B90000200A4A11682B
:10233000002002E0002204C1401C084A12689042BA
:10234000F8D3054A1268054B1B6802EB8302121F83
:10235000034B1A6070470000C09F0008C49F00082C
:102360002801002008480078012800D0704707485D
:102370000078FA2800D3F9E704480078401C0349A4
:10238000087000BFF2E70000B8000020B000002095
:1023900010B500242D480078012800D010BD00BFE2
:1023A000FDF7E6FE044600BF2948007828B900BFC3
:1023B0002046FDF7E1FE00BFF0E725480078401E0B
:1023C000234908700846007828B100BF2046FDF771
:1023D000D3FE00BFE2E71F48007828B100BF2046C7
:1023E000FDF7CAFE00BFD9E701F016FA1A490870D6
:1023F0000846007800EB4000184951F820001849C1
:1024000008600846006817490968884205D100BF7E
:102410002046FDF7B1FE00BFC0E711480068D0F8C4
:102420008400401C0E490968C1F884000E48006809
:10243000401C0D4908604FF080500C49086000BFF7
:102440002046FDF799FE00BF00BFA7E7B8000020B7
:10245000B0000020CA000020C30000200866002051
:102460002401002020010020DC00002004ED00E019
:102470002DE9F04104460E4615460027194800781C
:1024800020B142F6E1602880BDE8F08100BF00BFC6
:10249000FDF76EFE074600BFFEF70EFF00BF1248B5
:1024A0002060666000202062606284F82800E0629C
:1024B00004F1080001F0E4F8204601F00BF80B48A5
:1024C0000088401C0949088000BFFEF70FFF00BFCD
:1024D0003846FDF751FE00BF00BF0020288000BF36
:1024E000D2E70000B00000204D555458C000002035
:1024F0002DE9F04788B00546884691461C46109E57
:102500004FF0000A7748007828B146F2AE103080CC
:1025100008B0BDE8F08774492868884203D045F6C2
:10252000C4503080F4E700BF00BFFDF721FE8246B3
:1025300000BFFEF7C1FE00BF95F82800C8B96B4880
:1025400000686862012085F828000CB1E86A206004
:1025500029466648006800F0D5FF00BFFEF7C6FEBA
:1025600000BF5046FDF708FE00BF00BF00203080CE
:10257000CEE75E49686A0968884225D195F8280047
:10258000FF280CD100BFFEF7B1FE00BF5046FDF79B
:10259000F3FD00BF00BF45F284703080B8E795F8C6
:1025A0002800401C85F828000CB1E86A206000BFB4
:1025B000FEF79CFE00BF5046FDF7DEFD00BF00BFEA
:1025C00045F282703080A3E719F4004F0FD000BFAE
:1025D000FEF78CFE00BF5046FDF7CEFD00BF00BFEA
:1025E0000CB10020206046F2B010308090E74048E7
:1025F000007878B100BFFEF779FE00BF5046FDF7C6
:10260000BBFD00BF00BF0CB10020206046F6635048
:1026100030807DE76F6A97F837003449096891F890
:102620003710884206DD3148006890F83710384688
:1026300001F0D8F9434604222946684600F08AFF93
:1026400000BFFEF753FE00BF5046FDF795FD00BFEB
:1026500000BF00F017F900BF00BFFDF789FD8246FB
:1026600000BFFEF729FE00BF2048006890F8350043
:1026700030B101280CD002281AD0032821D110E053
:102680001CB11A480068806C2060002030801CE07B
:102690001CB116480068806C206046F2A91030809A
:1026A00013E00CB10020206047F2D92030800CE00C
:1026B0001CB10E480068806C206045F6C250308026
:1026C00003E046F62E60308000BF00BF00BFFEF77B
:1026D0000DFE00BF5046FDF74FFD00BF00BF00BF1D
:1026E00016E70000B00000204D555458200100208E
:1026F000CA0000202DE9F84F04468A4615464FF0DF
:10270000000B5C48007820B146F20E202880BDE81E
:10271000F88F59492068884203D045F6C450288074
:10272000F5E700BF00BFFDF723FD834600BFFEF7BE
:10273000C3FD00BF5149606A096888420CD000BFE0
:10274000FEF7D4FD00BF5846FDF716FD00BF00BFE1
:1027500045F281702880DAE7FEF73CFE804604F1FE
:102760002804C4F804802078A0F10100207014F837
:10277000280960B100BFFEF7B9FD00BF5846FDF75C
:10278000FBFC00BF00BF45F283702880BFE72146F5
:102790003A48006800F0D0FE04F10809D9F80000BA
:1027A00078B90020606284F8280000BFFEF79EFD23
:1027B00000BF5846FDF7E0FC00BF00BF00202880A6
:1027C000A5E72E48006890F837002C49096891F871
:1027D0003810884228D02948006800F097FE064645
:1027E0002648006890F83810B14204DA234800689F
:1027F00090F8380000E0304606462048006890F81F
:102800003700B04210DA1D48006801F0A7F81B48F5
:10281000006880F83760304601F016F81748006805
:1028200001F07EF816480670D9F8000087686762E4
:10283000012084F828002146384600F063FE00237A
:102840001A4639462046CDF8008000F08BFF00BFC5
:10285000FEF74CFD00BF5846FDF78EFC00BF00BFE1
:102860001AF4004F01D100F00DF80020288000BFBD
:102870004DE70000B00000204D55545820010020C5
:10288000C200002010B500242048007800B110BD1F
:102890001F48007800B1FAE700BFFDF769FC044665
:1028A00000BF00F0B9FF1B4908700846007800EB34
:1028B0004000194951F8200018490860084600688E
:1028C00017490968884205D100BF2046FDF754FC2E
:1028D00000BFDCE711480068D0F88400401C0F49B5
:1028E0000968C1F884000F480068401C0D49086061
:1028F0004FF080500C49086000BF2046FDF73CFCBB
:1029000000BFBFF36F8F00BFC1E70000B000002021
:10291000CA000020C3000020086600202401002017
:1029200020010020DC00002004ED00E070B504462A
:1029300000251948007818B146F66250208070BD15
:1029400016480078012803D045F689602080F6E714
:1029500013480078FA2803D345F209202080EEE7D7
:1029600000BF00BFFDF704FC054600BFFEF7A4FC56
:1029700000BF0B480078401C0949087000BFFEF7F3
:10298000B5FC00BF2846FDF7F7FB00BF00BF0020E5
:10299000208000BFD3E70000B0000020B800002076
:1029A000CA00002070B5044600252148007818B1FF
:1029B00046F66550208070BD1E480078012803D07F
:1029C00045F689602080F6E71B48007818B946F67E
:1029D00064502080EFE700BF00BFFDF7C9FB05464C
:1029E00000BFFEF769FC00BF13480078401E124983
:1029F00008700846007860B100BFFEF777FC00BFA2
:102A00002846FDF7B9FB00BF00BF46F663502080A3
:102A1000D1E700BFFEF76AFC00BF2846FDF7ACFB1C
:102A200000BF00BFFFF72EFF0020208000BFC2E7DD
:102A3000B0000020B8000020CA00002070B5044695
:102A40001C480078012803D045F68B60208070BDBB
:102A500000256D1C6D1C6D1C17480088A84203DC06
:102A600045F68C602080F2E714480078E8B900F061
:102A7000D3FE1349087008460078124908701048C0
:102A8000007800EB4000104951F820000F49086021
:102A9000084600680E490860012008490870FEF7E2
:102AA0001BF843F69920208002E045F68A602080DA
:102AB00000BFCCE7B9000020E4000020B8000020EF
:102AC000C3000020C200002008660020240100206E
:102AD000200100202DE9FF4F85B004469246DDE934
:102AE00012B5DDE91968002002905248007830B133
:102AF00047F24A10A8F8000009B0BDE8F08FBBF11A
:102B00001F0F07D14C48844204D046F27320A8F826
:102B10000000F1E7204601F003F80020A8F80000CB
:102B200016F0010F02D116F0020F10D016F0020FAE
:102B30000DD02F460020049005E0002038603F1D96
:102B40000498401C0490159904988842F5D3149871
:102B500005EB800003901598CDE900062A46504603
:102B6000039B089900F088F90746AF4204D246F665
:102B70002C60A8F80000BFE7C4F828A00898E0621D
:102B80000698A06084F837B084F838B027600398BE
:102B9000E06018986060656215982064A4F844604D
:102BA0004FF0000908E0002104F1780040F82910F6
:102BB00009F1010000F0FF09B9F1000FF3D004F1B1
:102BC0006000169900F07EFC204600F03BF800BF44
:102BD00000BFFDF7CDFA029000BFFEF76DFB00BF0E
:102BE00094F8370000F030FE204600F099FE2046B1
:102BF00000F06EFF11480088401C10490880104802
:102C00000078012809D000BFFEF770FB00BF0298D2
:102C1000FDF7B2FA00BF00BF6EE700BFFEF766FB2C
:102C200000BF0298FDF7A8FA00BF00BFFFF72AFE19
:102C300000BF61E7B000002044650020E4000020F0
:102C4000B800002010B504460348006818B12046BB
:102C500001490968884710BD9000002010B504465E
:102C60000348006818B1204601490968884710BD2B
:102C7000980000202DE9F0470746884614461D4677
:102C80004FF000097048007828B146F2AE10288055
:102C90000020BDE8F08700BF00BFFDF769FA81465C
:102CA00000BFFEF709FB00BF68480068C06CB8B3FE
:102CB00066480068C06C401E64490968C86463487F
:102CC0000068C66C1CB161480068806C2060FEF72B
:102CD00081FB5E490968896C401A5C490968C1F842
:102CE00098005A480068D0F89C0058490968D1F803
:102CF0009810884207D255480068D0F89800534988
:102D00000968C1F89C0000BFFEF7F0FA00BF484612
:102D1000FDF732FA00BF00BF002028803046B8E738
:102D2000FFE718F4004F10D000BFFEF7DFFA00BF36
:102D30004846FDF721FA00BF00BF0CB1002020601B
:102D400046F2B01028800020A3E74148007880B107
:102D50000CB10020206000BFFEF7C8FA00BF484653
:102D6000FDF70AFA00BF00BF46F663502880002036
:102D70008FE73B4607220021084600F0EBFB00BF2F
:102D8000FEF7B4FA00BF4846FDF7F6F900BF00BFF2
:102D9000FFF778FD00BF00BFFDF7EAF9814600BFED
:102DA000FEF78AFA00BF2948006890F8350020B184
:102DB000012826D0032834D12CE0FCB12348006838
:102DC000806C2060FEF706FB20490968896C401A78
:102DD0001E490968C1F898001C480068D0F89C009A
:102DE0001A490968D1F89810884207D21748006834
:102DF000D0F8980015490968C1F89C000020288087
:102E000013E01CB111480068806C206046F2A910E4
:102E100028800AE00CB10020206047F2D9202880E9
:102E200003E046F62E60288000BF00BF0748006818
:102E3000C66C00BFFEF75AFA00BF4846FDF79CF982
:102E400000BF00BF304624E7B00000202001002072
:102E5000CA0000202DE9F04105460E461446FEF753
:102E6000B9FA8046234642463146284600F0C2FE63
:102E700007463846BDE8F081F0B50446DDE9055661
:102E800002EB850020F007004FF0807C071F3846DA
:102E9000C7F800C0071F38463C60DFF89CC0071F1A
:102EA0003846C7F800C04FF0123C071F3846C7F835
:102EB00000C04FF0033C071F3846C7F800C04FF072
:102EC000023C071F3846C7F800C0071F38463B6062
:102ED000071F384639604FF0113C071F3846C7F8C6
:102EE00000C04FF0103C071F3846C7F800C04FF035
:102EF000093C071F3846C7F800C04FF0083C071FC1
:102F00003846C7F800C04FF0073C071F3846C7F8DF
:102F100000C04FF0063C071F3846C7F800C04FF00E
:102F2000053C071F3846C7F800C04FF0043C071F98
:102F30003846C7F800C0F0BDD13B000870B51B484B
:102F4000006810B1194800688047FEF743FA04464C
:102F50001748006817490968884215D01448006866
:102F6000D0F88C00201A12490968C1F8880010486E
:102F70000068D0F890000E490968D1F8881008441C
:102F80000B490968C1F890000A480068C0F88C40F5
:102F9000FEF77CF9054606480068D0F8A800A8426C
:102FA00003D203480068C0F8A85070BDA4000020F8
:102FB00020010020240100202DE9F04105460E46A5
:102FC000144600272848007820B147F27520208059
:102FD000BDE8F0812548007818B146F6635020809E
:102FE000F6E736B1022E05D0042E0AD0082E09D1FC
:102FF00001E000BF00BF1DB947F27E202080E7E757
:1030000004E003E045F625602080E1E700BF00BF53
:1030100000BFFDF7ADF8074600BFFEF74DF900BF52
:103020002346324629461248006800F01FFF2088D8
:1030300048B100BFFEF75AF900BF3846FDF79CF8CB
:1030400000BF00BFC4E70A48006800F087FC00BF6B
:10305000FEF74CF900BF3846FDF78EF800BF00BF01
:10306000FFF710FC00BFB3E7B0000020CA0000204B
:10307000200100202DE9F84F06460F46904699465C
:103080000B9C002000904048007820B147F275204A
:103090002080BDE8F88F3D48007818B146F66350AF
:1030A0002080F6E70A9800F00E0ABAF1000F09D066
:1030B000BAF1020F07D0BAF1040F12D0BAF1080F1B
:1030C00010D101E000BF00BFB9F1000F08D1B8F185
:1030D000000F05D127B91EB947F27E202080D8E71E
:1030E00004E003E045F625602080D2E700BF2848D1
:1030F00005684FF4FA70B0FBF5F0484468434FF4AC
:103100007A71B0FBF1F14FF461607043C7EB0712C5
:1031100000EB8200404400FB051BBBF1000F2DD0EB
:1031200000BF00BFFDF724F8009000BFFEF7C4F811
:1031300000BF2346524659461648006800F096FEE6
:10314000208848B100BFFEF7D1F800BF0098FDF716
:1031500013F800BF00BF9CE70E48006800F0FEFBBC
:1031600000BFFEF7C3F800BF0098FDF705F800BFE9
:1031700000BFFFF787FB0020208002E047F27E209F
:10318000208000BF85E70000B0000020CA000020BA
:10319000F49F00082001002008B50F48007801289E
:1031A00000D008BD00F022F86A4600210B48FFF766
:1031B00051FE0B480068401E094908600846006837
:1031C00040B90848006808606A4600210648FFF7D1
:1031D00041FE00BF00BFE4E7B80000208867002080
:1031E0001C010020180100207068002010B5034861
:1031F000006810B101480068804710BDA800002099
:1032000010B5002400BF00BFFCF7B2FF044600BFAA
:10321000FEF752F800BFFFF7A5F800BFFEF766F80B
:1032200000BF2046FCF7A8FF00BF00BFFFF7B4FFB8
:10323000FFF7AEF810BD0000214A2249224A234A76
:103240002349244A2448254A254A2648264A274A0B
:103250002748284828482948294A2A4A2A4A2B48E0
:103260002B4A2C4A2C482D482D482E482E482F48B2
:103270002F48304A304A314A314A3248324833487E
:10328000334A344A344A354835483648364937484F
:10329000374A384A384A394A394A3A4A3A4A3B4818
:1032A0003B4A3C4A3C483D483D4A3E4A3E483F4AEC
:1032B0003F4A4048404800BF00BF00BF7047000081
:1032C00028A0000890A1000829A000082AA0000852
:1032D0002CA0000830A0000834A0000831A000088D
:1032E00066A0000868A0000888A000088CA000085C
:1032F0008EA0000890A0000892A0000894A00008EA
:10330000C4A00008C5A00008C6A00008C8A0000806
:10331000CAA00008CBA00008CCA00008CEA00008DE
:10332000D0A00008D2A00008D4A00008D6A00008B1
:10333000D8A0000808A1000809A100080AA10008F7
:103340000BA100080CA100080EA1000810A10008A4
:1033500038A1000839A100083AA100083BA10008E3
:103360003CA100083EA1000840A1000844A10008BB
:1033700045A1000846A1000847A1000848A100088F
:1033800049A100084AA100084BA100084CA100086F
:103390004EA100084FA1000850A1000852A100084A
:1033A00054A1000855A1000858A1000888A10008F0
:1033B00089A100088AA100088CA10008002418E057
:1033C00000BF00BFFCF7D4FE044600BFFDF774FF4A
:1033D00000BF08480068401C0649086000BFFDF7B0
:1033E00085FF00BF2046FCF7C7FE00BF00BFFEF709
:1033F000FBFEE5E7AC00002010B58AB004460020D3
:103400000E4908600B2000210591CDE907040691C3
:1034100008460B4909680B4A12680B4B1B68CDE93B
:103420000132CDE903101F200023084A08A10090B3
:103430000C48FFF74FFB0AB010BD0000AC000020A5
:103440009C9F0008989F0008949F0008BD330008C7
:1034500075432F4F532D4949492049646C652054C9
:1034600061736B004465002070B50246124D2868F8
:1034700029681031114D2D886D1EACB2002308E073
:103480000160002545600581C560103010315D1C6C
:10349000ABB2A342F4DB0025056045600581C56041
:1034A000054D2D68064E3560044D2D88B5800025EC
:1034B000F5803581158070BDD49F0008CC9F000831
:1034C000FC6500200181002242818281026042600D
:1034D0007047000009A1C1610021416108490968E4
:1034E00011B90021816105E005490968816104493C
:1034F0000968486102490860704700002000000028
:10350000BC000020C26B0A62C163704730B504463C
:103510001F2004F13C010BE00D68AB682BB19D68E6
:1035200095F83720824200DA10460D6805F1200137
:103530000D68002DF0D130BD024602F13C0002E0E2
:10354000036803F1200003688B42F9D103681B6A0A
:10355000036070472DE9F04105460C4616461F46AC
:103560001348006880F8346000201149096881F828
:10357000350039460E48006800F01EFA6CB104F1BF
:103580000808EC60012229460948006800F012F89A
:103590002946404600F079F803E000200449096814
:1035A000086303480168204600F00EF8BDE8F0818A
:1035B00020010020016300234B600B600B614B6115
:1035C0000B83CB618860704730B548B14568C1F85E
:1035D000B45000F10804226893689D68C56113E047
:1035E00091F83450022D02D0072D08D103E007A531
:1035F000C1F8B45007E007A5C1F8B45003E008A52E
:10360000C1F8B45000BF00BF30BD00005461736BFF
:10361000205100005461736B2053656D0000000061
:103620002000000030B507A5C1F8B45000F108042F
:1036300022681AB193689D68C56101E001A5C56162
:1036400030BD0000200000002DE9F0410646346B3B
:10365000012711E0D4F80C8008F1080528684068BB
:1036600038B12146284600F05CF82146284600F093
:103670000CF82034781E87B2002FEBD1BDE8F08122
:1036800000210160416001817047F0B58E6896F8B5
:10369000375007683FB90127078100274F600F6047
:1036A0000160416023E007897F1C0781026806E012
:1036B000946894F83770AF4200DD02E05268002A47
:1036C000F6D100BF32B900274F6043680B605960E4
:1036D00041600CE017682FB9116000270F604A6045
:1036E000016004E013680B604A6059601160F0BD2E
:1036F0002DE9F0410446206B88B1256B01260AE0D4
:10370000D5F80C8008F108072946384600F009F87A
:103710002035701E86B2002EF2D100202063BDE855
:10372000F08110B5046864681CB90024046044602A
:1037300011E00C6824B94B6800241C6003600AE0A7
:103740004C6824B90A6800245460426003E00A68A7
:103750004B6853601A600489641E048100244C6025
:103760000C6010BD2DE9F04105460C4616461F467B
:10377000DDF8188094F83600082848D2DFE800F019
:10378000040508090607282900BF00BF00BF3FE065
:1037900000BFA665A4F85C70C4F8488035B1204627
:1037A000FFF7A6FF21462846FFF73CFF94F83600B6
:1037B000032802D1204600F0ADFB204600F07AF845
:1037C000002004F13404A070607004F834091FE094
:1037D00000BFA665A4F85C70C4F8488035B12046E7
:1037E000FFF786FF21462846FFF71CFF94F83600B6
:1037F000072802D1204600F08DFB042004F1340498
:10380000A0704FF00000607004F8340900E000BFC1
:1038100000BFBDE8F081000070B50024034D2868AA
:10382000FCF7B1FC2044C4B2204670BD8C000020DF
:10383000002004E00021034A42F82010401C002828
:10384000F8D070478C00002030B5002203460121DB
:10385000C3F11F04A140044C54F822400C43024D14
:1038600045F8224030BD00008C00002030B5002219
:1038700003460121C3F11F04A140044C54F8224027
:103880008C43024D45F8224030BD00008C000020E2
:10389000002109E001EB4102054B03EB820000220D
:1038A000028102604260491C2029F3D37047000066
:1038B0000866002010B5044694F83700FFF7C4FFEF
:1038C00094F8370005490978884203D1204600F072
:1038D00027F802E0204600F003F810BDC2000020E7
:1038E00010B590F8373003EB43030C4C04EB830125
:1038F0000B683BB901230B8100230361436108601E
:10390000486009E00B895B1C0B810B680361002395
:1039100043610A685061086010BD0000086600201D
:1039200010B590F8373003EB43030B4C04EB8301E5
:103930000B683BB901230B810023036143610860DD
:10394000486008E00B895B1C0B81002303614A6817
:1039500042611061486010BD086600202DE9F04109
:10396000054695F8370000EB4000124901EB800452
:103970006F692E6987B946B9002020812060606098
:1039800095F83700FFF772FF0EE02089401E208176
:1039900000207061266007E02089401E20813E6182
:1039A0000EB9676000E07761002068612861BDE8BA
:1039B000F08100000866002070B504460D4645B150
:1039C0002A462146064800F00DFA032084F8360006
:1039D00002E0022084F836002046FFF7BFFF70BDEA
:1039E000F80000202DE9F04104460D4600BF0026F6
:1039F00094F8377094F8360008285ED2DFE800F0BB
:103A000004191E1F1A1B20212046FFF7A7FF84F868
:103A1000375094F83700FFF717FF2C4800688442AE
:103A200003D12046FFF75CFF02E02046FFF778FF56
:103A300045E000BF00BF84F8375040E000BF00BF42
:103A400000BF84F8375094F83400082830D2DFE8FB
:103A500000F02F04302F0A05063100BF00BF2046BA
:103A6000FFF7F2FD27E02046FFF7EEFD206BC06870
:103A7000466AAF4205DD96F83700A84217DC0026FB
:103A800015E096F83700B84211D13046FFF73EFDF9
:103A9000054696F83800A84202DA96F8380000E0A9
:103AA0002846054696F83700A84200D1002602E0D5
:103AB00000BF00BF00BF00BF01E0BDE8F08100BF54
:103AC0003446002C93D100BFF7E70000200100200E
:103AD0000021C0F8AC100949096819B90021C0F8E3
:103AE000B01007E005490968C0F8B010034909683B
:103AF000C1F8AC000149086070470000E0000020F8
:103B00000021044A1160044A1180044A11600180B6
:103B100070470000E0000020E4000020DC000020EE
:103B200070B5044600202060E06060602061606144
:103B3000A061E061206223A0A06000206062A0621A
:103B4000E062A064A065A4F85C00002104F16000BC
:103B5000FFF7B8FC002020676067002506E0002121
:103B600004F1780040F82510681CC5B2002DF6D08D
:103B7000002004F13404A0616066A066E06084F86F
:103B800048002067E0662082E0612062A4F84A00D5
:103B9000A4F84C0020656065FDF71CFCA0650020C2
:103BA000E065606720706070A0702020E070207178
:103BB0000020A060A067E06704A0C4F88000A4F122
:103BC000340470BD3F5461736B000000200000009E
:103BD00008B506480068FFF741F806E06A4600218C
:103BE00003480068FFF7E8F900BFF7E7200100206D
:103BF000F49F00082DE9F8430446884617461D4601
:103C00004FF0000900BF00BFFCF7B2FA814600BFC9
:103C1000FDF752FB00BF0CB971480468A76400208F
:103C2000288094F83600082877D2DFE800F00405F1
:103C3000585906075A5B00BF00BF00BF0420012887
:103C400004D0022815D0042839D126E0E06CFF28E2
:103C50000ED100BFFDF74AFB00BF4846FCF78CFAC7
:103C600000BF00BF46F6C55028800020BDE8F8839D
:103C700026E0E06CA0F57F41FF390DD100BFFDF7D4
:103C800035FB00BF4846FCF777FA00BF00BF46F699
:103C9000C55028800020E9E712E0E06C401C0DD1FF
:103CA00000BFFDF723FB00BF4846FCF765FA00BFE5
:103CB00000BF46F6C55028800020D7E700E000BFCF
:103CC00000BFE06C401CE064E66C00BFFDF70EFB3B
:103CD00000BF4846FCF750FA00BF00BF7CE000BFC1
:103CE00000BF00BF94F83400072817D100231A46FC
:103CF000214618460097FFF735FDE66C00BFFDF73B
:103D0000F5FA00BF4846FCF737FA00BF00BF18F4C9
:103D1000004F52D1FEF7B6FD4FE04FE004200128DE
:103D200004D0022814D0042838D125E0E06CFF2804
:103D30000DD100BFFDF7DAFA00BF4846FCF71CFAC8
:103D400000BF00BF46F6C550288000208EE726E061
:103D5000E06CA0F57F41FF390DD100BFFDF7C6FA39
:103D600000BF4846FCF708FA00BF00BF46F6C55042
:103D7000288000207AE712E0E06C401C0DD100BFE3
:103D8000FDF7B4FA00BF4846FCF7F6F900BF00BFE4
:103D900046F6C5502880002068E700E000BF00BF5D
:103DA000E06C401CE064E66C00BFFDF79FFA00BFCA
:103DB0004846FCF7E1F900BF00BF0DE000BFFDF78A
:103DC00095FA00BF4846FCF7D7F900BF00BF46F69A
:103DD0002D602880002600BF00BF304646E7000067
:103DE0002001002070B51546066846B90D6500260D
:103DF0008E61CE61086201600126868033E004682E
:103E000002682B4624E0166D9E421DD3D6696EB91A
:103E10000B650026CE618A610862166DF61A16657A
:103E2000D16101608688761C86800CE0D4690B65C0
:103E3000CC618A610862166DF61A1665D161A161BE
:103E40008688761C868070BD166D9B1B1446926911
:103E5000002AD8D10B65CC6100268E610862A16171
:103E60008688761C868000BFEDE700002DE9F043D0
:103E700004460D469146984624480768B9F1040F58
:103E80000CD1EE1B16F5803F00D866BB00202065E4
:103E900047F27E20A8F80000BDE8F083B9F1080FD2
:103EA00022D1606D381AA84203D92E467819606570
:103EB0001BE0606D381A2E1A16F5803F00D87EB9C7
:103EC000606D381AB0FBF5F005FB0050616D0844D9
:103ED00060650020206547F27E20A8F80000DBE73F
:103EE000606D2844606500E02E460020A8F80000C0
:103EF000012084F8360005480068381A82192146E6
:103F00000348FFF76FFF00BFC6E70000E80000208E
:103F1000F000002030B5026AC3698169ABB929B9E4
:103F2000002414609480046504621EE00024CC61C7
:103F30000C6D056D2C440C6511609488641E948092
:103F400000248461046504620FE0996121B1CB61B2
:103F50000C6D056D2C440C650024C4619488641EAE
:103F60009480002484610465046230BD2DE9F0472B
:103F70000546FDF72FFA81464FF00008244E3468BD
:103F8000002C3CD0206DA84204D8206D2D1A0020B2
:103F9000206502E0206D401B20652CE008F1010047
:103FA0001FFA80F894F83600012806D1002084F822
:103FB00036002046FFF77EFC06E094F83600052820
:103FC00002D1042084F83600A0693060346814B946
:103FD0000020B08012E0B088401EB0800020E06178
:103FE000206DA84204D8206D2D1A0020206502E023
:103FF000206D401B2065206D0028CFD000BFA6F8A3
:104000000680FDF7E7F9A0EB09073846BDE8F08721
:10401000F00000202DE9F05F0646FDF7DBF983464E
:104020004FF0000A424F3C68002C77D0206DB04220
:1040300004D8206D361A0020206502E0206D801B18
:10404000206567E00AF101001FFA80FA002594F864
:104050003400042802D1206BC068456A0020A065A6
:10406000A4F85C00FDF7B6F9A0642046FFF740FB1A
:1040700094F83600032806D12046FFF71BFC0020E9
:1040800084F8360006E094F83600072802D10420B0
:1040900084F83600032084F83500002084F83400CA
:1040A00005B395F8370095F8381088421AD095F87E
:1040B000370094F83710884214D12846FFF726FAC3
:1040C000804695F83800404502DA95F8380000E05F
:1040D0004046804695F83700404503D04146284683
:1040E000FFF780FCA06938603C6814B90020B880F4
:1040F00013E0B888401EB8800020E061206DB04217
:1041000005D8206D361A0020206503E006E0206DFA
:10411000801B2065206D002894D000BFA7F806A062
:10412000FDF758F9A0EB0B094846BDE8F09F0000E9
:10413000F800002008B54FF000082FE06B46002281
:1041400011461046FEF796FDBDF8000030BB00BFDB
:1041500000BFFCF70DF8804600BFFDF7ADF800BFCB
:1041600001270F480068401C0D4908603846FFF7DA
:10417000FDFE06463846FFF74DFF0546741909480F
:104180000068A04201D20748046000BFFDF7AEF806
:1041900000BF4046FBF7F0FF00BF00BFCEE70000C6
:1041A000E8000020EC00002010B58AB00446002092
:1041B0002049086020490860204908601E4988801D
:1041C000C8801E498880C8801D48006820B947F211
:1041D000122020800AB010BD1A4800681A490968E8
:1041E000884203D247F213202080F3E71748007873
:1041F0001F2803D347F211202080EBE70B2000217A
:104200000591CDE90704069108460E490A68104950
:1042100009680B4B1B68CDE90131CDE903200B4840
:10422000007800230B4A0CA100901048FEF752FCC6
:1042300000BFCFE7E8000020F0000020F8000020D9
:10424000FC9F000804A00008F09F0008F89F0008E9
:1042500000A000083541000875432F4F532D4949F0
:1042600049205469636B205461736B008867002098
:1042700010B58AB0044600202F4908602F49086015
:104280002F4908802F48006840B12F4800682D4909
:104290000968B0FBF1F02D49086006E02A48006883
:1042A0000A21B0FBF1F02949086028480068284934
:1042B000086000202749086027490860224627A196
:1042C0002A48FEF7D5F8208808B10AB010BD284862
:1042D000006818B947F247302080F6E725480068A3
:1042E00025490968884203D247F248302080ECE72C
:1042F000224800781F2803D347F246302080E4E7A5
:104300000B20002105910A46CDE9070406911948C2
:1043100000681B490968164B1B68CDE90131CDE9DE
:104320000302164800780023164A17A100901C4883
:10433000FEF7D0FB00BFC8E7000100200801002005
:104340000401002010A00008F49F000818010020BC
:104350001C01002014010020100100204F532054A4
:104360006D72204D75746578000000004068002073
:1043700014A000081CA00008F09F00080CA0000872
:1043800018A00008BD43000875432F4F532D49491D
:10439000492054696D6572205461736B0000000000
:1043A000706800200EB502A801AB002211460090F3
:1043B0000148FEF79DF80EBD406800201CB53FE0A7
:1043C00001AB6A4600210846FEF754FCFFF7EAFFFE
:1043D000FDF700F806461B480068401C19490860B4
:1043E000194804681FE001A8FEF7A0FAD4F810806D
:1043F000A069401EA061A06980B9A08C022802D1EA
:10440000206AA06105E0204600F022F8032084F82D
:104410002600A56815B12046E168A847444601A8D2
:10442000FEF7C0FA00BF002CDDD1FCF7D3FF871BDD
:1044300006480068B84201D20448076000F02AF834
:10444000BEE7000014010020080100201001002038
:1044500010B50E4B1B68834206D101690B4B1960E6
:1044600039B100234B6104E0416902690A6102B17C
:104470005161012380F82630002303614361044B1E
:104480001B885B1E024C238010BD00000801002029
:104490000401002008B56A4600210248FEF72AF907
:1044A00008BD00004068002010B50024C8480188FD
:1044B000C848006805F04EFB0446002C5DD003F0B0
:1044C00089F8C4490860C448B0F89610C348B0F8E9
:1044D0009600814227D1C048B0F89810BF48B0F884
:1044E000980081421FD1BC48B0F89A10BB48B0F880
:1044F0009A00814217D1B848B0F89C10B748B0F87C
:104500009C0081420FD1B448B0F89E10B348B0F877
:104510009E00814207D1B048B0F8A010AF48B0F873
:10452000A00081422AD0AC48B0F89610AB48A0F861
:104530009610A948B0F89810A848A0F89810A64876
:10454000B0F89A10A548A0F89A10A348B0F89C10AB
:10455000A248A0F89C10A048B0F89E109F48A0F870
:104560009E109D48B0F8A0109C48A0F8A0109C4850
:10457000806C40F001009A49886427E19648B0F8C1
:1045800032129648B0F8320281422FD19248B0F8E8
:1045900034129248B0F83402814227D18E48B0F8E4
:1045A00036128E48B0F8360281421FD18A48B0F8E0
:1045B00038128A48B0F83802814217D18648B0F8DC
:1045C0003A128648B0F83A0281420FD18248B0F8D8
:1045D0003C128248B0F83C02814207D17E48B0F8D4
:1045E0003E127E48B0F83E0281422AD07A48B0F8A6
:1045F00032127A48A0F832127748B0F8341277486D
:10460000A0F834127448B0F836127448A0F8361284
:104610007148B0F838127148A0F838126E48B0F8F6
:104620003A126E48A0F83A126B48B0F83C126B4848
:10463000A0F83C126A48806C40F002006849886427
:10464000C4E06548B0F8CE136448B0F8CE038142A8
:104650002FD16148B0F8D0136048B0F8D003814240
:1046600027D15D48B0F8D2135C48B0F8D20381423C
:104670001FD15948B0F8D4135848B0F8D403814238
:1046800017D15548B0F8D6135448B0F8D603814234
:104690000FD15148B0F8D8135048B0F8D803814230
:1046A00007D14D48B0F8DA134C48B0F8DA0381422C
:1046B0002AD04948B0F8CE134848A0F8CE1346484F
:1046C000B0F8D0134548A0F8D0134348B0F8D2133F
:1046D0004248A0F8D2134048B0F8D4133F48A0F89D
:1046E000D4133D48B0F8D6133C48A0F8D6133A4846
:1046F000B0F8D8133948A0F8D8133948806C40F086
:1047000004003749886461E03348B0F86A153348DB
:10471000B0F86A0581422FD12F48B0F86C152F48A8
:10472000B0F86C05814227D12B48B0F86E152B48A4
:10473000B0F86E0581421FD12748B0F870152748A0
:10474000B0F87005814217D12348B0F8721523489C
:10475000B0F8720581420FD11F48B0F874151F4898
:10476000B0F87405814207D11B48B0F876151B4894
:10477000B0F87605814229D01748B0F86A15174875
:10478000A0F86A151448B0F86C151448A0F86C1518
:104790001148B0F86E151148A0F86E150E48B0F823
:1047A00070150E48A0F870150B48B0F872150B483C
:1047B000A0F872150848B0F874150848A0F87415E8
:1047C0000748806C40F008000549886410BD00006F
:1047D000100000200C0000205C3B0020CC41002099
:1047E0002C2C002010B5002410480089104989881D
:1047F000884205D00E48807C10B901200C4988748D
:1048000041F288310B48006805F0A4F904465CB118
:1048100002F0E0FE074908600548807C20B100F006
:10482000C5FB00200249887410BD000078510020AB
:104830002C2C0020000000202DE9F14F86B0002034
:104840000490059003900026029000278046814640
:1048500082468346019000259548C08B44286EDD32
:10486000069803F0EBF80646002E68D091A130467A
:1048700003F0C4F80290029800287CD04FF4FA7438
:1048800056E08EA104A8FBF7E4FC22468CA103A805
:1048900002F06EF903A904A8FBF7DBFC04A9029857
:1048A00003F0ACF80546002004900590EDB368696C
:1048B000D8B1E21704EB12721311824A32F81320B6
:1048C0002146E31704EB13731B11A4EB031C012314
:1048D00003FA0CF31A432046E31704EB13734FEA71
:1048E000231C784B23F81C201AE0E21704EB127209
:1048F0001311744A32F813202146E31704EB1373A3
:104900001B11A4EB031C012303FA0CF39A4320466A
:10491000E31704EB13734FEA231C6A4B23F81C20A4
:1049200021460520FCF7A8FA05E0FFE7601C84B2E9
:10493000B4F5047FA5DB00BF40F2431425E0B3E0EB
:1049400061A104A8FBF785FC22465DA103A802F043
:104950000FF903A904A8FBF77CFC04A9029803F053
:104960004DF8054600200490059065B1A88A81B2F3
:104970005448683000E094E020F8141021460620E6
:10498000FCF77AFA04E0601C84B2B4F5E37FD7DB6D
:1049900000BF4EA1029803F031F8074657B1B88A1C
:1049A00081B24848001FA0F804144FF4E6710620B5
:1049B000FCF762FA47A1029803F020F88046B8F1AC
:1049C000000F0BD0B8F8140081B23E48001FA0F8C9
:1049D000061440F2CD110620FCF74EFA3FA10298D2
:1049E00003F00CF88146B9F1000F10D0D9F814008B
:1049F00000EB80004FF6FF7101EA40013148001FD3
:104A0000A0F860144FF4FD710620FCF735FA35A1CB
:104A1000029802F0F3FF8246BAF1000F10D0DAF8E4
:104A2000140000EB80004FF6FF7101EA40012548B9
:104A3000001FA0F8621440F2FB110620FCF71CFADC
:104A40002AA1029802F0DAFF8346BBF1000F10D0D2
:104A5000DBF8140000EB80004FF6FF7101EA400123
:104A60001848001FA0F8B01440F222210620FCF7DD
:104A700003FA20A1029802F0C1FF0190019880B1D1
:104A80000198406900EB80004FF6FF7101EA400198
:104A90000C48001FA0F8B21440F223210620FCF7B6
:104AA000EBF9304602F07EFF07B0BDE8F08F000062
:104AB00018560020706172616D7300006D00000077
:104AC00025640000B43000206400000064343630F7
:104AD00000000000643436310000000064353036D8
:104AE00000000000643530370000000064353436C3
:104AF00000000000643534370000000029B1064A88
:104B000052690243044B5A6104E0034A52698243EA
:104B1000014B5A61704700000010024029B1064A5B
:104B2000D2690243044BDA6104E0034AD26982434A
:104B3000014BDA61704700000010024029B1064ABB
:104B400092690243044B9A6104E0034A92698243EA
:104B5000014B9A6170470000001002400348406A10
:104B600040F0807001494862704700000010024028
:104B700030B500210022002400232D4D6D6805F082
:104B80000C0121B1042905D0082923D105E0294DC4
:104B9000056022E0274D05601FE0254D6D6805F496
:104BA0007012234D6D6805F48034022505EB9242A6
:104BB0001CB9214D554305600BE01D4D6D6815F482
:104BC000003F03D01C4D5543056002E0194D55438D
:104BD000056002E0174D056000BF00BF144D6D6811
:104BE00005F0F0010909154D6B5C0568DD40456075
:104BF0000F4D6D6805F4E061090A104D6B5C456866
:104C0000DD4085600A4D6D6805F46051C90A0B4DA1
:104C10006B5C4568DD40C560054D6D6805F440413D
:104C2000890B074D6B5CC568B5FBF3F5056130BDBD
:104C30000010024000127A0000093D005C000020D4
:104C40006C00002010B501460022002300204A110C
:104C5000012A02D1094C236806E0022A02D1074C3E
:104C6000236A01E0054C636A01F01F0201249440AD
:104C70001C4201D0012000E0002010BD00100240C5
:104C800001490860704700008004424208B50121D4
:104C90000820FFF753FF03208DF8020010208DF845
:104CA00003000220ADF8000069460248FCF7CCFC86
:104CB00008BD0000000C01407047000010B5052041
:104CC000FCF721FA02200149086010BD100C0140D8
:104CD00010B50520FCF717FA02200149086010BD45
:104CE000140C01402DE9FC410646002500270EA1C9
:104CF0003046FBF7BAFA04460C3400BF002000909F
:104D0000019000BF20780DF80500681CC5B2641C36
:104D100020782C2801D0022DF4DD6846FBF7E0FA5C
:104D200087B2F8B2BDE8FC81727270632C6765745B
:104D30006373712C000000002DE9F04107460D4619
:104D4000002408A13846FBF790FA06460E3600BF4D
:104D500003E0305D2855601CC4B2142CF9DBBDE8BB
:104D6000F0810000727270632C6765746963636917
:104D7000642C00002DE9F04107460D46002408A1EF
:104D80003846FBF772FA06460D3600BF03E0305D89
:104D90002855601CC4B20F2CF9DBBDE8F08100007F
:104DA000727270632C676574696D65692C00000010
:104DB0002DE9FC4106460025002717A13046FBF7E8
:104DC00054FA30B114A13046FBF74FFA04461034C0
:104DD0000AE016A13046FBF748FA28B113A1304685
:104DE000FBF743FA04460E340025002000900190A2
:104DF00000BF20780DF80500681CC5B2641C20783F
:104E00002C2801D0052DF4DD6846FBF769FA87B23E
:104E1000F8B2BDE8FC810000434F4E4E454354209C
:104E20004C494E4B2049443A00000000434C4F533C
:104E300045204C494E4B2049443A00002DE9FC41A5
:104E400007460E46002554A13846FBF70EFA0446E5
:104E50000D3400BF00200090019000BF20780DF8B5
:104E60000500681CC5B2641C20782C2801D0042DD4
:104E7000F4DB6846FBF734FA642190FBF1F201FBA6
:104E8000120030703078642802DD0020BDE8FC811B
:104E9000641C002500200090019000BF20780DF8D0
:104EA0000500681CC5B2641C20782C2801D0022D96
:104EB000F4DB6846FBF714FA707070780C2801DD9B
:104EC0000020E3E7641C002500200090019000BF53
:104ED00020780DF80500681CC5B2641C20782C28C9
:104EE00001D0022DF4DB6846FBF7FAF9B070B07818
:104EF0001F2801DD0020C9E7641C00250020009068
:104F0000019000BF20780DF80500681CC5B2641C34
:104F100020782C2801D0022DF4DB6846FBF7E0F95D
:104F2000F070F078182801DD0020AFE7641C002540
:104F300000200090019000BF20780DF80500681C4B
:104F4000C5B2641C20782C2801D0022DF4DB684601
:104F5000FBF7C6F9307130793B2801DD002095E779
:104F6000641C002500200090019000BF20780DF8FF
:104F70000500681CC5B2641C20782C2801D0022DC5
:104F8000F4DB6846FBF7ACF9707170793B2801DD02
:104F900000207BE7012079E7727270632C6E6574E4
:104FA00074696D652C0000007047000010B5094859
:104FB000008809498880074841880748C18005481A
:104FC00081880548018174220146044802F038FCBA
:104FD00010BD00002C2C002078510020000001089A
:104FE0002DE9F0478CB00020089009900A900B90B2
:104FF0000490059006900790009001900290039015
:10500000002500243FE067206043794901EB8000E0
:10501000B0F8960008A901EB84014880672060433E
:10502000734901EB8000B0F8980008A921F824002A
:10503000672060436E4901EB8000B0F89A0004A934
:1050400001EB8401488067206043694901EB8000DF
:10505000B0F89C0004A921F824006720604364494B
:1050600001EB8000B0F89E00694601EB84014880A6
:10507000672060435E4901EB8000B0F8A0002DF886
:105080002400601CC4B2042CBDDB02F073FC81461A
:1050900002F070FC80460898FBF785FA064602F09D
:1050A00057FC8246524653A1404602F039FC049810
:1050B000FBF779FA064602F04BFC824652464EA1B7
:1050C000404602F02DFC0098FBF76DFA064602F010
:1050D0003FFC8246524649A1404602F021FC099815
:1050E000FBF761FA064602F033FC8246524644A1C1
:1050F000404602F015FC0598FBF755FA064602F00B
:1051000027FC824652463FA1404602F009FC019826
:10511000FBF749FA064602F01BFC824652463AA1CA
:10512000404602F0FDFB0A98FBF73DFA064602F006
:105130000FFC8246524635A1404602F0F1FB06982C
:10514000FBF731FA064602F003FC8246524630A1D4
:10515000404602F0E5FB0298FBF725FA064602F00E
:10516000F7FB824652462BA1404602F0D9FB0B9832
:10517000FBF719FA064602F0EBFB8246524626A1DF
:10518000404602F0CDFB0798FBF70DFA064602F009
:10519000DFFB8246524621A1404602F0C1FB039844
:1051A000FBF701FA064602F0D3FB824652461CA1E9
:1051B000404602F0B5FB42461AA1484602F0B0FB59
:1051C000484602F075FC05462846FBF76AF886B2A9
:1051D000002231462846FBF737FD484602F0E2FB45
:1051E00015B1284602F092FD0CB0BDE8F087000032
:1051F0005C3B0020494130004942300049433000C7
:1052000049413100494231004943310049413200AE
:105210004942320049433200494133004942330098
:1052200049433300706172616D7300000FB410B5B3
:1052300004464FF4B060005918B9002010BC5DF866
:1052400014FB4FF4AF610959C1EBC10104EB8100BC
:105250001C2203A9FAF7D9FF0120EFE710B500F0EF
:1052600001F810BD0CB50020019000903248006894
:1052700040F480303049086000BF2F48006800F4D7
:10528000003000900198401C0190009818B90198D6
:10529000B0F5A06FF1D12848006810F4003F02D0AB
:1052A0000120009001E0002000900098012842D1E8
:1052B0002248006840F01000204908600846006855
:1052C00020F0030008600846006840F00200086013
:1052D00019484068184948600846406848600846D0
:1052E000406840F4806048600846406820F47C10C4
:1052F00048600846406840F4E81048600846006886
:1053000040F08070086000BF0B48006810F0007F1C
:10531000FAD00948406820F0030007494860084671
:10532000406840F00200486000BF0348406800F059
:105330000C000828F9D10CBD0010024000200240EA
:1053400010B51348006840F0010011490860084694
:105350004068104908400E494860084600680E49F8
:1053600008400B4908600846006820F48020086067
:105370000846406820F4FE0048604FF41F00886033
:10538000FFF76CFF4FF000600449086010BD00009B
:10539000001002400000FFF8FFFFF6FE08ED00E0FD
:1053A00010B50221480700F04CF858B10221480717
:1053B00000F044F800220221480700F053F81B488F
:1053C000006880470421080700F03BF858B1042129
:1053D000080700F033F800220421080700F042F823
:1053E0001348006880470821C80600F02AF858B121
:1053F0000821C80600F022F800220821C80600F0A3
:1054000031F80C48006880471021880600F019F830
:1054100058B11021880600F011F8002210218806EA
:1054200000F020F804480068804710BD4C000020C0
:10543000500000205400002058000020CA4302827F
:10544000704730B50246002000230024158A05EA83
:105450000103958905EA010413B10CB1012000E0B4
:10546000002030BD1AB183890B43838102E0838918
:105470008B438381704770B504460D46D4F8AC0168
:1054800008B9002070BDD4F8A401C0EBC00004EB43
:1054900080011C222846FAF7B8FED4F8A401401C6B
:1054A0000F2190FBF1F201FB1200C4F8A401D4F823
:1054B000AC01401EC4F8AC010120E3E70FB410B505
:1054C0000446D4F8AC010F2803D1002010BC5DF8CD
:1054D00014FBD4F8A811C1EBC10104EB81001C221C
:1054E00003A9FAF792FED4F8A801401C0F2190FB03
:1054F000F1F201FB1200C4F8A801D4F8AC01401C81
:10550000C4F8AC010120E1E701460020C1F8A40184
:10551000C1F8A801C1F8AC01012070470146D1F8DB
:10552000AC0108B9012070470020FCE710B51B480A
:10553000006840B119480068401E1849086002D14F
:10554000012017490870002408E004EB4401154AC3
:1055500002EB810002F006F9601CC4B2142CF4DBEB
:1055600011480068401C10490860084600686FF048
:105570000041884202D100200B49086002F0F1F896
:105580000A480078401CC0B2084908700A2803DBAA
:105590000020087002F0E4F810BD00003C0000207C
:1055A00040000020445A0020440000204800002011
:1055B0007CB5002400250026EB48007860B9EB4854
:1055C000C07D022808D1E948007D28B1E748407D28
:1055D00010B10120E4490870E448007D98B3E34825
:1055E000407D80B3E148C07DE1490978884214D00C
:1055F000DE48C07DDE490870DC48C07D022809D144
:10560000DA4880884FF47A7200FB02F10F2002F032
:10561000B7F802E00F2002F0E7F8D448C07D022876
:1056200018D10F2001F09AFFA0B1D04880884FF424
:105630007A7200FB02F10F2002F0A2F8FCF744F9A5
:10564000FFF7CEFC06E0FFE7FF20C94908700F20F6
:1056500002F0CAF8132001F081FF10B3FCF77EF9C5
:10566000FCF760F9C148C07D012802D0BF48C07D69
:1056700070B941F28831132002F082F8FCF796FDF0
:10568000FCF722F940F6B831112002F079F808E071
:10569000B648C07D022804D142F21071132002F0F6
:1056A0006FF8112001F05AFF28B1112002F09CF888
:1056B0000120AE49C875AD48C07D022830D1AB4845
:1056C000807D40B942F21071102002F059F801209B
:1056D000A649887524E0A548807D01280ED11020B8
:1056E00001F03CFFE0B1FCF755F902209F498875B5
:1056F00042F21071102002F043F811E09B48807DC7
:1057000002280CD1102001F029FF48B142F210719B
:10571000102002F035F801209449887500E000BFA0
:10572000012001F01BFF00287BD0012002F05CF873
:1057300090A19548FAF799FD80B19348FFF738FB9F
:105740000446012C06DB062C04DC0122601E87497E
:105750003E310A5402208549C875C8E08BA18A48A9
:10576000FAF783FD38B38848FFF722FB0446012C83
:1057700006DB062C04DC0022601E7C493E310A5404
:10578000002506E079483E30405D00B103E0681C2A
:10579000C5B2062DF6DB00BF062D08D101207349E6
:1057A000C87544F62061132001F0EAFF9FE0022053
:1057B0006E49C8759BE079A17348FAF756FDD0B1E0
:1057C000112002F011F879A16F48FAF74EFD18B1D7
:1057D00002206649C8758AE079A16B48FAF745FD51
:1057E0000028BAD001206149C87501F13E000021AE
:1057F000016081807BE078A16348FAF736FD88B1CB
:1058000079A16148FAF731FD002870D169465E48F8
:10581000FFF714FB0646012E02D103205349887579
:1058200065E067E075A15848FAF71FFDB8B1774801
:10583000C08B1C285BDD10214C481930FAF7FEFCA8
:105840004A4919315048FFF795FA48494C31A1F1BE
:105850003300FBF7DDFE01204449087547E06CA1E9
:105860004948FAF702FD88B16848C08B22283EDD1E
:1058700015213E482930FAF7E1FC3C4929314248DC
:10588000FFF75AFA01203949487530E064A13E48D3
:10589000FAF7EBFC18B365A13B48FAF7E6FC30BB1E
:1058A0003948FFF71FFA314981F86C00084690F833
:1058B0006B0020B90846806C40F0100088642B48CB
:1058C00090F86B00401C294981F86B00084690F85D
:1058D0006B001E280BDB002081F86B0007E055A150
:1058E0002948FAF7C2FC10B12748FEF7A5FF0120AE
:1058F00002F040F91D4890F84400A0B95348FBF766
:10590000D9FF78BB52495148FBF774FF5048808853
:1059100082B24F490831012002F03AF901201349BF
:1059200081F844001EE0114890F84400012809D194
:105930004FF448710B2001F023FF02200B4981F83E
:1059400044000FE0094890F8440002280AD10B20D7
:1059500001F004FE30B10B2001F046FF00200349A6
:1059600081F8440000207CBD210000202C2C002068
:1059700022000020434F4E4E454354204C494E4B8D
:105980002049443A0000000044580020434C4F5343
:1059900045204C494E4B2049443A000072727063D6
:1059A0002C6E657473746174757300007272706329
:1059B0002C6E65747374617475732C4F4B0000000A
:1059C000727270632C6E65747374617475732C4598
:1059D00052524F5200000000727270632C6E657458
:1059E00074696D6500000000727270632C6E6574DE
:1059F00074696D652C6572726F72000072727063EB
:105A00002C676574696D65690000000018560020F8
:105A1000727270632C676574696363696400000067
:105A2000727270632C676574637371006572726F54
:105A300072000000736572766963652E70726F7014
:105A4000657274792E73657400000000E0730020A5
:105A5000704F002010B58CB000243948FCF794F842
:105A60003848FFF751FD0020374908800120887031
:105A700001244FE0ADF814400320ADF81600452096
:105A8000ADF818000620ADF81A0001F0A3FD07904C
:105A90004FF47A70089001F09DFD099041F2883032
:105AA0000A904FF6FF70ADF82C000020ADF82E00E4
:105AB00008A80FC88DE80F00214805A90EC9FBF7FB
:105AC000ECFCADF814400320ADF816003920ADF819
:105AD00018000620ADF81A0001F07CFD07904FF485
