:020000040800F2
:1000000030B10020450100083F360008ED19000816
:10001000D5350008091200085998000800000000B2
:100020000000000000000000000000003171000826
:10003000F5140008000000003D0B00081D470008F3
:100040005F0100085F0100085F0100085F01000810
:100050005F0100085F0100085F0100085F01000800
:100060005F0100085F0100085F0100085F010008F0
:100070005F0100085F0100085F0100085F010008E0
:100080005F0100085F0100085F0100085F010008D0
:100090005F0100085F0100085F0100085F010008C0
:1000A0005F0100085F0100085F0100085F010008B0
:1000B000457B00085F0100085F0100085F01000840
:1000C0005F0100085F0100085F0100085F01000890
:1000D0005F01000819920008559200085F010008AE
:1000E0005F0100085F0100085F0100085F01000870
:1000F0005F0100085F0100085F0100085F01000860
:100100005F0100085F0100085F0100085F0100084F
:100110005F0100085F0100085F0100085F0100083F
:100120005F0100085F0100085F0100085F0100082F
:10013000DFF80CD000F0E8FB00480047E1A9000818
:1001400030B100200648804706480047FEE7FEE73A
:10015000FEE7FEE7FEE7FEE7FEE7FEE7FEE7FEE777
:10016000E57A00083101000872B6704762B6704740
:10017000EFF3108072B6704780F31088704730BF7D
:10018000704720BF7047B0FA80F0704790FAA0F037
:10019000B0FA80F0704790FAA0F070472DE9F05F58
:1001A0000546002092469B468846064681464024E6
:1001B0001BE0284641464746224600F0BCFA53461B
:1001C0005A46C01A914110D311461846224600F0F3
:1001D000A3FA2D1A67EB01084F46224601200021A1
:1001E00000F09AFA17EB00094E41201EA4F1010419
:1001F000DFDC484631462A464346BDE8F09FA0F181
:100200004101192900D82030704740EA01039B07BB
:1002100003D009E008C9121F08C0042AFAD203E07B
:1002200011F8013B00F8013B521EF9D27047D2B2DF
:1002300001E000F8012B491EFBD270470022F6E7CF
:1002400010B513460A4604461946FFF7F0FF20464C
:1002500010BD421E12F8013F002BFBD111F8013BEB
:1002600002F8013B002BF9D1704730B505462A460C
:100270000B4612F8010B13F8014B08B1A042F8D05D
:100280001CB1002802D06D1CF1E7284630BD10B526
:10029000044604E00B7800F8013B03B1491C521EF0
:1002A000F8D2204610BDCAB2401E10F8011F8A4283
:1002B00002D00029F9D100207047421C10F8011B20
:1002C0000029FBD1801A7047034611F8012B00F872
:1002D000012B002AF9D11846704730B50546002099
:1002E000034600E05B1C934205D2EC5CC85C201A1C
:1002F00001D1002CF6D130BD70B5064609F0D6FA12
:10030000046805460A220021304600F036FA2C60C7
:1003100070BD2DE9FE4F804681EA0300C00F0C46F8
:10032000009021F0004123F00045B8EB0200A94104
:1003300005D24046214690461C460B46024623F015
:100340000040104304D14046214603B0BDE8F08F81
:10035000270DC7F30A00C3F30A510290401A019017
:10036000402866DAC3F3130040F4801B00989246DD
:1003700020B10023D2EB030A63EB0B0B0198594623
:10038000C0F14002504600F0C7F906460D465046FF
:100390005946019A00F0DFF910EB08006141002492
:1003A00087EA115284EAE7731A433BD0009A3AB3C2
:1003B000019A012A4FEA075210DC001B61EB02018F
:1003C0004FF0004202EA0752CDE90042001C41F51D
:1003D000801132462B4600F015FAB6E7001B61EBA0
:1003E0000201001C41F5801300185B412018A2F5A2
:1003F000001747EB030140EAD570B6196D4111E0D3
:100400006D084FEA360645EAC0754FEA0752001BF1
:1004100061EB0201001C41F5801149084FEA3000F0
:100420000019514132462B4603B0BDE8F04F00F0B1
:10043000DCB90098012240000023D0EB020263EBFC
:10044000E073009821464FEAE074B8EB000061EBDE
:100450000401E9E783F000435BE781F0004158E7DE
:100460002DE9FE4F81EA030404F0004421F000412D
:1004700000944FF0000B23F0004350EA010402D037
:1004800052EA030404D10020014603B0BDE8F08F16
:10049000C3F30A54C1F30A552C44A4F2F334019473
:1004A000A0FB0254C1F3130141F48011C3F3130301
:1004B00043F4801301FB024400FB034E840A970AB5
:1004C00044EA815447EA8357A4FB076802958D0AE2
:1004D00005FB07854FEA932C04FB0C542705029D6E
:1004E0004FEA065847EA1637B5EB08056EEB070CDE
:1004F000870E920E47EA811742EA8312A7FB020198
:10050000B6EB0B0164EB00042B0D43EA0C335E18D1
:1005100044EB1C50DA465146E7FB0201C5F31304D5
:100520004FEA0B3343EA14534FEA0432019C43EA87
:100530000603A4F10C040294009CCDE900B400F081
:1005400061F9A2E72DE9F04D81EA030404F0004BC4
:1005500021F0004514464FF0000A23F0004150EA14
:10056000050220D054EA01021DD0C5F30A57024605
:10057000C5F31303C1F31300C1F30A5640F4801509
:1005800043F48013A7EB0608101BD64608F2FD388B
:1005900073EB050002D308F1010801E092185B41FA
:1005A000B8F1000F03DA00200146BDE8F08D00200D
:1005B0004FF48011064684460EE0171B73EB0507C7
:1005C00005D3121B63EB050306434CEA010C4908F3
:1005D0004FEA300092185B4150EA0107EDD152EA30
:1005E000030012D082EA040083EA0501084303D124
:1005F00000224FF0004308E0101BAB4102D2012261
:10060000002302E06FF0010253101AEB06004CEBDE
:10061000085110EB0A0041EB0B01BDE8F04D00F072
:10062000E4B80EB5C10F80EAE0700844CA070021A3
:1006300040F233438DE80E000A460B4600F0E2F824
:1006400003B000BD0EB540F2334102910021CDE967
:1006500000110A460B4600F0D5F803B000BD70B596
:10066000C1F30A5201F000450024C1F3130140F226
:10067000FF3341F480119A4201DA002070BD40F24C
:1006800033439A42A2F2334203DC524200F053F861
:1006900000E090402C43F1D0404270BD30B50029BD
:1006A00004DB4FF00044404264EB0101002B04DB0B
:1006B0004FF00044524264EB03038B4208BF824276
:1006C00030BD000030B5002904DB4FF0004440424B
:1006D00064EB0101002B04DB4FF00044524264EB59
:1006E0000303994208BF904230BD000030B50B466D
:1006F000014600202022012409E021FA02F59D4252
:1007000005D303FA02F5491B04FA02F52844151E25
:10071000A2F10102F1DC30BD202A04DB203A00FA0C
:1007200002F1002070479140C2F1200320FA03F348
:10073000194390407047202A04DB203A21FA02F046
:100740000021704721FA02F3D040C2F1200291400B
:10075000084319467047202A06DBCB17203A41FA96
:1007600002F043EAE07306E041FA02F3D040C2F13E
:10077000200291400843194670472DE9F047914601
:100780000F4680460446002614F8015B2DB100F0A8
:10079000CDF80068405DC007F6D12B2D02D02D2D7D
:1007A00018D0641E4A463946204600F0C3F827B1E7
:1007B0003968A14201D1C7F8008071054FF00204E9
:1007C0000BD54042002803DD09F070F80460A00753
:1007D000BDE8F08746F48066E4E70028F8DA09F01F
:1007E00065F804606FF00040F2E710B5002B08DAFE
:1007F000401C41F1000192185B411A4301D120F0E5
:10080000010010BD2DE9F04D92469B4611B1B1FAA1
:1008100081F202E0B0FA80F220329046FFF77CFFCE
:1008200004460F4640EA0A0041EA0B0153465A4685
:10083000084303D120463946BDE8F08D114653EAFE
:10084000010015D0C8F140025046FFF774FF05467D
:100850000E46504659464246FFF75EFF084301D018
:10086000012000E00020054346EAE0762C433743B0
:100870000A984FEA4453A0EB08004FEAD4240A3008
:100880004FF0000244EA47544FEAD72502D5002032
:100890000146D1E7010510196941DDE90845001954
:1008A0006941BDE8F04DA0E770B521F00043034376
:1008B0000CD0C1F30A550024D5EB040564EB040306
:1008C000D617AD1AB34102DB0020014670BD2018D7
:1008D00041EB025170BDC1F30A52C1F3130140F262
:1008E000FF3341F480119A4202DA0020014670473A
:1008F00040F233439A42A2F2334202DC5242FFF703
:100900001ABFFFF709BF0000064C074D06E0E0687C
:1009100040F0010394E8070098471034AC42F6D346
:10092000FFF70AFCF0D0000810D10008004870471B
:10093000ECD000082DE9F05F8246007800271546CC
:100940008B460AF10104B946302801D09DB113E06D
:1009500014F8010B0127782803D0582801D045B19D
:100960000AE00DB1102D07D10027102514F8010B56
:1009700002E0082500E00A250026B0460EE005FB4F
:10098000080005FB06F1012701EB10461FFA80F86D
:10099000B6F5803F00D3B94614F8010B294600F0A4
:1009A00069F80028EBDABBF1000F05D00FB1641E27
:1009B00000E05446CBF80040B9F1000F06D008F033
:1009C00075FF02210160C81EBDE8F09F48EA06409D
:1009D000FAE72DE9F04D00231A461B1A8A4103DB82
:1009E00000200146BDE8F08DC1F30A52C1F31301A6
:1009F00041F480154FF0000BD10702D100186D4172
:100A0000521E0027044640F2FF11384601EB620AED
:100A10003E468046024600204FF48011FFF78BFED1
:100A2000C2197141BB1846EB0100B4EB030C75EB26
:100A3000000C04D3E41A65EB000517460E46241992
:100A400008F101006D4180463428E3DDF91946EBD9
:100A50000600091BA84103D24FF0FF32134601E004
:100A6000002213461BEB070046EB0A51BDE8F04D90
:100A7000FFF7BBBE3A2800D2303820F02002412ACE
:100A800001D3A2F13700884201D34FF0FF30704705
:100A900030B58C1810F8012B12F00F0301D110F8AB
:100AA000013B120906D110F8012B03E010F8015B9D
:100AB00001F8015B5B1EF9D101E001F8013B521E18
:100AC000FBD1A142E6D3002030BD000072B64EF645
:100AD0002250CEF2000040F2FF01C0F2000101708E
:100AE00040F21C10C2F20000016881F3088840F255
:100AF000B600C2F2000040F2B701C2F200010A786B
:100B0000027040F21415C2F2000540F21811C2F250
:100B100000010A682A60106880F30988EFF31480E6
:100B200040F0020080F31488BFF36F8FBDE8F00F30
:100B30000FBCBDE8005006BC62B6084772B6EFF3C2
:100B4000098020E9F00F40F21415C2F200052E686A
:100B50003060744603F080FC40F2B600C2F2000040
:100B600040F2B701C2F200010A78027040F2181197
:100B7000C2F200010A682A6044F0040E1068B0E86E
:100B8000F00F80F3098862B67047000008B50121B4
:100B90001C2006F091F810208DF8030003208DF83A
:100BA00002004020ADF800006946144800F084FDC2
:100BB0004FF48070ADF800006946114800F07CFDEC
:100BC00004208DF8030003208DF802002020ADF8EA
:100BD00000006946094800F06FFD84210948FFF7CD
:100BE0002DFB094800F08FFE4FF48070044910314E
:100BF0000860402001491431086008BD000C014024
:100C000000080140202C00208074002010B541F223
:100C10008831132009F004FC0020044981F82300E6
:100C200081F8240081F8260010BD0000202C00204F
:100C3000014621B14FF48070044A106004E04FF483
:100C40008070024A121D1060002070471008014099
:100C500070B5ADF5816D05460C46164602208DF83F
:100C600001028DF802628194B4F5007F03DD00205B
:100C70000DF5816D70BD4FF4007182A8FFF7DEFAAB
:100C8000294682A8819AFFF7C0FA4FF4FE7283A921
:100C90006846FFF7BAFA034880A90EC900F008FEBB
:100CA0000120E5E7807400200120704710B504465C
:100CB000002C38D0FFF7F8FF20B10020364908702B
:100CC000012010BD3448007858B9402033490860ED
:100CD0004FF4FA61122009F0A3FB01202E4908709D
:100CE0001FE02D480078012810D1122009F0ACFA3D
:100CF000B8B140202949091D086040F6B8311220DA
:100D000009F08EFB0220244908700AE0224800788E
:100D1000022806D1122009F097FA10B100201E49CE
:100D20000870FF20CDE7FFF7BFFF18B900201A4970
:100D30000870C6E71848007858B94020174908607D
:100D40004FF47A61122009F06BFB01201249087000
:100D50001FE011480078012810D1122009F074FA20
:100D6000B8B140200D49091D086040F6B831122085
:100D700009F056FB0220084908700AE0064800788E
:100D8000022806D1122009F05FFA10B100200249B2
:100D90000870FF2095E7000020000020100C0140A3
:100DA00010B50024364890F8280060B90120FFF7FC
:100DB0003FFF0120324981F828004FF4FA611220E8
:100DC00009F02EFB5BE02E4890F8280001280CD19A
:100DD000122009F039FA002851D0122009F054FBF2
:100DE0000220274981F8280049E0254890F828008A
:100DF000022813D10120FFF759FF0446012C3ED1F0
:100E000003201F4981F82800084690F8270050BBAE
:100E1000012081F82700FFF7F9FE30E0184890F82C
:100E2000280003280ED1164890F8270028B1FFF7B4
:100E30003BFF10B106F08EFF21E00420104981F83D
:100E400028001CE00E4890F8280004280CD100204F
:100E5000FFF7EEFE4FF4FA61122009F0E1FA0520E7
:100E6000074981F828000AE0122009F0EDF930B1B5
:100E7000122009F009FB0020014981F8280010BD6B
:100E8000202C002030B58BB004460D460120ADF873
:100E90001000ADF81240ADF81450ADF8160009F08E
:100EA0000FFA06904FF47A70079009F009FA08904B
:100EB00041F2883009904FF6FF70ADF8280000200D
:100EC000ADF82A0007A80FC88DE80F00034804A951
:100ED0000EC906F0C5FE0BB030BD0000484E002024
:100EE0007047000000B58BB00AA8032100220592CC
:100EF000CDE90621089010464FF4007133221F4BB4
:100F0000CDE90132CDE90310042000231C4A1DA1C4
:100F100000901F4803F06CF80AA8032100220592F4
:100F2000CDE90621089010464FF480616622194BE6
:100F3000CDE90132CDE9031003200023164A17A1A1
:100F400000901B4803F054F80AA8032100220592E0
:100F5000CDE90621089010464FF400713322154B5D
:100F6000CDE90132CDE9031005200023124A13A177
:100F70000090164803F03CF80BB000BD681B002041
:100F80004D100008417070205461736B205549006A
:100F9000B01A0020F8010020EB0F0008417070200B
:100FA0005461736B2053494D3830304300000000CA
:100FB0004001002020240020D10F00084170702043
:100FC0005461736B204D4943530000006823002097
:100FD0000AE008F037FA04F0F5FC00F0FBFD02F03F
:100FE000A5FA012000F0BEF8F3E704E0FFF7D8FE11
:100FF000642000F0B7F8F9E7002400BF00BFFFF756
:10100000B7F8044600BF00F085F900BF00F0FEF815
:1010100000F0C8F800F020F809F071F900F0AEFD1A
:1010200000F062F9FFF75EFFFFF75AFF00BF00F024
:101030008BF900BF2046FFF79FF800BF00BF04E018
:1010400005F082FC0A2000F08DF8F9E702E00A20A2
:1010500000F088F8FBE7704710B5002400BF00BF20
:10106000FFF786F8044600BF00F054F900BF0F48B0
:101070000F4908600F48104908601048104908607F
:101080001048114908601148114908601148124977
:10109000086012481249086000BF00F055F900BF0F
:1010A0002046FFF769F800BF00BF10BD57100008C9
:1010B00090000020E510000894000020E7100008D0
:1010C00084000020E910000888000020EB100008D0
:1010D0008C000020ED10000898000020EF100008A0
:1010E0009C0000207047704770477047704710B5EC
:1010F00006F0EEFD10BD0146302905DB392903DC81
:10110000A1F13000C0B27047612901D0412901D15D
:101110000A20F8E7622901D0422901D10B20F2E729
:10112000632901D0432901D10C20ECE7642901D0C7
:10113000442901D10D20E6E7652901D0452901D1D7
:101140000E20E0E7662901D0462901D10F20DAE719
:101150001020D8E700B585B0684605F0BDFD0198C0
:1011600005B000BDFEB5044642F21070844200D9BD
:101170000446B4F57A7F09D34FF47A70B4FBF0F1EA
:1011800000FB1145B4FBF0F086B201E025460026D5
:1011900002A800212B463246CDE90010084603F094
:1011A000F7F9FEBD2DE9F041FFF7D4FF05461348DE
:1011B0000068B5FBF0F42146B1F1807F00D31BE05D
:1011C00021F07F40401E4FF0E022506150170F2267
:1011D000002806DA13010A4E00F00F073F1FF355EF
:1011E00002E01601074B1E5400BF00204FF0E02222
:1011F00090610720106100BFBDE8F08128CE000893
:1012000018ED00E000E400E000BFFEE710B500F0DC
:10121000E5F800F003F800F0DDF810BD70B5002629
:1012200000201849088018490880184908601849A2
:1012300008601849086018490860184908600024C7
:1012400000BFFEF795FF064600BF00250BE000201B
:101250001049086000F05EF800F076F80D4800686C
:101260000444681C85B2002DF1D00C4804600020B5
:10127000084908600849086000BF3046FEF77CFF57
:1012800000BF70BD680000206A0000206C000020D4
:1012900070000020780000207C00002074000020F6
:1012A00001460846044A1268904203D9024A12686D
:1012B000801A00E0002070477400002070B50025FF
:1012C00000BFFEF755FF054600BF0648046800BF93
:1012D0002846FEF751FF00BF2046FFF7E1FF064614
:1012E000304670BD7800002070B50025FFF7E6FF9E
:1012F000044600BFFEF73CFF054600BF002004493E
:10130000086000BF2846FEF737FF00BF204670BDCB
:101310007800002010B509480088401C0749088063
:101320000748008818B900F083F8064908600448A7
:101330000088401C0249088010BD000068000020A1
:101340006A0000206C00002010B50F480088401E85
:101350000D49088008460088A0B900F069F80B49DB
:101360000860084600680A490968441A0948006884
:10137000A04201D20748046007480068A04201D299
:101380000548046010BD00006A00002070000020C5
:101390006C000020780000207C00002010B50024A4
:1013A00000BF00BFFEF7E4FE044600BFFFF7B2FF38
:1013B00000BF1021064802F00FF900BFFFF7C4FF7D
:1013C00000BF2046FEF7D8FE00BF00BF10BD0000E2
:1013D000D85B002010B5FFF7E1FF10BD10B500206D
:1013E0000249086000F00AF810BD00006400002007
:1013F00001490860704700006400002010B5FFF745
:10140000A9FE04460848006840F08070064908605C
:101410000020064948600846006840F00100086066
:101420002046FFF7E5FF10BDFCED00E0001000E0F6
:101430000149486870470000001000E0014609B902
:1014400009487047012901D10848FAE7022901D16A
:101450000020F6E7032901D10020F2E7042901D199
:101460000020EEE70020ECE790520020BC56002060
:1014700008B525208DF8000000208DF8020001201D
:101480008DF80300684602F0DBF826208DF8000096
:1014900001208DF802008DF80300684602F0D0F8B4
:1014A00008BD70B504460D464FF4B060005908B948
:1014B000002070BD4FF4AF600059C0EBC00004EBDA
:1014C00080011C222846FEF7A0FE4FF4AF600059B1
:1014D000401C322190FBF1F201FB12014FF4AF608E
:1014E00001514FF4B0600059401E4FF4B0610851F3
:1014F0000120DEE770470FB410B504464FF4B0602A
:101500000059322803D1002010BC5DF814FB40F2D2
:101510007C510959C1EBC10104EB81001C2203A9D4
:10152000FEF773FE40F27C500059401C322190FBC4
:10153000F1F201FB120140F27C500151001D0059F3
:10154000401C4FF4B06108510120DDE70149C8603B
:10155000704700000020024030B5044604254FF4D7
:10156000302000F06FF80546042D17D10C480069B3
:1015700040F002000A49086108464461006940F0F1
:10158000400008614FF4302000F05CF80546044844
:10159000006941F6FD71084001490861284630BDE7
:1015A0000020024004200B49C96811F0010F01D04E
:1015B00001200EE00749C96811F0040F01D0022094
:1015C00007E00449C96811F0100F01D0032000E0C2
:1015D00004207047002002400348006940F080006A
:1015E00001490861704700000020024070B50446C0
:1015F0000D460426F00200F025F80646042E11D10F
:101600000948006940F00100074908612580F0029F
:1016100000F018F806460448006941F6FE710840DB
:1016200001490861304670BD00200240024803496C
:101630004860034848607047230167450020024026
:10164000AB89EFCD00B502460423FFF7ABFF03469D
:1016500003E0FFF7A7FF0346521E012B01D1002A2A
:10166000F7D102B90523184600BD000070B5044645
:101670000D460F21002009F00DFB06460F213046D4
:10168000FEF7DCFD08A12846FEF7E3FD0F22214608
:101690003046FEF7FCFD31462846FEF7DAFD3146BE
:1016A000002009F0D1FA70BD6131444E6C51774889
:1016B00054303726646E3D002DE9F0410246002586
:1016C0000026002000230024002791F803C00CF01E
:1016D0000F0591F803C01CF0100F03D091F802C061
:1016E0004CEA050591F800C0BCF1000F31D0146838
:1016F00000202BE04FF0010C0CFA00F3B1F800C011
:101700000CEA03069E4220D183004FF00F0C0CFA26
:1017100003F7BC4305FA03FC4CEA040491F803C048
:10172000BCF1280F06D14FF0010C0CFA00FCC2F8F6
:1017300014C00AE091F803C0BCF1480F05D14FF086
:10174000010C0CFA00FCC2F810C0401C0828D1D3D0
:101750001460B1F800C0BCF1FF0F34DD5468002004
:101760002EE000F1080C4FF0010808FA0CF3B1F874
:1017700000C00CEA03069E4221D183004FF00F0CFB
:101780000CFA03F7BC4305FA03FC4CEA040491F895
:1017900003C0BCF1280F05D100F1080C08FA0CF8C1
:1017A000C2F8148091F803C0BCF1480F07D100F1D2
:1017B000080C4FF0010808FA0CF8C2F81080401C21
:1017C0000828CED35460BDE8F0810000F0B50A4689
:1017D000002300240021002500F00046B6F1004F50
:1017E00002D11D4EF16901E01B4E7168C0F3034543
:1017F00083B200F44016B6F5401F08D121F07061A5
:10180000154E766826F07066134F7E6012E000F485
:101810008016B6F5801F06D1032606FA05F4A1430B
:1018200041F0706106E0460D360103FA06F6B14359
:1018300041F0706122B1460D360103FA06F63143DC
:1018400000F00046B6F1004F02D1034EF16101E015
:10185000014E7160F0BD00000000014070B504460B
:101860000D4642F6A800205808B9002070BD42F687
:10187000A000205800EB801004EBC0014FF402726E
:101880002846FEF7C2FC42F6A0002058401C142156
:1018900090FBF1F201FB120042F6A001605042F60B
:1018A000A8002058401E42F6A80160500120DDE744
:1018B0000FB410B5044642F6A8002058142803D1EE
:1018C000002010BC5DF814FB42F6A401615801EB46
:1018D000811104EBC1004FF4027203A9FEF795FCDD
:1018E00042F6A4002058401C142190FBF1F201FBA9
:1018F000120042F6A4016050081D2058401C091D2A
:1019000060500120DDE70146002042F6A002885029
:10191000121D8850121D885001207047014642F662
:10192000A800085808B9012070470020FCE770B5EE
:1019300004460D464FF4B060005908B9002070BD50
:101940004FF4AF600059C0EBC00004EB80011C22D3
:101950002846FEF75AFC0120F1E700001FB507A357
:101960000FCB8DE80F006846FEF7A7FC84B200227B
:1019700021466846FFF76CF91FBD00007272706364
:101980002C67657469636369640D0A001FB507A35A
:101990000FCB8DE80F006846FEF78FFC84B2002263
:1019A00021466846FFF754F91FBD0000727270634C
:1019B0002C676574696D65690D0A00001FB507A382
:1019C0000FCB8DE80F006846FEF777FC84B200224B
:1019D00021466846FFF73CF91FBD00007272706334
:1019E0002C67657474696D650D0A000009A10020FB
:1019F0000BE00A5C124B1A8000BF114A121F1288BA
:101A000012F0400FF9D0421CD0B22A28F1D300BF07
:101A1000FEE700000D0A456E74657220486172642D
:101A20004661756C745F48616E646C65722C2053FE
:101A3000797374656D2048616C742E0D0A00000086
:101A40000438014000B585B00121052005F034F9C6
:101A50000121880305F030F94FF40070ADF8100053
:101A600018208DF8130003208DF8120004A93A48BD
:101A7000FFF722FE4FF48060ADF8100004208DF8CF
:101A8000130004A93448FFF717FE4FF416500090D6
:101A90000020ADF80400ADF80600ADF80800ADF880
:101AA0000C000C20ADF80A0069462C4807F054FCE5
:101AB000012240F22551294807F029FC012127483D
:101AC00007F0EFFB4021254807F0E2FB012105204C
:101AD00005F0F2F80121480405F0DEF80420ADF825
:101AE000100018208DF8130003208DF8120004A9AF
:101AF0001948FFF7E1FD0820ADF8100004208DF82B
:101B0000130004A91448FFF7D7FD04A91248FFF7F2
:101B1000D3FD4FF4E13000900020ADF80400ADF8A3
:101B20000600ADF80800ADF80C000C20ADF80A0076
:101B300069460B4807F010FC012240F22551084885
:101B400007F0E5FB0121064807F0ABFB4021044804
:101B500007F09EFB05B000BD0008014000380140C1
:101B600000440040014600224FF4AF604250001D87
:101B70004250001D425001207047000010B5002067
:101B800008F0CCFF002001F0F3FC01200949887522
:101B900006F0AAFB4FF4877407E0074830F81410EA
:101BA000064820F81410601C84B2B4F5E77FF4DB1B
:101BB00010BD0000202C0020D83B002084420020D3
:101BC00001464FF4B060405808B90120704700202A
:101BD000FCE7000000B589B000200790FE4890F8AF
:101BE0006A000D2881F08784DFE810F0850C0D0075
:101BF000CA00B0010503EC0345052C0685076C08F7
:101C0000C009860A440B08F005FD069008F002FDA5
:101C10000590F248B0F888020A2190FBF1F001909B
:101C2000FEF7FFFCCDE9020108F0E2FC0246ECA160
:101C30000490059808F0C4FCE848B0F88A020A212C
:101C400090FBF1F00190FEF7ECFCCDE9020108F009
:101C5000CFFC0246E4A10490059808F0B1FCDF48EF
:101C6000B0F810030190FEF7EDFCCDE9020108F099
:101C7000BFFC0246DEA10490059808F0A1FCD748FD
:101C8000B0F812030190FEF7DDFCCDE9020108F087
:101C9000AFFC0246D8A10490059808F091FCCF480B
:101CA000B0F81E030190FEF7CDFCCDE9020108F06B
:101CB0009FFC0246D2A10490059808F081FCC74819
:101CC000B0F820030190FEF7BDFCCDE9020108F059
:101CD0008FFC0246CCA10490059808F071FCBF4827
:101CE000B0F822030190FEF7ADFCCDE9020108F047
:101CF0007FFC0246C6A10490059808F061FCB74835
:101D0000B0F824030190FEF79DFCCDE9020108F034
:101D10006FFC0246C0A10490059808F051FCAF4842
:101D2000B0F826030190FEF78DFCCDE9020108F022
:101D30005FFC0246BAA10490059808F041FCBAA1E4
:101D4000DDE9052008F03CFC069808F0F3FC07905C
:101D50000798FEF7B2FA80B2002201460490079875
:101D6000FEF776FF069808F05FFC00209A4981F89C
:101D70006A00079810B1079808F00AFE01F0BCBB92
:101D800008F048FC069008F045FC05909348B0F830
:101D900028030190FEF756FCCDE9020108F028FC6B
:101DA0000246A3A10490059808F00AFC8B48B0F8FD
:101DB0002A030190FEF746FCCDE9020108F018FC69
:101DC00002469DA10490059808F0FAFB8348B0F8FC
:101DD0002C030190FEF736FCCDE9020108F008FC67
:101DE000024697A10490059808F0EAFB7B48B0F8FA
:101DF0002E030190FEF726FCCDE9020108F0F8FB66
:101E0000024691A10490059808F0DAFB7348B0F8F7
:101E100030030190FEF716FCCDE9020108F0E8FB63
:101E200002468BA10490059808F0CAFB6B48B0F8F5
:101E300032030190FEF706FCCDE9020108F0D8FB61
:101E4000024685A10490059808F0BAFB6348B0F8F3
:101E500034030190FEF7F6FBCDE9020108F0C8FB60
:101E600002467FA10490059808F0AAFB5B48B0F8F1
:101E700036030190FEF7E6FBCDE9020108F0B8FB5E
:101E8000024679A10490059808F09AFB5348B0F8EF
:101E900038030190FEF7D6FBCDE9020108F0A8FB5C
:101EA000024673A10490059808F08AFB4B48B0F8ED
:101EB0003A030190FEF7C6FBCDE9020108F098FB5A
:101EC00002466DA10490059808F07AFB4348B0F8EB
:101ED0003C030190FEF7B6FBCDE9020108F088FB58
:101EE000024667A10490059808F06AFB3B48B0F8E9
:101EF0003E030190FEF7A6FBCDE9020108F078FB56
:101F0000024661A10490059808F05AFB46A1DDE95C
:101F1000052008F055FB069808F00CFC0790079880
:101F2000FEF7CBF980B20022014604900798FEF735
:101F30008FFE069808F078FB0020274981F86A0098
:101F4000079810B1079808F023FD17E708F062FB27
:101F5000069008F05FFB05902048B0F84003019020
:101F6000FEF770FBCDE9020108F042FB024648A1F2
:101F70000490059808F024FB1848B0F8420301903B
:101F8000FEF760FBCDE9020108F032FB024642A1F8
:101F90000490059808F014FB1048B0F84403019031
:101FA000FEF750FBCDE9020108F022FB02463CA1FE
:101FB0000490059808F004FB0848B0F84603019027
:101FC000FEF740FBCDE9020108F012FB024636A104
:101FD000049005986CE00000202C00206C3B002051
:101FE00064323730000000006432373100000000F6
:101FF00064333338000000006433333900000000DC
:1020000064333435000000006433343600000000CF
:1020100064333437000000006433343800000000BB
:102020006433343900000000706172616D73000028
:1020300064333530000000006433353100000000A7
:102040006433353200000000643335330000000093
:10205000643335340000000064333535000000007F
:10206000643335360000000064333537000000006B
:102070006433353800000000643335390000000057
:102080006433363000000000643336310000000055
:102090006433363200000000643336330000000041
:1020A000643336340000000064333635000000002D
:1020B00008F086FAFE48B0F848030190FEF7C2FA2D
:1020C000CDE9020108F094FA0246FAA104900598BD
:1020D00008F076FAF648B0F84A030190FEF7B2FA33
:1020E000CDE9020108F084FA0246F4A104900598B3
:1020F00008F066FAEE48B0F84C030190FEF7A2FA39
:10210000CDE9020108F074FA0246EEA104900598A8
:1021100008F056FAE648B0F84E030190FEF792FA3E
:10212000CDE9020108F064FA0246E8A1049005989E
:1021300008F046FADE48B0F850030190FEF782FA44
:10214000CDE9020108F054FA0246E2A10490059894
:1021500008F036FAD648B0F852030190FEF772FA4A
:10216000CDE9020108F044FA0246DCA1049005988A
:1021700008F026FACE48B0F854030190FEF762FA50
:10218000CDE9020108F034FA0246D6A10490059880
:1021900008F016FAC648B0F856030190FEF752FA56
:1021A000CDE9020108F024FA0246D0A10490059876
:1021B00008F006FAAFF29011DDE9052008F000FA08
:1021C000069808F0B7FA07900798FEF776F880B2FD
:1021D0000022014604900798FEF73AFD069808F0A1
:1021E00023FA0020C34981F86A00079810B10798C4
:1021F00008F0CEFBC2E508F00DFA069008F00AFAE6
:102200000590AB48B0F858030190FEF71BFACDE9F2
:10221000020108F0EDF90246B7A10490059808F014
:10222000CFF9A348B0F85A030190FEF70BFACDE9B5
:10223000020108F0DDF90246B1A10490059808F00A
:10224000BFF99B48B0F85C030190FEF7FBF9CDE9BC
:10225000020108F0CDF90246ABA10490059808F000
:10226000AFF99348B0F85E030190FEF7EBF9CDE9C2
:10227000020108F0BDF90246A5A10490059808F0F6
:102280009FF98B48B0F860030190FEF7DBF9CDE9C8
:10229000020108F0ADF902469FA10490059808F0EC
:1022A0008FF98348B0F862030190FEF7CBF9CDE9CE
:1022B000020108F09DF9024699A10490059808F0E2
:1022C0007FF97B48B0F864030190FEF7BBF9CDE9D4
:1022D000020108F08DF9024693A10490059808F0D8
:1022E0006FF97348B0F866030190FEF7ABF9CDE9DA
:1022F000020108F07DF902468DA10490059808F0CE
:102300005FF96B48B0F868030190FEF79BF9CDE9DF
:10231000020108F06DF9024687A10490059808F0C3
:102320004FF96348B0F86A030190FEF78BF9CDE9E5
:10233000020108F05DF9024681A10490059808F0B9
:102340003FF95B48B0F86C030190FEF77BF9CDE9EB
:10235000020108F04DF902467BA10490059808F0AF
:102360002FF95348B0F86E030190FEF76BF9CDE9F1
:10237000020108F03DF9024675A10490059808F0A5
:102380001FF9AFF25C31DDE9052008F019F9069874
:1023900008F0D0F907900798FDF78FFF80B2002270
:1023A000014604900798FEF753FC069808F03CF9A4
:1023B0000020504981F86A00079810B1079808F08A
:1023C000E7FADBE408F026F9069008F023F9059017
:1023D0003748B0F870030190FEF734F9CDE90201F7
:1023E00008F006F902465CA10490059808F0E8F8A8
:1023F0002F48B0F872030190FEF724F9CDE90201ED
:1024000008F0F6F8024656A10490059808F0D8F8AE
:102410002748B0F874030190FEF714F9CDE90201E2
:1024200008F0E6F8024650A10490059808F0C8F8B4
:102430001F48B0F876030190FEF704F9CDE90201D8
:1024400008F0D6F802464AA10490059808F0B8F8BA
:102450001748B0F878030190FEF7F4F8CDE90201CF
:1024600008F0C6F8024644A10490059808F0A8F8C0
:102470000F48B0F87A030190FEF7E4F8CDE90201C5
:1024800008F0B6F802463EA10490059808F098F8C6
:102490000748B0F87C030190FEF7D4F8CDE90201BB
:1024A00008F0A6F8024638A10490059870E00000F4
:1024B0006C3B00206433363600000000643336374E
:1024C0000000000064333638000000006433363901
:1024D00000000000643337300000000064333731FF
:1024E00000000000643337320000000064333733EB
:1024F00000000000202C002064333734000000006E
:1025000064333735000000006433373600000000C4
:1025100064333737000000006433373800000000B0
:1025200064333739000000006433383000000000A5
:10253000643338310000000064333832000000009A
:102540006433383300000000643338340000000086
:102550006433383500000000643338360000000072
:10256000643338370000000064333838000000005E
:102570006433383900000000643339300000000053
:102580006433393100000000643339320000000048
:1025900008F016F8FE48B0F87E030190FEF752F8F6
:1025A000CDE9020108F024F80246FAA1049005984A
:1025B00008F006F8F648B0F880030190FEF742F8FC
:1025C000CDE9020108F014F80246F4A10490059840
:1025D00007F0F6FFEE48B0F882030190FEF732F8FC
:1025E000CDE9020108F004F80246EEA10490059836
:1025F00007F0E6FFE648B0F884030190FEF722F802
:10260000CDE9020107F0F4FF0246E8A10490059825
:1026100007F0D6FFDE48B0F886030190FEF712F807
:10262000CDE9020107F0E4FF0246E2A1049005981B
:1026300007F0C6FFAFF21061DDE9052007F0C0FF2B
:10264000069808F077F807900798FDF736FE80B2F5
:102650000022014604900798FEF7FAFA069807F060
:10266000E3FF0020D54981F86A00079810B1079868
:1026700008F08EF969E407F0CDFF069007F0CAFF75
:102680000590C348B0F888030190FDF7DBFFCDE962
:10269000020107F0ADFF0246C9A10490059807F0BA
:1026A0008FFFBB48B0F88A030190FDF7CBFFCDE95F
:1026B000020107F09DFF0246C3A10490059807F0B0
:1026C0007FFFB348B0F88C030190FDF7BBFFCDE965
:1026D000020107F08DFF0246BDA10490059807F0A6
:1026E0006FFFAB48B0F88E030190FDF7ABFFCDE96B
:1026F000020107F07DFF0246B7A10490059807F09C
:102700005FFFA348B0F890030190FDF79BFFCDE970
:10271000020107F06DFF0246B1A10490059807F091
:102720004FFF9B48B0F892030190FDF78BFFCDE976
:10273000020107F05DFF0246ABA10490059807F087
:102740003FFF9348B0F894030190FDF77BFFCDE97C
:10275000020107F04DFF0246A5A10490059807F07D
:102760002FFF8B48B0F896030190FDF76BFFCDE982
:10277000020107F03DFF02469FA10490059807F073
:102780001FFF8348B0F898030190FDF75BFFCDE988
:10279000020107F02DFF024699A10490059807F069
:1027A0000FFF7B48B0F89A030190FDF74BFFCDE98E
:1027B000020107F01DFF024693A10490059807F05F
:1027C000FFFE7348B0F89C030190FDF73BFFCDE995
:1027D000020107F00DFF02468DA10490059807F055
:1027E000EFFE6B48B0F89E030190FDF72BFFCDE99B
:1027F000020107F0FDFE024687A10490059807F04C
:10280000DFFEAFF2DC71DDE9052007F0D9FE0698A6
:1028100007F090FF07900798FDF74FFD80B2002268
:10282000014604900798FEF713FA069807F0FCFE9D
:102830000020624981F86A00079810B1079808F0F3
:10284000A7F8D7E407F0E6FE069007F0E3FE059050
:102850004F48B0F8A0030190FDF7F4FECDE9020166
:1028600007F0C6FE02466EA10490059807F0A8FE88
:102870004748B0F8A2030190FDF7E4FECDE902015C
:1028800007F0B6FE024668A10490059807F098FE8E
:102890003F48B0F8A4030190FDF7D4FECDE9020152
:1028A00007F0A6FE024662A10490059807F088FE94
:1028B0003748B0F8A6030190FDF7C4FECDE9020148
:1028C00007F096FE02465CA10490059807F078FE9A
:1028D0002F48B0F8A8030190FDF7B4FECDE902013E
:1028E00007F086FE024656A10490059807F068FEA0
:1028F0002748B0F8AA030190FDF7A4FECDE9020134
:1029000007F076FE024650A10490059807F058FEA5
:102910001F48B0F8AC030190FDF794FECDE9020129
:1029200007F066FE02464AA10490059807F048FEAB
:102930001748B0F8AE030190FDF784FECDE902011F
:1029400007F056FE024644A10490059807F038FEB1
:102950000F48B0F8B0030190FDF774FECDE9020115
:1029600007F046FE02463EA10490059807F028FEB7
:102970000748B0F8B2030190FDF764FECDE902010B
:1029800007F036FE024638A10490059870E000007A
:102990006C3B002064333933000000006433393469
:1029A000000000006433393500000000643339361C
:1029B000000000006433393700000000202C0020A4
:1029C00064333938000000006433393900000000F6
:1029D0006434303000000000643430310000000006
:1029E00064343032000000006434303300000000F2
:1029F00064343034000000006434303500000000DE
:102A000064343036000000006434303700000000C9
:102A100064343038000000006434303900000000B5
:102A200064343130000000006434313100000000B3
:102A3000643431320000000064343133000000009F
:102A4000643431340000000064343135000000008B
:102A50006434313600000000643431370000000077
:102A60006434313800000000643431390000000063
:102A700007F0A6FDFE48B0F8B4030190FDF7E2FDB3
:102A8000CDE9020107F0B4FD0246FAA104900598D1
:102A900007F096FDF648B0F8B6030190FDF7D2FDB9
:102AA000CDE9020107F0A4FD0246F4A104900598C7
:102AB00007F086FDAFF69021DDE9052007F080FDE7
:102AC000069807F037FE07900798FDF7F6FB80B2EF
:102AD0000022014604900798FEF7BAF8069807F01E
:102AE000A3FD0020E74981F86A00079810B1079814
:102AF00007F04EFF65E407F08DFD069007F08AFDB4
:102B00000590DB48B0F8B8030190FDF79BFDCDE9D7
:102B1000020107F06DFD0246DBA10490059807F065
:102B20004FFDD348B0F8BA030190FDF78BFDCDE916
:102B3000020107F05DFD0246D5A10490059807F05B
:102B40003FFDCB48B0F8BC030190FDF77BFDCDE91C
:102B5000020107F04DFD0246CFA10490059807F051
:102B60002FFDC348B0F8BE030190FDF76BFDCDE922
:102B7000020107F03DFD0246C9A10490059807F047
:102B80001FFDBB48B0F8C0030190FDF75BFDCDE928
:102B9000020107F02DFD0246C3A10490059807F03D
:102BA0000FFDB348B0F8C2030190FDF74BFDCDE92E
:102BB000020107F01DFD0246BDA10490059807F033
:102BC000FFFCAB48B0F8C4030190FDF73BFDCDE935
:102BD000020107F00DFD0246B7A10490059807F029
:102BE000EFFCA348B0F8C6030190FDF72BFDCDE93B
:102BF000020107F0FDFC0246B1A10490059807F020
:102C0000DFFC9B48B0F8C8030190FDF71BFDCDE940
:102C1000020107F0EDFC0246ABA10490059807F015
:102C2000CFFC9348B0F8CA030190FDF70BFDCDE946
:102C3000020107F0DDFC0246A5A10490059807F00B
:102C4000BFFC8B48B0F8CC030190FDF7FBFCCDE94D
:102C5000020107F0CDFC02469FA10490059807F001
:102C6000AFFC8348B0F8CE030190FDF7EBFCCDE953
:102C7000020107F0BDFC024699A10490059807F0F7
:102C80009FFCAFF65C41DDE9052007F099FC069852
:102C900007F050FD07900798FDF70FFB80B2002268
:102CA000014604900798FDF7D3FF069807F0BCFC97
:102CB0000020744981F86A00079810B1079807F05E
:102CC00067FED7E407F0A6FC069007F0A3FC05908A
:102CD0006748B0F8D0030190FDF7B4FCCDE90201DC
:102CE00007F086FC024680A10490059807F068FC76
:102CF0005F48B0F8D2030190FDF7A4FCCDE90201D2
:102D000007F076FC02467AA10490059807F058FC7B
:102D10005748B0F8D4030190FDF794FCCDE90201C7
:102D200007F066FC024674A10490059807F048FC81
:102D30004F48B0F8D6030190FDF784FCCDE90201BD
:102D400007F056FC02466EA10490059807F038FC87
:102D50004748B0F8D8030190FDF774FCCDE90201B3
:102D600007F046FC024668A10490059807F028FC8D
:102D70003F48B0F8DA030190FDF764FCCDE90201A9
:102D800007F036FC024662A10490059807F018FC93
:102D90003748B0F8DC030190FDF754FCCDE902019F
:102DA00007F026FC02465CA10490059807F008FC99
:102DB0002F48B0F8DE030190FDF744FCCDE9020195
:102DC00007F016FC024656A10490059807F0F8FBA0
:102DD0002748B0F8E0030190FDF734FCCDE902018B
:102DE00007F006FC024650A10490059807F0E8FBA6
:102DF0001F48B0F8E2030190FDF724FCCDE9020181
:102E000007F0F6FB02464AA10490059807F0D8FBAC
:102E10001748B0F8E4030190FDF714FCCDE9020176
:102E200007F0E6FB024644A10490059807F0C8FBB2
:102E30000F48B0F8E6030190FDF704FCCDE902016C
:102E400007F0D6FB02463EA10490059807F0B8FBB8
:102E5000AFF62C61DDE9052007F0B2FB069807F01C
:102E600069FC07900798FDF728FA80B200226BE012
:102E70006C3B002064343230000000006434323196
:102E800000000000202C00206434323200000000DA
:102E90006434323300000000643432340000000037
:102EA0006434323500000000643432360000000023
:102EB000643432370000000064343238000000000F
:102EC0006434323900000000643433300000000004
:102ED00064343331000000006434333200000000F9
:102EE00064343333000000006434333400000000E5
:102EF00064343335000000006434333600000000D1
:102F000064343337000000006434333800000000BC
:102F100064343339000000006434343000000000B1
:102F200064343431000000006434343200000000A6
:102F30006434343300000000643434340000000092
:102F40006434343500000000014604900798FDF712
:102F50007FFE069807F068FB0020FE4981F86A00B2
:102F6000079810B1079807F013FDC5E207F052FB70
:102F7000069007F04FFB0590F748B0F8E803019082
:102F8000FDF760FBCDE9020107F032FB0246F3A139
:102F90000490059807F014FBEF48B0F8EA0301909D
:102FA000FDF750FBCDE9020107F022FB0246EDA13F
:102FB0000490059807F004FBE748B0F8EC03019093
:102FC000FDF740FBCDE9020107F012FB0246E7A145
:102FD0000490059807F0F4FADF48B0F8EE0301908A
:102FE000FDF730FBCDE9020107F002FB0246E1A14B
:102FF0000490059807F0E4FAD748B0F8F003019080
:10300000FDF720FBCDE9020107F0F2FA0246DBA151
:103010000490059807F0D4FACF48B0F8F203019075
:10302000FDF710FBCDE9020107F0E2FA0246D5A157
:103030000490059807F0C4FAC748B0F8F40301906B
:10304000FDF700FBCDE9020107F0D2FA0246CFA15D
:103050000490059807F0B4FABF48B0F8F603019061
:10306000FDF7F0FACDE9020107F0C2FA0246C9A164
:103070000490059807F0A4FAB748B0F8040401904A
:10308000FDF7E0FACDE9020107F0B2FA0246C3A16A
:103090000490059807F094FAAF48B0F80604019040
:1030A000FDF7D0FACDE9020107F0A2FA0246BDA170
:1030B0000490059807F084FABC49DDE9052007F083
:1030C0007FFA069807F036FB07900798FDF7F5F8AA
:1030D00080B20022014604900798FDF7B9FD0698DA
:1030E00007F0A2FA00209B4981F86A00079810B106
:1030F000079807F04DFCFFE107F08CFA069007F007
:1031000089FA05909448B0F84C010A2190FBF1F03F
:103110000190FDF786FACDE9020107F069FA02464F
:10312000A3A10490059807F04BFA8B48B0F84E0124
:103130000A2190FBF1F00190FDF773FACDE902014D
:1031400007F056FA02469CA10490059807F038FA59
:103150008148B0F850010A2190FBF1F00190FDF791
:1031600060FACDE9020107F043FA024694A1049007
:10317000059807F025FA7848B0F852010A2190FB2B
:10318000F1F00190FDF74DFACDE9020107F030FAB8
:1031900002468DA10490059807F012FA6E48B0F827
:1031A00060040A2190FBF1F00190FDF73AFACDE9B5
:1031B000020107F01DFA024685A10490059807F068
:1031C000FFF96548B0F862040A2190FBF1F0019024
:1031D000FDF727FACDE9020107F00AFA02467EA1BF
:1031E0000490059807F0ECF95B48B0F8B0040A21A8
:1031F00090FBF1F00190FDF714FACDE9020107F020
:10320000F7F9024676A10490059807F0D9F95248DB
:10321000B0F8B2040A2190FBF1F00190FDF701FA39
:10322000CDE9020107F0E4F902466FA10490059888
:1032300007F0C6F95D49DDE9052007F0C1F90698F8
:1032400007F078FA07900798FDF737F880B2002268
:10325000014604900798FDF7FBFC069807F0E4F997
:1032600000203C4981F86A00079810B1079807F0E0
:103270008FFB41E107F0CEF9069007F0CBF90590FE
:10328000354890F84200C0F300100190FDF7C9F9ED
:10329000CDE9020107F0ACF9024655A1049005986A
:1032A00007F08EF92C4890F84200C0F340100190CE
:1032B000FDF7B7F9CDE9020107F09AF902464EA1F0
:1032C0000490059807F07CF9234890F84200C0F379
:1032D00080100190FDF7A5F9CDE9020107F088F90A
:1032E000024647A10490059807F06AF91A48B0F819
:1032F0004400C0F300200190FDF793F9CDE90201ED
:1033000007F076F9024640A10490059807F058F9B5
:103310001148B0F84400C0F340200190FDF781F956
:10332000CDE9020107F064F9024639A1049005983D
:1033300007F046F90848B0F84400C0F38020019037
:10334000FDF76FF9CDE9020107F052F9024632A10B
:10335000049065E0202C00206C3B0020643434365F
:103360000000000064343437000000006434343856
:10337000000000006434343900000000643435304B
:103380000000000064343531000000006434353240
:10339000000000006434353300000000643436302F
:1033A00000000000643436310000000028200008CE
:1033B000643131320000000064313133000000001C
:1033C0006431313400000000643131350000000008
:1033D00064353036000000006435303700000000EE
:1033E00064353436000000006435343700000000D6
:1033F0006D353030000000006D35303100000000C8
:103400006D353032000000006D35323000000000B4
:103410006D353231000000006D35323200000000A1
:10342000059807F0CDF83648B0F84400C0F3C02046
:103430000190FDF7F6F8CDE9020107F0D9F8024650
:1034400030A10490059807F0BBF82D48B0F844006F
:10345000C0F300300190FDF7E4F8CDE9020107F078
:10346000C7F8024629A10490059807F0A9F8244856
:10347000B0F84400C0F340300190FDF7D2F8CDE938
:10348000020107F0B5F8024622A10490059807F062
:1034900097F81B48B0F84400C0F380300190FDF766
:1034A000C0F8CDE9020107F0A3F802461BA1049081
:1034B000059807F085F81B49DDE9052007F080F83D
:1034C000069807F037F907900798FCF7F6FE80B2E8
:1034D0000022014604900798FDF7BAFB069807F012
:1034E000A3F80020104981F86A00079810B10798E6
:1034F00007F04EFA00E000BF00BF09B000BD0000B9
:103500006C3B00206D353233000000006D353234E5
:10351000000000006D353235000000006D35323698
:103520000000000028200008202C002010B50024F6
:103530000D4890F82700022807D14FF47A710B4804
:10354000006809F021FA044605E096210748006862
:1035500009F01AFA044634B106F0B2FE03490860D5
:10356000012006F02BFF10BD202C002004000020BD
:1035700010B5044690221449144806F02BFF124857
:103580000068122800D174B112200F490860012090
:103590000F490880488078208880002081F86B00DF
:1035A00003F0C8FD0EE008488088094908800648F5
:1035B000C0884880044800898880034890F86F00DC
:1035C00081F86B0010BD00000052002000000108CF
:1035D000202C002000BFFEE730B505460C462246F1
:1035E0000021284600F001F830BD2DE9F0410546E4
:1035F0000B4694460027002402E03F021F43641C50
:10360000042CFAD3604605F00306294646B1344639
:1036100003E001F8013B401E641C08B1042CF8D300
:103620000A4601E080C2001F0428FBD2114602E0D6
:1036300001F8013B401E0028FAD1BDE8F081704737
:1036400070B5002100230F22C4780CB3164C2468F7
:1036500004F4E064C4F5E064210AC1F10403CA4043
:10366000447804FA03F184781440214309010F4C93
:103670000678A155047804F01F050124AC400578B4
:103680006D114FF0E02606EB8505C5F8004109E015
:10369000047804F01F050124AC40054D067876112E
:1036A00045F8264070BD00000CED00E000E400E0AD
:1036B00080E100E002490143024A116070470000C6
:1036C0000000FA050CED00E010B586B0142207A149
:1036D00001A8FCF79AFD01A8FCF7EFFD84B20022D7
:1036E000214601A8FDF7B4FA06B010BD72727063EE
:1036F0002C6E65747374617475730D0A000000009C
:103700007047000010B50348006810B10148006818
:10371000804710BD9000002070B5044600F094F87A
:103720000020314908703149087031490870314929
:1037300008603149086031490870314908703148E2
:10374000056845B13048066803E0761E0020286011
:103750002D1D002EF9D100202C4908602C4908604D
:103760002C4908602C4908602C4908602C490860E5
:103770002C4908602C49087001F0E8FA01F016FBAA
:10378000204601F0FFF8208800B170BD00202749D5
:103790000860274908802749086027490880274989
:1037A000086027490880204601F038FC208800B1D5
:1037B000EBE7204601F0AEF8208800B1E5E72046AF
:1037C00001F080FF208800B1DFE7204601F0DEFF36
:1037D000208800B1D9E700F0BDFFFFF791FF01207D
:1037E0001849087000BFD0E7A4000020AC000020FA
:1037F000BE0000201401002018010020B6000020A7
:10380000B7000020F4CD0008F8CD000884000020A7
:10381000880000208C0000209000002094000020F0
:10382000980000209C000020DA000020B00000205A
:10383000B4000020B8000020BC000020C000002020
:10384000C4000020AD0000200A4A1168002002E0F8
:10385000002204C1401C084A12689042F8D3054A6D
:103860001268054B1B6802EB8302121F034B1A60A0
:1038700070470000F4CD0008F8CD00081C010020BE
:1038800008480078012800D0704707480078FA28D7
:1038900000D3F9E704480078401C0349087000BFD2
:1038A000F2E70000AC000020A400002010B50024C6
:1038B0002D480078012800D010BD00BFFCF758FC4F
:1038C000044600BF2948007828B900BF2046FCF70D
:1038D00053FC00BFF0E725480078401E23490870DC
:1038E0000846007828B100BF2046FCF745FC00BF21
:1038F000E2E71F48007828B100BF2046FCF73CFCF7
:1039000000BFD9E701F016FA1A4908700846007896
:1039100000EB4000184951F820001849086008469B
:10392000006817490968884205D100BF2046FCF7A6
:1039300023FC00BFC0E711480068D0F88400401C99
:103940000E490968C1F884000E480068401C0D4902
:1039500008604FF080500C49086000BF2046FCF71B
:103960000BFC00BF00BFA7E7AC000020A4000020B4
:10397000BE000020B7000020AC6600201801002027
:1039800014010020D000002004ED00E02DE9F041FA
:1039900004460E46154600271948007820B142F625
:1039A000E1602880BDE8F08100BF00BFFCF7E0FBCC
:1039B000074600BFFDF7AEFC00BF124820606660FE
:1039C00000202062606284F82800E06204F10800B0
:1039D00001F0E4F8204601F00BF80B480088401C89
:1039E0000949088000BFFDF7AFFC00BF3846FCF76F
:1039F000C3FB00BF00BF0020288000BFD2E700004B
:103A0000A40000204D555458B40000202DE9F04783
:103A100088B00546884691461C46109E4FF0000A25
:103A20007748007828B146F2AE10308008B0BDE883
:103A3000F08774492868884203D045F6C450308026
:103A4000F4E700BF00BFFCF793FB824600BFFDF721
:103A500061FC00BF95F82800C8B96B48006868622F
:103A6000012085F828000CB1E86A206029466648E4
:103A7000006800F0D5FF00BFFDF766FC00BF5046B0
:103A8000FCF77AFB00BF00BF00203080CEE75E4924
:103A9000686A0968884225D195F82800FF280CD16A
:103AA00000BFFDF751FC00BF5046FCF765FB00BFAF
:103AB00000BF45F284703080B8E795F82800401CBC
:103AC00085F828000CB1E86A206000BFFDF73CFCD7
:103AD00000BF5046FCF750FB00BF00BF45F28270AC
:103AE0003080A3E719F4004F0FD000BFFDF72CFC86
:103AF00000BF5046FCF740FB00BF00BF0CB10020E8
:103B0000206046F2B010308090E74048007878B1ED
:103B100000BFFDF719FC00BF5046FCF72DFB00BFAE
:103B200000BF0CB10020206046F6635030807DE776
:103B30006F6A97F837003449096891F8371088425E
:103B400006DD3148006890F83710384601F0D8F9A2
:103B5000434604222946684600F08AFF00BFFDF76D
:103B6000F3FB00BF5046FCF707FB00BF00BF00F0AF
:103B700017F900BF00BFFCF7FBFA824600BFFDF754
:103B8000C9FB00BF2048006890F8350030B101281B
:103B90000CD002281AD0032821D110E01CB11A48F9
:103BA0000068806C2060002030801CE01CB116484A
:103BB0000068806C206046F2A910308013E00CB1E0
:103BC0000020206047F2D92030800CE01CB10E4864
:103BD0000068806C206045F6C250308003E046F6F5
:103BE0002E60308000BF00BF00BFFDF7ADFB00BFFF
:103BF0005046FCF7C1FA00BF00BF00BF16E7000047
:103C0000A40000204D55545814010020BE0000208F
:103C10002DE9F84F04468A4615464FF0000B5C48E4
:103C2000007820B146F20E202880BDE8F88F59496F
:103C30002068884203D045F6C4502880F5E700BFCD
:103C400000BFFCF795FA834600BFFDF763FB00BF9A
:103C50005149606A096888420CD000BFFDF774FBC7
:103C600000BF5846FCF788FA00BF00BF45F28170DC
:103C70002880DAE7FDF7DCFB804604F12804C4F86D
:103C800004802078A0F10100207014F8280960B1A8
:103C900000BFFDF759FB00BF5846FCF76DFA00BFA7
:103CA00000BF45F283702880BFE721463A4800688C
:103CB00000F0D0FE04F10809D9F8000078B900201E
:103CC000606284F8280000BFFDF73EFB00BF584645
:103CD000FCF752FA00BF00BF00202880A5E72E485D
:103CE000006890F837002C49096891F8381088422C
:103CF00028D02948006800F097FE0646264800684C
:103D000090F83810B14204DA2348006890F838007F
:103D100000E0304606462048006890F83700B04280
:103D200010DA1D48006801F0A7F81B48006880F809
:103D30003760304601F016F81748006801F07EF849
:103D400016480670D9F8000087686762012084F879
:103D500028002146384600F063FE00231A46394603
:103D60002046CDF8008000F08BFF00BFFDF7ECFA95
:103D700000BF5846FCF700FA00BF00BF1AF4004F1E
:103D800001D100F00DF80020288000BF4DE70000B1
:103D9000A40000204D55545814010020B600002006
:103DA00010B500242048007800B110BD1F480078ED
:103DB00000B1FAE700BFFCF7DBF9044600BF00F0F2
:103DC000B9FF1B4908700846007800EB400019490C
:103DD00051F820001849086008460068174909682A
:103DE000884205D100BF2046FCF7C6F900BFDCE7DA
:103DF00011480068D0F88400401C0F490968C1F8D8
:103E000084000F480068401C0D4908604FF0805046
:103E10000C49086000BF2046FCF7AEF900BFBFF3B5
:103E20006F8F00BFC1E70000A4000020BE0000208B
:103E3000B7000020AC66002018010020140100200B
:103E4000D000002004ED00E070B5044600251948BC
:103E5000007818B146F66250208070BD1648007890
:103E6000012803D045F689602080F6E713480078E2
:103E7000FA2803D345F209202080EEE700BF00BFF7
:103E8000FCF776F9054600BFFDF744FA00BF0B4882
:103E90000078401C0949087000BFFDF755FA00BFC3
:103EA0002846FCF769F900BF00BF0020208000BF52
:103EB000D3E70000A4000020AC000020BE000020DA
:103EC00070B5044600252148007818B146F66550C3
:103ED000208070BD1E480078012803D045F6896017
:103EE0002080F6E71B48007818B946F66450208019
:103EF000EFE700BF00BFFCF73BF9054600BFFDF749
:103F000009FA00BF13480078401E1249087008469D
:103F1000007860B100BFFDF717FA00BF2846FCF734
:103F20002BF900BF00BF46F663502080D1E700BFE9
:103F3000FDF70AFA00BF2846FCF71EF900BF00BFD4
:103F4000FFF72EFF0020208000BFC2E7A400002062
:103F5000AC000020BE00002070B504461C4800786C
:103F6000012803D045F68B60208070BD00256D1CB4
:103F70006D1C6D1C17480088A84203DC45F68C6058
:103F80002080F2E714480078E8B900F0D3FE134926
:103F9000087008460078124908701048007800EB55
:103FA0004000104951F820000F4908600846006899
:103FB0000E490860012008490870FCF787FD43F6A8
:103FC0009920208002E045F68A60208000BFCCE77F
:103FD000AD000020D8000020AC000020B700002079
:103FE000B6000020AC66002018010020140100205B
:103FF0002DE9FF4F85B004469246DDE912B5DDE9B3
:104000001968002002905248007830B147F24A10F7
:10401000A8F8000009B0BDE8F08FBBF11F0F07D171
:104020004C48844204D046F27320A8F80000F1E71F
:10403000204601F003F80020A8F8000016F0010F58
:1040400002D116F0020F10D016F0020F0DD02F463D
:104050000020049005E0002038603F1D0498401CBB
:104060000490159904988842F5D3149805EB8000C4
:1040700003901598CDE900062A465046039B0899FF
:1040800000F088F90746AF4204D246F62C60A8F843
:104090000000BFE7C4F828A00898E0620698A06076
:1040A00084F837B084F838B027600398E060189837
:1040B0006060656215982064A4F844604FF00009C0
:1040C00008E0002104F1780040F8291009F101000E
:1040D00000F0FF09B9F1000FF3D004F16000169968
:1040E00000F07EFC204600F03BF800BF00BFFCF76C
:1040F0003FF8029000BFFDF70DF900BF94F83700BC
:1041000000F030FE204600F099FE204600F06EFFE1
:1041100011480088401C1049088010480078012888
:1041200009D000BFFDF710F900BF0298FCF724F892
:1041300000BF00BF6EE700BFFDF706F900BF0298A1
:10414000FCF71AF800BF00BFFFF72AFE00BF61E7C7
:10415000A4000020E8650020D8000020AC0000206A
:1041600010B504460348006818B1204601490968A3
:10417000884710BD8400002010B50446034800683D
:1041800018B1204601490968884710BD8C000020FD
:104190002DE9F0470746884614461D464FF00009B2
:1041A0007048007828B146F2AE1028800020BDE8A3
:1041B000F08700BF00BFFBF7DBFF814600BFFDF7C4
:1041C000A9F800BF68480068C06CB8B366480068CA
:1041D000C06C401E64490968C86463480068C66CC6
:1041E0001CB161480068806C2060FDF721F95E49D0
:1041F0000968896C401A5C490968C1F898005A48F6
:104200000068D0F89C0058490968D1F89810884295
:1042100007D255480068D0F8980053490968C1F89A
:104220009C0000BFFDF790F800BF4846FBF7A4FFD5
:1042300000BF00BF002028803046B8E7FFE718F431
:10424000004F10D000BFFDF77FF800BF4846FBF7D6
:1042500093FF00BF00BF0CB10020206046F2B010F9
:1042600028800020A3E74148007880B10CB10020ED
:10427000206000BFFDF768F800BF4846FBF77CFFF1
:1042800000BF00BF46F66350288000208FE73B4602
:1042900007220021084600F0EBFB00BFFDF754F8B1
:1042A00000BF4846FBF768FF00BF00BFFFF778FD7F
:1042B00000BF00BFFBF75CFF814600BFFDF72AF897
:1042C00000BF2948006890F8350020B1012826D0A9
:1042D000032834D12CE0FCB123480068806C2060B6
:1042E000FDF7A6F820490968896C401A1E4909683B
:1042F000C1F898001C480068D0F89C001A49096869
:10430000D1F89810884207D217480068D0F8980072
:1043100015490968C1F89C000020288013E01CB1F1
:1043200011480068806C206046F2A91028800AE0DD
:104330000CB10020206047F2D920288003E046F627
:104340002E60288000BF00BF07480068C66C00BF11
:10435000FCF7FAFF00BF4846FBF70EFF00BF00BFA7
:10436000304624E7A400002014010020BE000020F5
:104370002DE9F04105460E461446FDF759F88046F2
:10438000234642463146284600F0C2FE07463846DC
:10439000BDE8F081F0B50446DDE9055602EB850085
:1043A00020F007004FF0807C071F3846C7F800C098
:1043B000071F38463C60DFF89CC0071F3846C7F827
:1043C00000C04FF0123C071F3846C7F800C04FF03E
:1043D000033C071F3846C7F800C04FF0023C071FD8
:1043E0003846C7F800C0071F38463B60071F3846ED
:1043F00039604FF0113C071F3846C7F800C04FF036
:10440000103C071F3846C7F800C04FF0093C071F93
:104410003846C7F800C04FF0083C071F3846C7F8B9
:1044200000C04FF0073C071F3846C7F800C04FF0E8
:10443000063C071F3846C7F800C04FF0053C071F71
:104440003846C7F800C04FF0043C071F3846C7F88D
:1044500000C0F0BDED50000870B51B48006810B1F9
:10446000194800688047FCF7E3FF044617480068D6
:1044700017490968884215D014480068D0F88C00A4
:10448000201A12490968C1F8880010480068D0F85D
:1044900090000E490968D1F8881008440B49096852
:1044A000C1F890000A480068C0F88C40FCF71CFF77
:1044B000054606480068D0F8A800A84203D2034881
:1044C0000068C0F8A85070BD9800002014010020BA
:1044D000180100202DE9F04105460E46144600273C
:1044E0002848007820B147F275202080BDE8F0818F
:1044F0002548007818B146F663502080F6E736B1BB
:10450000022E05D0042E0AD0082E09D101E000BFEA
:1045100000BF1DB947F27E202080E7E704E003E0FA
:1045200045F625602080E1E700BF00BF00BFFBF734
:104530001FFE074600BFFCF7EDFE00BF23463246D4
:1045400029461248006800F01FFF208848B100BFCC
:10455000FCF7FAFE00BF3846FBF70EFE00BF00BFB7
:10456000C4E70A48006800F087FC00BFFCF7ECFED7
:1045700000BF3846FBF700FE00BF00BFFFF710FC8E
:1045800000BFB3E7A4000020BE00002014010020FB
:104590002DE9F84F06460F46904699460B9C0020A1
:1045A00000904048007820B147F275202080BDE897
:1045B000F88F3D48007818B146F663502080F6E742
:1045C0000A9800F00E0ABAF1000F09D0BAF1020FF2
:1045D00007D0BAF1040F12D0BAF1080F10D101E0E0
:1045E00000BF00BFB9F1000F08D1B8F1000F05D12D
:1045F00027B91EB947F27E202080D8E704E003E007
:1046000045F625602080D2E700BF284805684FF4B2
:10461000FA70B0FBF5F0484468434FF47A71B0FB90
:10462000F1F14FF461607043C7EB071200EB8200B9
:10463000404400FB051BBBF1000F2DD000BF00BFA5
:10464000FBF796FD009000BFFCF764FE00BF234619
:10465000524659461648006800F096FE208848B138
:1046600000BFFCF771FE00BF0098FBF785FD00BF9F
:1046700000BF9CE70E48006800F0FEFB00BFFCF79F
:1046800063FE00BF0098FBF777FD00BF00BFFFF798
:1046900087FB0020208002E047F27E20208000BFC0
:1046A00085E70000A4000020BE00002028CE0008FE
:1046B0001401002008B50F480078012800D008BD7B
:1046C00000F022F86A4600210B48FFF751FE0B4824
:1046D0000068401E094908600846006840B908485B
:1046E000006808606A4600210648FFF741FE00BFE7
:1046F00000BFE4E7AC0000202C680020100100207F
:104700000C0100201469002010B50348006810B1A6
:1047100001480068804710BD9C00002010B50024AF
:1047200000BF00BFFBF724FD044600BFFCF7F2FD0D
:1047300000BFFFF7A5F800BFFCF706FE00BF20464C
:10474000FBF71AFD00BF00BFFFF7B4FFFFF7AEF89D
:1047500010BD0000214A2249224A234A2349244A03
:104760002448254A254A2648264A274A27482848D1
:1047700028482948294A2A4A2A4A2B482B4A2C4A9F
:104780002C482D482D482E482E482F482F48304A77
:10479000304A314A314A324832483348334A344A3F
:1047A000344A35483548364836493748374A384A12
:1047B000384A394A394A3A4A3A4A3B483B4A3C4ADB
:1047C0003C483D483D4A3E4A3E483F4A3F4A4048B1
:1047D000404800BF00BF00BF704700005CCE00082B
:1047E000C4CF00085DCE00085ECE000860CE000891
:1047F00064CE000868CE000865CE00089ACE000896
:104800009CCE0008BCCE0008C0CE0008C2CE000876
:10481000C4CE0008C6CE0008C8CE0008F8CE0008F6
:10482000F9CE0008FACE0008FCCE0008FECE000843
:10483000FFCE000800CF000802CF000804CF000818
:1048400006CF000808CF00080ACF00080CCF0008E8
:104850003CCF00083DCF00083ECF00083FCF000806
:1048600040CF000842CF000844CF00086CCF0008BA
:104870006DCF00086ECF00086FCF000870CF000822
:1048800072CF000874CF000878CF000879CF0008F5
:104890007ACF00087BCF00087CCF00087DCF0008CE
:1048A0007ECF00087FCF000880CF000882CF0008AD
:1048B00083CF000884CF000886CF000888CF000887
:1048C00089CF00088CCF0008BCCF0008BDCF0008FE
:1048D000BECF0008C0CF0008002418E000BF00BF12
:1048E000FBF746FC044600BFFCF714FD00BF084878
:1048F0000068401C0649086000BFFCF725FD00BFAA
:104900002046FBF739FC00BF00BFFEF7FBFEE5E7E2
:10491000A000002010B58AB0044600200E490860AF
:104920000B2000210591CDE90704069108460B49AB
:1049300009680B4A12680B4B1B68CDE90132CDE9BF
:1049400003101F200023084A08A100900C48FFF71D
:104950004FFB0AB010BD0000A0000020D0CD000821
:10496000CCCD0008C8CD0008D948000875432F4FAA
:10497000532D4949492049646C65205461736B008B
:10498000E865002070B50246124D2868296810318C
:10499000114D2D886D1EACB2002308E0016000258A
:1049A00045600581C560103010315D1CABB2A3427B
:1049B000F4DB0025056045600581C560054D2D6867
:1049C000064E3560044D2D88B5800025F580358173
:1049D000158070BD08CE000800CE0008A06600203B
:1049E00001810022428182810260426070470000A2
:1049F00009A1C161002141610849096811B900217B
:104A0000816105E0054909688161044909684861D7
:104A1000024908607047000020000000B00000203C
:104A2000C26B0A62C163704730B504461F2004F1AF
:104A30003C010BE00D68AB682BB19D6895F8372001
:104A4000824200DA10460D6805F120010D68002D44
:104A5000F0D130BD024602F13C0002E0036803F1F0
:104A6000200003688B42F9D103681B6A036070471A
:104A70002DE9F04105460C4616461F4613480068CE
:104A800080F8346000201149096881F83500394602
:104A90000E48006800F01EFA6CB104F10808EC60E2
:104AA000012229460948006800F012F829464046CC
:104AB00000F079F803E0002004490968086303481E
:104AC0000168204600F00EF8BDE8F08114010020D6
:104AD000016300234B600B600B614B610B83CB6167
:104AE0008860704730B548B14568C1F8B45000F1EE
:104AF0000804226893689D68C56113E091F83450FA
:104B0000022D02D0072D08D103E007A5C1F8B4504B
:104B100007E007A5C1F8B45003E008A5C1F8B450F8
:104B200000BF00BF30BD00005461736B2051000016
:104B30005461736B2053656D00000000200000007D
:104B400030B507A5C1F8B45000F1080422681AB1C5
:104B500093689D68C56101E001A5C56130BD000095
:104B6000200000002DE9F0410646346B012711E0DA
:104B7000D4F80C8008F108052868406838B121464F
:104B8000284600F05CF82146284600F00CF8203456
:104B9000781E87B2002FEBD1BDE8F08100210160C3
:104BA000416001817047F0B58E6896F8375007680C
:104BB0003FB90127078100274F600F600160416006
:104BC00023E007897F1C0781026806E0946894F857
:104BD0003770AF4200DD02E05268002AF6D100BF14
:104BE00032B900274F6043680B60596041600CE0A8
:104BF00017682FB9116000270F604A60016004E058
:104C000013680B604A6059601160F0BD2DE9F041F6
:104C10000446206B88B1256B01260AE0D5F80C808C
:104C200008F108072946384600F009F82035701EBB
:104C300086B2002EF2D100202063BDE8F08110B5CD
:104C4000046864681CB900240460446011E00C68C6
:104C500024B94B6800241C6003600AE04C6824B946
:104C60000A6800245460426003E00A684B6853609D
:104C70001A600489641E048100244C600C6010BD1D
:104C80002DE9F04105460C4616461F46DDF8188012
:104C900094F83600082848D2DFE800F00405080937
:104CA0000607282900BF00BF00BF3FE000BFA66580
:104CB000A4F85C70C4F8488035B12046FFF7A6FF21
:104CC00021462846FFF73CFF94F83600032802D11E
:104CD000204600F0ADFB204600F07AF8002004F1F9
:104CE0003404A070607004F834091FE000BFA665AA
:104CF000A4F85C70C4F8488035B12046FFF786FF01
:104D000021462846FFF71CFF94F83600072802D1F9
:104D1000204600F08DFB042004F13404A0704FF015
:104D20000000607004F8340900E000BF00BFBDE877
:104D3000F081000070B50024034D2868FBF723FACA
:104D40002044C4B2204670BD80000020002004E052
:104D50000021034A42F82010401C0028F8D0704778
:104D60008000002030B5002203460121C3F11F045A
:104D7000A140044C54F822400C43024D45F8224017
:104D800030BD00008000002030B500220346012124
:104D9000C3F11F04A140044C54F822408C43024D3F
:104DA00045F8224030BD000080000020002109E0CD
:104DB00001EB4102054B03EB8200002202810260FD
:104DC0004260491C2029F3D370470000AC660020E4
:104DD00010B5044694F83700FFF7C4FF94F8370085
:104DE00005490978884203D1204600F027F802E0FF
:104DF000204600F003F810BDB600002010B590F872
:104E0000373003EB43030C4C04EB83010B683BB9D5
:104E100001230B810023036143610860486009E0BE
:104E20000B895B1C0B810B680361002343610A68DB
:104E30005061086010BD0000AC66002010B590F80D
:104E4000373003EB43030B4C04EB83010B683BB996
:104E500001230B810023036143610860486008E07F
:104E60000B895B1C0B81002303614A68426110615E
:104E7000486010BDAC6600202DE9F041054695F86C
:104E8000370000EB4000124901EB80046F692E6986
:104E900087B946B9002020812060606095F837000E
:104EA000FFF772FF0EE02089401E20810020706114
:104EB000266007E02089401E20813E610EB96760B0
:104EC00000E07761002068612861BDE8F0810000A2
:104ED000AC66002070B504460D4645B12A46214611
:104EE000064800F00DFA032084F8360002E00220A4
:104EF00084F836002046FFF7BFFF70BDEC000020AD
:104F00002DE9F04104460D4600BF002694F83770A5
:104F100094F8360008285ED2DFE800F004191E1F5E
:104F20001A1B20212046FFF7A7FF84F8375094F87A
:104F30003700FFF717FF2C480068844203D1204652
:104F4000FFF75CFF02E02046FFF778FF45E000BF77
:104F500000BF84F8375040E000BF00BF00BF84F8B6
:104F6000375094F83400082830D2DFE800F02F04DE
:104F7000302F0A05063100BF00BF2046FFF7F2FDC3
:104F800027E02046FFF7EEFD206BC068466AAF427F
:104F900005DD96F83700A84217DC002615E096F8E4
:104FA0003700B84211D13046FFF73EFD054696F86E
:104FB0003800A84202DA96F8380000E02846054694
:104FC00096F83700A84200D1002602E000BF00BFDB
:104FD00000BF00BF01E0BDE8F08100BF3446002CF7
:104FE00093D100BFF7E70000140100200021C0F8B2
:104FF000AC100949096819B90021C0F8B01007E0E0
:1050000005490968C0F8B01003490968C1F8AC0047
:105010000149086070470000D40000200021044AC4
:105020001160044A1180044A116001807047000039
:10503000D4000020D8000020D000002070B5044625
:1050400000202060E060606020616061A061E0613C
:10505000206223A0A06000206062A062E062A064E1
:10506000A065A4F85C00002104F16000FFF7B8FC23
:10507000002020676067002506E0002104F1780029
:1050800040F82510681CC5B2002DF6D0002004F1B0
:105090003404A0616066A066E06084F84800206780
:1050A000E0662082E0612062A4F84A00A4F84C0087
:1050B00020656065FCF7BCF9A0650020E0656067CD
:1050C00020706070A0702020E07020710020A0602F
:1050D000A067E06704A0C4F88000A4F1340470BDA8
:1050E0003F5461736B0000002000000008B50648C3
:1050F0000068FFF741F806E06A46002103480068AF
:10510000FFF7E8F900BFF7E71401002028CE0008F8
:105110002DE9F8430446884617461D464FF000091E
:1051200000BF00BFFBF724F8814600BFFCF7F2F890
:1051300000BF0CB971480468A7640020288094F867
:105140003600082877D2DFE800F004055859060732
:105150005A5B00BF00BF00BF0420012804D0022812
:1051600015D0042839D126E0E06CFF280ED100BF0D
:10517000FCF7EAF800BF4846FAF7FEFF00BF00BFA1
:1051800046F6C55028800020BDE8F88326E0E06C94
:10519000A0F57F41FF390DD100BFFCF7D5F800BF66
:1051A0004846FAF7E9FF00BF00BF46F6C550288021
:1051B0000020E9E712E0E06C401C0DD100BFFCF7D5
:1051C000C3F800BF4846FAF7D7FF00BF00BF46F656
:1051D000C55028800020D7E700E000BF00BFE06C8A
:1051E000401CE064E66C00BFFCF7AEF800BF484628
:1051F000FAF7C2FF00BF00BF7CE000BF00BF00BFE6
:1052000094F83400072817D100231A46214618467F
:105210000097FFF735FDE66C00BFFCF795F800BF7F
:105220004846FAF7A9FF00BF00BF18F4004F52D15B
:10523000FEF7B6FD4FE04FE00420012804D002281D
:1052400014D0042838D125E0E06CFF280DD100BF30
:10525000FCF77AF800BF4846FAF78EFF00BF00BFA0
:1052600046F6C550288000208EE726E0E06CA0F5C9
:105270007F41FF390DD100BFFCF766F800BF4846FB
:10528000FAF77AFF00BF00BF46F6C550288000201D
:105290007AE712E0E06C401C0DD100BFFCF754F837
:1052A00000BF4846FAF768FF00BF00BF46F6C5508A
:1052B0002880002068E700E000BF00BFE06C401CD1
:1052C000E064E66C00BFFCF73FF800BF4846FAF721
:1052D00053FF00BF00BF0DE000BFFCF735F800BF73
:1052E0004846FAF749FF00BF00BF46F62D60288008
:1052F000002600BF00BF304646E700001401002032
:1053000070B51546066846B90D6500268E61CE61FA
:10531000086201600126868033E0046802682B463B
:1053200024E0166D9E421DD3D6696EB90B6500262A
:10533000CE618A610862166DF61A1665D161016048
:105340008688761C86800CE0D4690B65CC618A6106
:105350000862166DF61A1665D161A1618688761C01
:10536000868070BD166D9B1B14469269002AD8D1A9
:105370000B65CC6100268E610862A1618688761C6F
:10538000868000BFEDE700002DE9F04304460D469E
:105390009146984624480768B9F1040F0CD1EE1BDA
:1053A00016F5803F00D866BB0020206547F27E20BE
:1053B000A8F80000BDE8F083B9F1080F22D1606DB4
:1053C000381AA84203D92E46781960651BE0606D33
:1053D000381A2E1A16F5803F00D87EB9606D381A3B
:1053E000B0FBF5F005FB0050616D084460650020DE
:1053F000206547F27E20A8F80000DBE7606D2844B6
:10540000606500E02E460020A8F80000012084F826
:10541000360005480068381A821921460348FFF70C
:105420006FFF00BFC6E70000DC000020E4000020A2
:1054300030B5026AC3698169ABB929B90024146027
:105440009480046504621EE00024CC610C6D056D3F
:105450002C440C6511609488641E9480002484613F
:10546000046504620FE0996121B1CB610C6D056D9B
:105470002C440C650024C4619488641E948000242C
:1054800084610465046230BD2DE9F0470546FBF7F1
:10549000CFFF81464FF00008244E3468002C3CD0EA
:1054A000206DA84204D8206D2D1A0020206502E04E
:1054B000206D401B20652CE008F101001FFA80F8E8
:1054C00094F83600012806D1002084F836002046E2
:1054D000FFF77EFC06E094F83600052802D1042090
:1054E00084F83600A0693060346814B90020B080B8
:1054F00012E0B088401EB0800020E061206DA8421C
:1055000004D8206D2D1A0020206502E0206D401B7C
:105510002065206D0028CFD000BFA6F80680FBF7DD
:1055200087FFA0EB09073846BDE8F087E4000020BC
:105530002DE9F05F0646FBF77BFF83464FF0000A3C
:10554000424F3C68002C77D0206DB04204D8206DCB
:10555000361A0020206502E0206D801B206567E080
:105560000AF101001FFA80FA002594F8340004289B
:1055700002D1206BC068456A0020A065A4F85C00D9
:10558000FBF756FFA0642046FFF740FB94F8360077
:10559000032806D12046FFF71BFC002084F83600C4
:1055A00006E094F83600072802D1042084F836007B
:1055B000032084F83500002084F8340005B395F802
:1055C000370095F8381088421AD095F8370094F8CB
:1055D0003710884214D12846FFF726FA804695F8FE
:1055E0003800404502DA95F8380000E04046804631
:1055F00095F83700404503D041462846FFF780FC28
:10560000A06938603C6814B90020B88013E0B888FD
:10561000401EB8800020E061206DB04205D8206DAA
:10562000361A0020206503E006E0206D801B20650F
:10563000206D002894D000BFA7F806A0FBF7F8FE65
:10564000A0EB0B094846BDE8F09F0000EC000020ED
:1056500008B54FF000082FE06B46002211461046B7
:10566000FEF796FDBDF8000030BB00BF00BFFAF7A3
:105670007FFD804600BFFBF74DFE00BF01270F48AE
:105680000068401C0D4908603846FFF7FDFE0646DD
:105690003846FFF74DFF0546741909480068A042D7
:1056A00001D20748046000BFFBF74EFE00BF404632
:1056B000FAF762FD00BF00BFCEE70000DC0000206B
:1056C000E000002010B58AB00446002020490860A0
:1056D00020490860204908601E498880C8801E490A
:1056E0008880C8801D48006820B947F212202080B9
:1056F0000AB010BD1A4800681A490968884203D2E6
:1057000047F213202080F3E7174800781F2803D3BF
:1057100047F211202080EBE70B2000210591CDE915
:105720000704069108460E490A68104909680B4BA0
:105730001B68CDE90131CDE903200B480078002337
:105740000B4A0CA100901048FEF752FC00BFCFE7B7
:10575000DC000020E4000020EC00002030CE000837
:1057600038CE000824CE00082CCE000834CE000825
:105770005156000875432F4F532D4949492054690C
:10578000636B205461736B002C68002010B58AB0E5
:10579000044600202F4908602F4908602F490880DF
:1057A0002F48006840B12F4800682D490968B0FBB8
:1057B000F1F02D49086006E02A4800680A21B0FB94
:1057C000F1F029490860284800682849086000204D
:1057D0002749086027490860224627A12A48FEF782
:1057E000D5F8208808B10AB010BD2848006818B95B
:1057F00047F247302080F6E72548006825490968C8
:10580000884203D247F248302080ECE722480078F3
:105810001F2803D347F246302080E4E70B20002105
:1058200005910A46CDE907040691194800681B490D
:105830000968164B1B68CDE90131CDE90302164812
:1058400000780023164A17A100901C48FEF7D0FBF1
:1058500000BFC8E7F4000020FC000020F800002092
:1058600044CE000828CE00080C01002010010020C2
:1058700008010020040100204F5320546D72204D78
:105880007574657800000000E468002048CE0008C8
:1058900050CE000824CE000840CE00084CCE0008B0
:1058A000D958000875432F4F532D49494920546951
:1058B0006D6572205461736B000000001469002054
:1058C0000EB502A801AB0022114600900148FEF778
:1058D0009DF80EBDE46800201CB53FE001AB6A46B0
:1058E00000210846FEF754FCFFF7EAFFFBF7A0FD96
:1058F00006461B480068401C19490860194804689E
:105900001FE001A8FEF7A0FAD4F81080A069401E9D
:10591000A061A06980B9A08C022802D1206AA06190
:1059200005E0204600F022F8032084F82600A56850
:1059300015B12046E168A847444601A8FEF7C0FA21
:1059400000BF002CDDD1FBF773FD871B0648006804
:10595000B84201D20448076000F02AF8BEE7000010
:1059600008010020FC0000200401002010B50E4BAF
:105970001B68834206D101690B4B196039B10023C2
:105980004B6104E0416902690A6102B1516101237E
:1059900080F82630002303614361044B1B885B1EA3
:1059A000024C238010BD0000FC000020F800002005
:1059B00008B56A4600210248FEF72AF908BD000032
:1059C000E468002010B50024FE480188FE48006805
:1059D00006F0DAFF0446002C7DD004F071FCFA4991
:1059E0000860FA48B0F88A12F948B0F88A02814291
:1059F0003FD1F648B0F88812F548B0F888028142E5
:105A000037D1F248B0F81013F148B0F810038142D2
:105A10002FD1EE48B0F81213ED48B0F812038142CE
:105A200027D1EA48B0F81E13E948B0F81E038142B6
:105A30001FD1E648B0F82213E548B0F822038142AE
:105A400017D1E248B0F82413E148B0F824038142AA
:105A50000FD1DE48B0F82613DD48B0F826038142A6
:105A600007D1DA48B0F82013D948B0F820038142B2
:105A700045D0D648B0F88A12D548A0F88A12D34843
:105A8000B0F88812D248A0F88812D048B0F81013A5
:105A9000CF48A0F81013CD48B0F81213CC48A0F8A6
:105AA0001213CA48B0F81E13C948A0F81E13C748FD
:105AB000B0F82013C648A0F82013C448B0F8221349
:105AC000C348A0F82013C148B0F82413C048A0F878
:105AD0002013BE4800E011E0B0F82613BC48A0F83F
